{
  "_format": "hh-sol-artifact-1",
  "contractName": "DepositVault",
  "sourceName": "contracts/vault/DepositVault.sol",
  "abi": [
    {
      "inputs": [],
      "stateMutability": "nonpayable",
      "type": "constructor"
    },
    {
      "inputs": [],
      "name": "AccessControlBadConfirmation",
      "type": "error"
    },
    {
      "inputs": [
        {
          "internalType": "address",
          "name": "account",
          "type": "address"
        },
        {
          "internalType": "bytes32",
          "name": "neededRole",
          "type": "bytes32"
        }
      ],
      "name": "AccessControlUnauthorizedAccount",
      "type": "error"
    },
    {
      "inputs": [
        {
          "internalType": "address",
          "name": "target",
          "type": "address"
        }
      ],
      "name": "AddressEmptyCode",
      "type": "error"
    },
    {
      "inputs": [
        {
          "internalType": "address",
          "name": "implementation",
          "type": "address"
        }
      ],
      "name": "ERC1967InvalidImplementation",
      "type": "error"
    },
    {
      "inputs": [],
      "name": "ERC1967NonPayable",
      "type": "error"
    },
    {
      "inputs": [],
      "name": "EnforcedPause",
      "type": "error"
    },
    {
      "inputs": [],
      "name": "ExpectedPause",
      "type": "error"
    },
    {
      "inputs": [],
      "name": "FailedCall",
      "type": "error"
    },
    {
      "inputs": [],
      "name": "InvalidInitialization",
      "type": "error"
    },
    {
      "inputs": [],
      "name": "NotInitializing",
      "type": "error"
    },
    {
      "inputs": [
        {
          "internalType": "address",
          "name": "owner",
          "type": "address"
        }
      ],
      "name": "OwnableInvalidOwner",
      "type": "error"
    },
    {
      "inputs": [
        {
          "internalType": "address",
          "name": "account",
          "type": "address"
        }
      ],
      "name": "OwnableUnauthorizedAccount",
      "type": "error"
    },
    {
      "inputs": [],
      "name": "ReentrancyGuardReentrantCall",
      "type": "error"
    },
    {
      "inputs": [
        {
          "internalType": "address",
          "name": "token",
          "type": "address"
        }
      ],
      "name": "SafeERC20FailedOperation",
      "type": "error"
    },
    {
      "inputs": [],
      "name": "UUPSUnauthorizedCallContext",
      "type": "error"
    },
    {
      "inputs": [
        {
          "internalType": "bytes32",
          "name": "slot",
          "type": "bytes32"
        }
      ],
      "name": "UUPSUnsupportedProxiableUUID",
      "type": "error"
    },
    {
      "anonymous": false,
      "inputs": [
        {
          "indexed": true,
          "internalType": "uint256",
          "name": "depositId",
          "type": "uint256"
        },
        {
          "indexed": true,
          "internalType": "address",
          "name": "user",
          "type": "address"
        },
        {
          "indexed": false,
          "internalType": "uint256",
          "name": "usdAmount",
          "type": "uint256"
        },
        {
          "indexed": false,
          "internalType": "uint256",
          "name": "sharesMinted",
          "type": "uint256"
        },
        {
          "indexed": false,
          "internalType": "uint256",
          "name": "timestamp",
          "type": "uint256"
        }
      ],
      "name": "DepositProcessed",
      "type": "event"
    },
    {
      "anonymous": false,
      "inputs": [
        {
          "indexed": true,
          "internalType": "uint256",
          "name": "depositId",
          "type": "uint256"
        },
        {
          "indexed": true,
          "internalType": "address",
          "name": "user",
          "type": "address"
        },
        {
          "indexed": false,
          "internalType": "uint256",
          "name": "amount",
          "type": "uint256"
        },
        {
          "indexed": false,
          "internalType": "uint256",
          "name": "fee",
          "type": "uint256"
        },
        {
          "indexed": false,
          "internalType": "uint256",
          "name": "timestamp",
          "type": "uint256"
        }
      ],
      "name": "DepositRequested",
      "type": "event"
    },
    {
      "anonymous": false,
      "inputs": [
        {
          "indexed": true,
          "internalType": "address",
          "name": "treasury",
          "type": "address"
        },
        {
          "indexed": false,
          "internalType": "uint256",
          "name": "amount",
          "type": "uint256"
        },
        {
          "indexed": false,
          "internalType": "string",
          "name": "feeType",
          "type": "string"
        }
      ],
      "name": "FeesCollected",
      "type": "event"
    },
    {
      "anonymous": false,
      "inputs": [
        {
          "indexed": false,
          "internalType": "uint64",
          "name": "version",
          "type": "uint64"
        }
      ],
      "name": "Initialized",
      "type": "event"
    },
    {
      "anonymous": false,
      "inputs": [
        {
          "indexed": true,
          "internalType": "address",
          "name": "previousOwner",
          "type": "address"
        },
        {
          "indexed": true,
          "internalType": "address",
          "name": "newOwner",
          "type": "address"
        }
      ],
      "name": "OwnershipTransferred",
      "type": "event"
    },
    {
      "anonymous": false,
      "inputs": [
        {
          "indexed": false,
          "internalType": "address",
          "name": "account",
          "type": "address"
        }
      ],
      "name": "Paused",
      "type": "event"
    },
    {
      "anonymous": false,
      "inputs": [
        {
          "indexed": false,
          "internalType": "int256",
          "name": "rewardAmount",
          "type": "int256"
        },
        {
          "indexed": false,
          "internalType": "uint256",
          "name": "newTotalVaultValue",
          "type": "uint256"
        },
        {
          "indexed": false,
          "internalType": "uint256",
          "name": "timestamp",
          "type": "uint256"
        }
      ],
      "name": "RewardDistributed",
      "type": "event"
    },
    {
      "anonymous": false,
      "inputs": [
        {
          "indexed": true,
          "internalType": "bytes32",
          "name": "role",
          "type": "bytes32"
        },
        {
          "indexed": true,
          "internalType": "bytes32",
          "name": "previousAdminRole",
          "type": "bytes32"
        },
        {
          "indexed": true,
          "internalType": "bytes32",
          "name": "newAdminRole",
          "type": "bytes32"
        }
      ],
      "name": "RoleAdminChanged",
      "type": "event"
    },
    {
      "anonymous": false,
      "inputs": [
        {
          "indexed": true,
          "internalType": "bytes32",
          "name": "role",
          "type": "bytes32"
        },
        {
          "indexed": true,
          "internalType": "address",
          "name": "account",
          "type": "address"
        },
        {
          "indexed": true,
          "internalType": "address",
          "name": "sender",
          "type": "address"
        }
      ],
      "name": "RoleGranted",
      "type": "event"
    },
    {
      "anonymous": false,
      "inputs": [
        {
          "indexed": true,
          "internalType": "bytes32",
          "name": "role",
          "type": "bytes32"
        },
        {
          "indexed": true,
          "internalType": "address",
          "name": "account",
          "type": "address"
        },
        {
          "indexed": true,
          "internalType": "address",
          "name": "sender",
          "type": "address"
        }
      ],
      "name": "RoleRevoked",
      "type": "event"
    },
    {
      "anonymous": false,
      "inputs": [
        {
          "indexed": true,
          "internalType": "address",
          "name": "oldStrategy",
          "type": "address"
        },
        {
          "indexed": true,
          "internalType": "address",
          "name": "newStrategy",
          "type": "address"
        }
      ],
      "name": "StrategyUpdated",
      "type": "event"
    },
    {
      "anonymous": false,
      "inputs": [
        {
          "indexed": true,
          "internalType": "address",
          "name": "oldTreasury",
          "type": "address"
        },
        {
          "indexed": true,
          "internalType": "address",
          "name": "newTreasury",
          "type": "address"
        }
      ],
      "name": "TreasuryUpdated",
      "type": "event"
    },
    {
      "anonymous": false,
      "inputs": [
        {
          "indexed": false,
          "internalType": "address",
          "name": "account",
          "type": "address"
        }
      ],
      "name": "Unpaused",
      "type": "event"
    },
    {
      "anonymous": false,
      "inputs": [
        {
          "indexed": true,
          "internalType": "address",
          "name": "implementation",
          "type": "address"
        }
      ],
      "name": "Upgraded",
      "type": "event"
    },
    {
      "anonymous": false,
      "inputs": [
        {
          "indexed": true,
          "internalType": "address",
          "name": "vault",
          "type": "address"
        },
        {
          "indexed": true,
          "internalType": "address",
          "name": "stablecoin",
          "type": "address"
        },
        {
          "indexed": true,
          "internalType": "address",
          "name": "strategy",
          "type": "address"
        },
        {
          "indexed": false,
          "internalType": "address",
          "name": "shareToken",
          "type": "address"
        },
        {
          "indexed": false,
          "internalType": "address",
          "name": "treasury",
          "type": "address"
        },
        {
          "indexed": false,
          "internalType": "uint256",
          "name": "timestamp",
          "type": "uint256"
        }
      ],
      "name": "VaultInitialized",
      "type": "event"
    },
    {
      "anonymous": false,
      "inputs": [
        {
          "indexed": true,
          "internalType": "uint256",
          "name": "withdrawalId",
          "type": "uint256"
        },
        {
          "indexed": true,
          "internalType": "address",
          "name": "user",
          "type": "address"
        },
        {
          "indexed": false,
          "internalType": "uint256",
          "name": "shares",
          "type": "uint256"
        },
        {
          "indexed": false,
          "internalType": "uint256",
          "name": "shareValueAtProcessing",
          "type": "uint256"
        },
        {
          "indexed": false,
          "internalType": "uint256",
          "name": "usdAmount",
          "type": "uint256"
        },
        {
          "indexed": false,
          "internalType": "uint256",
          "name": "fee",
          "type": "uint256"
        },
        {
          "indexed": false,
          "internalType": "uint256",
          "name": "timestamp",
          "type": "uint256"
        }
      ],
      "name": "WithdrawalProcessed",
      "type": "event"
    },
    {
      "anonymous": false,
      "inputs": [
        {
          "indexed": true,
          "internalType": "uint256",
          "name": "withdrawalId",
          "type": "uint256"
        },
        {
          "indexed": true,
          "internalType": "address",
          "name": "user",
          "type": "address"
        },
        {
          "indexed": false,
          "internalType": "uint256",
          "name": "shares",
          "type": "uint256"
        },
        {
          "indexed": false,
          "internalType": "uint256",
          "name": "shareValueAtRequest",
          "type": "uint256"
        },
        {
          "indexed": false,
          "internalType": "uint256",
          "name": "expectedUsdAmount",
          "type": "uint256"
        },
        {
          "indexed": false,
          "internalType": "uint256",
          "name": "canBeApprovedAt",
          "type": "uint256"
        },
        {
          "indexed": false,
          "internalType": "uint256",
          "name": "timestamp",
          "type": "uint256"
        }
      ],
      "name": "WithdrawalRequested",
      "type": "event"
    },
    {
      "inputs": [],
      "name": "ADMIN_ROLE",
      "outputs": [
        {
          "internalType": "bytes32",
          "name": "",
          "type": "bytes32"
        }
      ],
      "stateMutability": "view",
      "type": "function"
    },
    {
      "inputs": [],
      "name": "DEFAULT_ADMIN_ROLE",
      "outputs": [
        {
          "internalType": "bytes32",
          "name": "",
          "type": "bytes32"
        }
      ],
      "stateMutability": "view",
      "type": "function"
    },
    {
      "inputs": [],
      "name": "DEPOSIT_FEE",
      "outputs": [
        {
          "internalType": "uint256",
          "name": "",
          "type": "uint256"
        }
      ],
      "stateMutability": "view",
      "type": "function"
    },
    {
      "inputs": [],
      "name": "MAX_PENDING_DEPOSITS_PER_USER",
      "outputs": [
        {
          "internalType": "uint256",
          "name": "",
          "type": "uint256"
        }
      ],
      "stateMutability": "view",
      "type": "function"
    },
    {
      "inputs": [],
      "name": "MAX_PENDING_WITHDRAWALS_PER_USER",
      "outputs": [
        {
          "internalType": "uint256",
          "name": "",
          "type": "uint256"
        }
      ],
      "stateMutability": "view",
      "type": "function"
    },
    {
      "inputs": [],
      "name": "MIN_DEPOSIT",
      "outputs": [
        {
          "internalType": "uint256",
          "name": "",
          "type": "uint256"
        }
      ],
      "stateMutability": "view",
      "type": "function"
    },
    {
      "inputs": [],
      "name": "MIN_WITHDRAWAL_SHARES",
      "outputs": [
        {
          "internalType": "uint256",
          "name": "",
          "type": "uint256"
        }
      ],
      "stateMutability": "view",
      "type": "function"
    },
    {
      "inputs": [],
      "name": "UPGRADER_ROLE",
      "outputs": [
        {
          "internalType": "bytes32",
          "name": "",
          "type": "bytes32"
        }
      ],
      "stateMutability": "view",
      "type": "function"
    },
    {
      "inputs": [],
      "name": "UPGRADE_INTERFACE_VERSION",
      "outputs": [
        {
          "internalType": "string",
          "name": "",
          "type": "string"
        }
      ],
      "stateMutability": "view",
      "type": "function"
    },
    {
      "inputs": [],
      "name": "WITHDRAWAL_DELAY",
      "outputs": [
        {
          "internalType": "uint256",
          "name": "",
          "type": "uint256"
        }
      ],
      "stateMutability": "view",
      "type": "function"
    },
    {
      "inputs": [],
      "name": "WITHDRAWAL_FEE",
      "outputs": [
        {
          "internalType": "uint256",
          "name": "",
          "type": "uint256"
        }
      ],
      "stateMutability": "view",
      "type": "function"
    },
    {
      "inputs": [
        {
          "internalType": "uint256[]",
          "name": "withdrawalIds",
          "type": "uint256[]"
        }
      ],
      "name": "approveWithdrawals",
      "outputs": [],
      "stateMutability": "nonpayable",
      "type": "function"
    },
    {
      "inputs": [
        {
          "internalType": "uint256",
          "name": "amount",
          "type": "uint256"
        }
      ],
      "name": "calculateDepositAmountAfterFee",
      "outputs": [
        {
          "internalType": "uint256",
          "name": "",
          "type": "uint256"
        }
      ],
      "stateMutability": "pure",
      "type": "function"
    },
    {
      "inputs": [
        {
          "internalType": "uint256",
          "name": "amount",
          "type": "uint256"
        }
      ],
      "name": "calculateWithdrawalAmountAfterFee",
      "outputs": [
        {
          "internalType": "uint256",
          "name": "",
          "type": "uint256"
        }
      ],
      "stateMutability": "pure",
      "type": "function"
    },
    {
      "inputs": [],
      "name": "depositIdCounter",
      "outputs": [
        {
          "internalType": "uint256",
          "name": "",
          "type": "uint256"
        }
      ],
      "stateMutability": "view",
      "type": "function"
    },
    {
      "inputs": [
        {
          "internalType": "uint256",
          "name": "amount",
          "type": "uint256"
        }
      ],
      "name": "depositToStrategy",
      "outputs": [],
      "stateMutability": "nonpayable",
      "type": "function"
    },
    {
      "inputs": [
        {
          "internalType": "uint256",
          "name": "",
          "type": "uint256"
        }
      ],
      "name": "deposits",
      "outputs": [
        {
          "internalType": "address",
          "name": "user",
          "type": "address"
        },
        {
          "internalType": "uint256",
          "name": "amount",
          "type": "uint256"
        },
        {
          "internalType": "uint256",
          "name": "timestamp",
          "type": "uint256"
        }
      ],
      "stateMutability": "view",
      "type": "function"
    },
    {
      "inputs": [
        {
          "internalType": "int256",
          "name": "rewardAmount",
          "type": "int256"
        }
      ],
      "name": "distributeRewards",
      "outputs": [],
      "stateMutability": "nonpayable",
      "type": "function"
    },
    {
      "inputs": [
        {
          "internalType": "bytes32",
          "name": "role",
          "type": "bytes32"
        }
      ],
      "name": "getRoleAdmin",
      "outputs": [
        {
          "internalType": "bytes32",
          "name": "",
          "type": "bytes32"
        }
      ],
      "stateMutability": "view",
      "type": "function"
    },
    {
      "inputs": [
        {
          "internalType": "address",
          "name": "user",
          "type": "address"
        }
      ],
      "name": "getUserDepositIds",
      "outputs": [
        {
          "internalType": "uint256[]",
          "name": "",
          "type": "uint256[]"
        }
      ],
      "stateMutability": "view",
      "type": "function"
    },
    {
      "inputs": [
        {
          "internalType": "address",
          "name": "user",
          "type": "address"
        }
      ],
      "name": "getUserPendingDepositCount",
      "outputs": [
        {
          "internalType": "uint256",
          "name": "",
          "type": "uint256"
        }
      ],
      "stateMutability": "view",
      "type": "function"
    },
    {
      "inputs": [
        {
          "internalType": "address",
          "name": "user",
          "type": "address"
        }
      ],
      "name": "getUserPendingWithdrawalCount",
      "outputs": [
        {
          "internalType": "uint256",
          "name": "",
          "type": "uint256"
        }
      ],
      "stateMutability": "view",
      "type": "function"
    },
    {
      "inputs": [
        {
          "internalType": "address",
          "name": "user",
          "type": "address"
        }
      ],
      "name": "getUserWithdrawalIds",
      "outputs": [
        {
          "internalType": "uint256[]",
          "name": "",
          "type": "uint256[]"
        }
      ],
      "stateMutability": "view",
      "type": "function"
    },
    {
      "inputs": [
        {
          "internalType": "bytes32",
          "name": "role",
          "type": "bytes32"
        },
        {
          "internalType": "address",
          "name": "account",
          "type": "address"
        }
      ],
      "name": "grantRole",
      "outputs": [],
      "stateMutability": "nonpayable",
      "type": "function"
    },
    {
      "inputs": [
        {
          "internalType": "bytes32",
          "name": "role",
          "type": "bytes32"
        },
        {
          "internalType": "address",
          "name": "account",
          "type": "address"
        }
      ],
      "name": "hasRole",
      "outputs": [
        {
          "internalType": "bool",
          "name": "",
          "type": "bool"
        }
      ],
      "stateMutability": "view",
      "type": "function"
    },
    {
      "inputs": [
        {
          "internalType": "address",
          "name": "_stablecoin",
          "type": "address"
        },
        {
          "internalType": "address",
          "name": "_shareToken",
          "type": "address"
        },
        {
          "internalType": "address",
          "name": "_strategy",
          "type": "address"
        },
        {
          "internalType": "address",
          "name": "_treasury",
          "type": "address"
        }
      ],
      "name": "initialize",
      "outputs": [],
      "stateMutability": "nonpayable",
      "type": "function"
    },
    {
      "inputs": [],
      "name": "lastRewardDistribution",
      "outputs": [
        {
          "internalType": "uint256",
          "name": "",
          "type": "uint256"
        }
      ],
      "stateMutability": "view",
      "type": "function"
    },
    {
      "inputs": [],
      "name": "owner",
      "outputs": [
        {
          "internalType": "address",
          "name": "",
          "type": "address"
        }
      ],
      "stateMutability": "view",
      "type": "function"
    },
    {
      "inputs": [],
      "name": "paused",
      "outputs": [
        {
          "internalType": "bool",
          "name": "",
          "type": "bool"
        }
      ],
      "stateMutability": "view",
      "type": "function"
    },
    {
      "inputs": [
        {
          "internalType": "uint256[]",
          "name": "depositIds",
          "type": "uint256[]"
        }
      ],
      "name": "processDeposits",
      "outputs": [],
      "stateMutability": "nonpayable",
      "type": "function"
    },
    {
      "inputs": [],
      "name": "proxiableUUID",
      "outputs": [
        {
          "internalType": "bytes32",
          "name": "",
          "type": "bytes32"
        }
      ],
      "stateMutability": "view",
      "type": "function"
    },
    {
      "inputs": [],
      "name": "renounceOwnership",
      "outputs": [],
      "stateMutability": "nonpayable",
      "type": "function"
    },
    {
      "inputs": [
        {
          "internalType": "bytes32",
          "name": "role",
          "type": "bytes32"
        },
        {
          "internalType": "address",
          "name": "callerConfirmation",
          "type": "address"
        }
      ],
      "name": "renounceRole",
      "outputs": [],
      "stateMutability": "nonpayable",
      "type": "function"
    },
    {
      "inputs": [
        {
          "internalType": "uint256",
          "name": "amount",
          "type": "uint256"
        }
      ],
      "name": "requestDeposit",
      "outputs": [
        {
          "internalType": "uint256",
          "name": "",
          "type": "uint256"
        }
      ],
      "stateMutability": "nonpayable",
      "type": "function"
    },
    {
      "inputs": [
        {
          "internalType": "uint256",
          "name": "shares",
          "type": "uint256"
        }
      ],
      "name": "requestWithdrawal",
      "outputs": [
        {
          "internalType": "uint256",
          "name": "",
          "type": "uint256"
        }
      ],
      "stateMutability": "nonpayable",
      "type": "function"
    },
    {
      "inputs": [
        {
          "internalType": "bytes32",
          "name": "role",
          "type": "bytes32"
        },
        {
          "internalType": "address",
          "name": "account",
          "type": "address"
        }
      ],
      "name": "revokeRole",
      "outputs": [],
      "stateMutability": "nonpayable",
      "type": "function"
    },
    {
      "inputs": [
        {
          "internalType": "bool",
          "name": "_paused",
          "type": "bool"
        }
      ],
      "name": "setPaused",
      "outputs": [],
      "stateMutability": "nonpayable",
      "type": "function"
    },
    {
      "inputs": [
        {
          "internalType": "address",
          "name": "newStrategy",
          "type": "address"
        }
      ],
      "name": "setStrategy",
      "outputs": [],
      "stateMutability": "nonpayable",
      "type": "function"
    },
    {
      "inputs": [
        {
          "internalType": "address",
          "name": "newTreasury",
          "type": "address"
        }
      ],
      "name": "setTreasury",
      "outputs": [],
      "stateMutability": "nonpayable",
      "type": "function"
    },
    {
      "inputs": [],
      "name": "shareToken",
      "outputs": [
        {
          "internalType": "contract VaultShareToken",
          "name": "",
          "type": "address"
        }
      ],
      "stateMutability": "view",
      "type": "function"
    },
    {
      "inputs": [],
      "name": "shareValue",
      "outputs": [
        {
          "internalType": "uint256",
          "name": "",
          "type": "uint256"
        }
      ],
      "stateMutability": "view",
      "type": "function"
    },
    {
      "inputs": [],
      "name": "stablecoin",
      "outputs": [
        {
          "internalType": "contract IERC20",
          "name": "",
          "type": "address"
        }
      ],
      "stateMutability": "view",
      "type": "function"
    },
    {
      "inputs": [],
      "name": "strategy",
      "outputs": [
        {
          "internalType": "address",
          "name": "",
          "type": "address"
        }
      ],
      "stateMutability": "view",
      "type": "function"
    },
    {
      "inputs": [
        {
          "internalType": "bytes4",
          "name": "interfaceId",
          "type": "bytes4"
        }
      ],
      "name": "supportsInterface",
      "outputs": [
        {
          "internalType": "bool",
          "name": "",
          "type": "bool"
        }
      ],
      "stateMutability": "view",
      "type": "function"
    },
    {
      "inputs": [],
      "name": "totalDeposited",
      "outputs": [
        {
          "internalType": "uint256",
          "name": "",
          "type": "uint256"
        }
      ],
      "stateMutability": "view",
      "type": "function"
    },
    {
      "inputs": [],
      "name": "totalPendingWithdrawalShares",
      "outputs": [
        {
          "internalType": "uint256",
          "name": "",
          "type": "uint256"
        }
      ],
      "stateMutability": "view",
      "type": "function"
    },
    {
      "inputs": [],
      "name": "totalSharesWithdrawn",
      "outputs": [
        {
          "internalType": "uint256",
          "name": "",
          "type": "uint256"
        }
      ],
      "stateMutability": "view",
      "type": "function"
    },
    {
      "inputs": [],
      "name": "totalUsdWithdrawn",
      "outputs": [
        {
          "internalType": "uint256",
          "name": "",
          "type": "uint256"
        }
      ],
      "stateMutability": "view",
      "type": "function"
    },
    {
      "inputs": [],
      "name": "totalVaultValue",
      "outputs": [
        {
          "internalType": "uint256",
          "name": "",
          "type": "uint256"
        }
      ],
      "stateMutability": "view",
      "type": "function"
    },
    {
      "inputs": [
        {
          "internalType": "address",
          "name": "newOwner",
          "type": "address"
        }
      ],
      "name": "transferOwnership",
      "outputs": [],
      "stateMutability": "nonpayable",
      "type": "function"
    },
    {
      "inputs": [],
      "name": "treasury",
      "outputs": [
        {
          "internalType": "address",
          "name": "",
          "type": "address"
        }
      ],
      "stateMutability": "view",
      "type": "function"
    },
    {
      "inputs": [
        {
          "internalType": "address",
          "name": "newImplementation",
          "type": "address"
        },
        {
          "internalType": "bytes",
          "name": "data",
          "type": "bytes"
        }
      ],
      "name": "upgradeToAndCall",
      "outputs": [],
      "stateMutability": "payable",
      "type": "function"
    },
    {
      "inputs": [
        {
          "internalType": "address",
          "name": "",
          "type": "address"
        },
        {
          "internalType": "uint256",
          "name": "",
          "type": "uint256"
        }
      ],
      "name": "userDepositIds",
      "outputs": [
        {
          "internalType": "uint256",
          "name": "",
          "type": "uint256"
        }
      ],
      "stateMutability": "view",
      "type": "function"
    },
    {
      "inputs": [
        {
          "internalType": "address",
          "name": "",
          "type": "address"
        },
        {
          "internalType": "uint256",
          "name": "",
          "type": "uint256"
        }
      ],
      "name": "userWithdrawalIds",
      "outputs": [
        {
          "internalType": "uint256",
          "name": "",
          "type": "uint256"
        }
      ],
      "stateMutability": "view",
      "type": "function"
    },
    {
      "inputs": [
        {
          "internalType": "uint256",
          "name": "amount",
          "type": "uint256"
        }
      ],
      "name": "withdrawFromStrategy",
      "outputs": [],
      "stateMutability": "nonpayable",
      "type": "function"
    },
    {
      "inputs": [],
      "name": "withdrawalIdCounter",
      "outputs": [
        {
          "internalType": "uint256",
          "name": "",
          "type": "uint256"
        }
      ],
      "stateMutability": "view",
      "type": "function"
    },
    {
      "inputs": [
        {
          "internalType": "uint256",
          "name": "",
          "type": "uint256"
        }
      ],
      "name": "withdrawals",
      "outputs": [
        {
          "internalType": "address",
          "name": "user",
          "type": "address"
        },
        {
          "internalType": "uint256",
          "name": "shares",
          "type": "uint256"
        },
        {
          "internalType": "uint256",
          "name": "requestedAt",
          "type": "uint256"
        },
        {
          "internalType": "uint256",
          "name": "canBeApprovedAt",
          "type": "uint256"
        }
      ],
      "stateMutability": "view",
      "type": "function"
    }
  ],
  "bytecode": "0x60a0604052306080523480156200001557600080fd5b506200002062000026565b620000da565b7ff0c57e16840df040f15088dc2f81fe391c3923bec73e23a9662efc9c229c6a00805468010000000000000000900460ff1615620000775760405163f92ee8a960e01b815260040160405180910390fd5b80546001600160401b0390811614620000d75780546001600160401b0319166001600160401b0390811782556040519081527fc7f505b2f371ae2175ee4913f4499e1f2633a7b5936321eed1cdaeb6115181d29060200160405180910390a15b50565b6080516135af6200010460003960008181612a8e01528181612ab70152612c1a01526135af6000f3fe6080604052600436106103765760003560e01c806391d14854116101d1578063d4e4487d11610102578063e1e158a5116100a0578063f2fde38b1161006f578063f2fde38b14610a6d578063f72c0d8b14610a8d578063f8c8765e14610ac1578063ff50abdc14610ae157600080fd5b8063e1e158a5146109f8578063e9cbd82214610a10578063edbc194d14610a30578063f0f4426014610a4d57600080fd5b8063d7779e98116100dc578063d7779e98146109c2578063dcbaa82d146109e2578063de363e65146107d3578063e086d0981461058c57600080fd5b8063d4e4487d14610962578063d547741f14610982578063d6236628146109a257600080fd5b8063afbc74b91161016f578063c1faad3811610149578063c1faad38146108df578063c4f672641461090c578063c92b6ed21461070c578063d33b0aa71461094257600080fd5b8063afbc74b914610848578063b02c43d01461085e578063b0cd9cff146108c957600080fd5b8063a217fddf116101ab578063a217fddf146107be578063a5d33ed5146107d3578063a8c62e76146107ea578063ad3cb1cc1461080a57600080fd5b806391d148541461075e57806397298e901461077e5780639ee679e81461079e57600080fd5b80634ffee068116102ab57806365eddbb11161024957806375b238fc1161022357806375b238fc146106d457806383d5b7cc146106f657806388fa64551461070c5780638da5cb5b1461072157600080fd5b806365eddbb11461067f5780636c9fa59e1461069f578063715018a6146106bf57600080fd5b80635c24b8ad116102855780635c24b8ad1461058c5780635c975abb146105ac5780635cc07076146105d157806361d027b31461064757600080fd5b80634ffee0681461054b57806352d1902d14610561578063533573fe1461057657600080fd5b80632f2ff15d11610318578063427e4042116102f2578063427e4042146104ed578063447b15f41461050357806348b19335146105185780634f1ef2861461053857600080fd5b80632f2ff15d1461048d57806333a100ca146104ad57806336568abe146104cd57600080fd5b806316c38b3c1161035457806316c38b3c146103f5578063248a9ca3146104175780632dd2f137146104375780632e1fdea31461045757600080fd5b806301ffc9a71461037b5780630d1e6667146103b05780630ebb172a146103de575b600080fd5b34801561038757600080fd5b5061039b610396366004613079565b610af7565b60405190151581526020015b60405180910390f35b3480156103bc57600080fd5b506103d06103cb3660046130a3565b610b2e565b6040519081526020016103a7565b3480156103ea57600080fd5b506103d062093a8081565b34801561040157600080fd5b506104156104103660046130bc565b610dbf565b005b34801561042357600080fd5b506103d06104323660046130a3565b610de0565b34801561044357600080fd5b506104156104523660046130de565b610e02565b34801561046357600080fd5b506103d061047236600461316a565b6001600160a01b03166000908152600f602052604090205490565b34801561049957600080fd5b506104156104a8366004613185565b611160565b3480156104b957600080fd5b506104156104c836600461316a565b611182565b3480156104d957600080fd5b506104156104e8366004613185565b611226565b3480156104f957600080fd5b506103d0600b5481565b34801561050f57600080fd5b506103d0611259565b34801561052457600080fd5b506104156105333660046130a3565b611322565b6104156105463660046131c7565b6113e6565b34801561055757600080fd5b506103d060095481565b34801561056d57600080fd5b506103d0611401565b34801561058257600080fd5b506103d060055481565b34801561059857600080fd5b506103d06105a73660046130a3565b61141e565b3480156105b857600080fd5b5060008051602061351a8339815191525460ff1661039b565b3480156105dd57600080fd5b5061061d6105ec3660046130a3565b600d6020526000908152604090208054600182015460028301546003909301546001600160a01b0390921692909184565b604080516001600160a01b03909516855260208501939093529183015260608201526080016103a7565b34801561065357600080fd5b50600254610667906001600160a01b031681565b6040516001600160a01b0390911681526020016103a7565b34801561068b57600080fd5b506103d061069a366004613289565b61143f565b3480156106ab57600080fd5b50600154610667906001600160a01b031681565b3480156106cb57600080fd5b50610415611470565b3480156106e057600080fd5b506103d060008051602061355a83398151915281565b34801561070257600080fd5b506103d060065481565b34801561071857600080fd5b506103d0600381565b34801561072d57600080fd5b507f9016d09d72d40fdae2fd8ceac6b6234c7706214fd39c1cd1e609a0528c199300546001600160a01b0316610667565b34801561076a57600080fd5b5061039b610779366004613185565b611484565b34801561078a57600080fd5b506104156107993660046130de565b6114bc565b3480156107aa57600080fd5b506103d06107b93660046130a3565b611a72565b3480156107ca57600080fd5b506103d0600081565b3480156107df57600080fd5b506103d0620f424081565b3480156107f657600080fd5b50600354610667906001600160a01b031681565b34801561081657600080fd5b5061083b604051806040016040528060058152602001640352e302e360dc1b81525081565b6040516103a791906132d7565b34801561085457600080fd5b506103d060045481565b34801561086a57600080fd5b506108a46108793660046130a3565b600c602052600090815260409020805460018201546002909201546001600160a01b03909116919083565b604080516001600160a01b0390941684526020840192909252908201526060016103a7565b3480156108d557600080fd5b506103d060075481565b3480156108eb57600080fd5b506108ff6108fa36600461316a565b611ec9565b6040516103a7919061330a565b34801561091857600080fd5b506103d061092736600461316a565b6001600160a01b03166000908152600e602052604090205490565b34801561094e57600080fd5b5061041561095d3660046130a3565b611f35565b34801561096e57600080fd5b506108ff61097d36600461316a565b61208e565b34801561098e57600080fd5b5061041561099d366004613185565b6120f8565b3480156109ae57600080fd5b506103d06109bd366004613289565b612114565b3480156109ce57600080fd5b506104156109dd3660046130a3565b612130565b3480156109ee57600080fd5b506103d0600a5481565b348015610a0457600080fd5b506103d06305f5e10081565b348015610a1c57600080fd5b50600054610667906001600160a01b031681565b348015610a3c57600080fd5b506103d068056bc75e2d6310000081565b348015610a5957600080fd5b50610415610a6836600461316a565b612235565b348015610a7957600080fd5b50610415610a8836600461316a565b6122d9565b348015610a9957600080fd5b506103d07f189ab7a9244df0848122154315af71fe140f3db0fe014031783b0946b8c9d2e381565b348015610acd57600080fd5b50610415610adc36600461334e565b612314565b348015610aed57600080fd5b506103d060085481565b60006001600160e01b03198216637965db0b60e01b1480610b2857506301ffc9a760e01b6001600160e01b03198316145b92915050565b6000610b3861267b565b610b406126ac565b60008211610b695760405162461bcd60e51b8152600401610b60906133a2565b60405180910390fd5b6305f5e100821015610bb55760405162461bcd60e51b81526020600482015260156024820152744465706f7369742062656c6f77206d696e696d756d60581b6044820152606401610b60565b336000908152600e6020526040902054600311610c145760405162461bcd60e51b815260206004820152601c60248201527f4d61782070656e64696e67206465706f736974732072656163686564000000006044820152606401610b60565b600054610c2c906001600160a01b03163330856126e4565b600254600054610c4c916001600160a01b039182169116620f424061274b565b6002546040516001600160a01b03909116907fdb23cba216bfaed89070d2734596f2ee2a163099cfc4f5ef32036debc979222690610caf90620f424081526040602082018190526007908201526619195c1bdcda5d60ca1b606082015260800190565b60405180910390a26000610cc6620f4240846133e4565b600580549192506000919082610cdb836133f7565b909155506040805160608082018352338083526020808401888152428587018181526000898152600c8552888120975188546001600160a01b0319166001600160a01b0390911617885592516001808901919091559051600290970196909655838252600e8352868220805496870181558252908290209094018690558451888152620f424091810191909152938401929092529293509183917f6a9e5347542ffc3c79f09aa1727184e58a17b05edb3d98635ee72005b6e4833f910160405180910390a3915050610dba600160008051602061353a83398151915255565b919050565b610dc7612790565b8015610dd857610dd56127eb565b50565b610dd561284e565b60009081526000805160206134fa833981519152602052604090206001015490565b60008051602061355a833981519152610e1a81612894565b610e226126ac565b81610e685760405162461bcd60e51b81526020600482015260166024820152754e6f206465706f7369747320746f2070726f6365737360501b6044820152606401610b60565b6000610e72611259565b905060005b83811015611142576000858583818110610e9357610e93613410565b9050602002013590506005548110610ee25760405162461bcd60e51b8152602060048201526012602482015271125b9d985b1a590819195c1bdcda5d08125160721b6044820152606401610b60565b6000818152600c6020908152604091829020825160608101845281546001600160a01b031680825260018301549382019390935260029091015492810192909252610f2e57505061113a565b600154604080516318160ddd60e01b815290516000926001600160a01b0316916318160ddd9160048083019260209291908290030181865afa158015610f78573d6000803e3d6000fd5b505050506040513d601f19601f82011682018060405250810190610f9c9190613426565b600003610fbe576020820151610fb79064e8d4a5100061343f565b9050610ff3565b84826020015164e8d4a51000610fd4919061343f565b610fe690670de0b6b3a764000061343f565b610ff09190613456565b90505b60015482516040516340c10f1960e01b81526001600160a01b039182166004820152602481018490529116906340c10f1990604401600060405180830381600087803b15801561104257600080fd5b505af1158015611056573d6000803e3d6000fd5b505050508160200151600460008282546110709190613478565b90915550506020820151600054611094916001600160a01b0390911690339061274b565b8160200151600860008282546110aa9190613478565b9091555050815160208084015160408051918252918101849052428183015290516001600160a01b039092169185917fc2ef66f482a31770499b1f76197e6436fe38f18c554fbc45b71b76fea3fca4bd919081900360600190a38151611110908461289e565b50506000908152600c6020526040812080546001600160a01b031916815560018101829055600201555b600101610e77565b505061115b600160008051602061353a83398151915255565b505050565b61116982610de0565b61117281612894565b61117c8383612962565b50505050565b61118a612790565b806001600160a01b0381166111d35760405162461bcd60e51b815260206004820152600f60248201526e496e76616c6964206164647265737360881b6044820152606401610b60565b600380546001600160a01b038481166001600160a01b0319831681179093556040519116919082907fe4cec16b1a7e6b7979e923da619a8b1e5fd0f0fb6e5c1cf647f350430ee61ca990600090a3505050565b6001600160a01b038116331461124f5760405163334bd91960e11b815260040160405180910390fd5b61115b8282612a07565b600080600160009054906101000a90046001600160a01b03166001600160a01b03166318160ddd6040518163ffffffff1660e01b8152600401602060405180830381865afa1580156112af573d6000803e3d6000fd5b505050506040513d601f19601f820116820180604052508101906112d39190613426565b9050806000036112ec57670de0b6b3a764000091505090565b8060045464e8d4a51000611300919061343f565b61131290670de0b6b3a764000061343f565b61131c9190613456565b91505090565b60008051602061355a83398151915261133a81612894565b6113426126ac565b6003546001600160a01b031661138d5760405162461bcd60e51b815260206004820152601060248201526f14dd1c985d1959de481b9bdd081cd95d60821b6044820152606401610b60565b600082116113ad5760405162461bcd60e51b8152600401610b60906133a2565b6003546000546113cb916001600160a01b03918216911630856126e4565b6113e2600160008051602061353a83398151915255565b5050565b6113ee612a83565b6113f782612b28565b6113e28282612b52565b600061140b612c0f565b506000805160206134da83398151915290565b6000620f4240821161143257506000919050565b610b28620f4240836133e4565b600f602052816000526040600020818154811061145b57600080fd5b90600052602060002001600091509150505481565b611478612790565b6114826000612c58565b565b60009182526000805160206134fa833981519152602090815260408084206001600160a01b0393909316845291905290205460ff1690565b60008051602061355a8339815191526114d481612894565b6114dc6126ac565b816115295760405162461bcd60e51b815260206004820152601960248201527f4e6f207769746864726177616c7320746f2070726f63657373000000000000006044820152606401610b60565b600080611534611259565b905060005b8481101561169357600086868381811061155557611555613410565b90506020020135905060065481106115a75760405162461bcd60e51b8152602060048201526015602482015274125b9d985b1a59081dda5d1a191c985dd85b081251605a1b6044820152606401610b60565b6000818152600d6020908152604091829020825160808101845281546001600160a01b03168082526001830154938201939093526002820154938101939093526003015460608301526115fb57505061168b565b806060015142101561164f5760405162461bcd60e51b815260206004820152601860248201527f5769746864726177616c2064656c6179206e6f74206d657400000000000000006044820152606401610b60565b60006c0c9f2c9cd04674edea4000000085836020015161166f919061343f565b6116799190613456565b90506116858187613478565b95505050505b600101611539565b5081156116b2576000546116b2906001600160a01b03163330856126e4565b60005b84811015611a585760008686838181106116d1576116d1613410565b602090810292909201356000818152600d8452604090819020815160808101835281546001600160a01b0316808252600183015496820196909652600282015492810192909252600301546060820152909350919050611732575050611a50565b60006c0c9f2c9cd04674edea40000000858360200151611752919061343f565b61175c9190613456565b9050620f424081116117b05760405162461bcd60e51b815260206004820152601b60248201527f5769746864726177616c20616d6f756e7420746f6f20736d616c6c00000000006044820152606401610b60565b60006117bf620f4240836133e4565b6002546000549192506117e2916001600160a01b039081169116620f424061274b565b6002546040516001600160a01b03909116907fdb23cba216bfaed89070d2734596f2ee2a163099cfc4f5ef32036debc97922269061184890620f42408152604060208201819052600a90820152691dda5d1a191c985dd85b60b21b606082015260800190565b60405180910390a2825160005461186b916001600160a01b03909116908361274b565b60015483516020850151604051632770a7eb60e21b81526001600160a01b0392831660048201526024810191909152911690639dc29fac90604401600060405180830381600087803b1580156118c057600080fd5b505af11580156118d4573d6000803e3d6000fd5b5050600154855160208701516040516303b233ed60e51b81526001600160a01b0392831660048201526024810191909152911692506376467da09150604401600060405180830381600087803b15801561192d57600080fd5b505af1158015611941573d6000803e3d6000fd5b50505050816004600082825461195791906133e4565b90915550506020830151600b80546000906119739084906133e4565b909155505060208301516009805460009061198f908490613478565b9250508190555081600a60008282546119a89190613478565b9091555050825160208085015160408051918252918101899052908101849052620f424060608201524260808201526001600160a01b039091169085907fa1965f472fbc245e52ffff7e8714c6b331a346e1418d9836bd924ff32d48fac59060a00160405180910390a38251611a1e9085612cc9565b5050506000908152600d6020526040812080546001600160a01b03191681556001810182905560028101829055600301555b6001016116b5565b50505061115b600160008051602061353a83398151915255565b6000611a7c61267b565b611a846126ac565b60008211611ac95760405162461bcd60e51b81526020600482015260126024820152710536861726573206d757374206265203e20360741b6044820152606401610b60565b68056bc75e2d63100000821015611b225760405162461bcd60e51b815260206004820152601860248201527f5769746864726177616c2062656c6f77206d696e696d756d00000000000000006044820152606401610b60565b336000908152600f6020526040902054600311611b815760405162461bcd60e51b815260206004820152601f60248201527f4d61782070656e64696e67207769746864726177616c732072656163686564006044820152606401610b60565b6001546040516370a0823160e01b815233600482015283916001600160a01b0316906370a0823190602401602060405180830381865afa158015611bc9573d6000803e3d6000fd5b505050506040513d601f19601f82011682018060405250810190611bed9190613426565b1015611c315760405162461bcd60e51b8152602060048201526013602482015272496e73756666696369656e742073686172657360681b6044820152606401610b60565b60015460405163ed666d2f60e01b815233600482015283916001600160a01b03169063ed666d2f90602401602060405180830381865afa158015611c79573d6000803e3d6000fd5b505050506040513d601f19601f82011682018060405250810190611c9d9190613426565b1015611ceb5760405162461bcd60e51b815260206004820152601d60248201527f496e73756666696369656e7420617661696c61626c65207368617265730000006044820152606401610b60565b60015460405162bf7e8960e31b8152336004820152602481018490526001600160a01b03909116906305fbf44890604401600060405180830381600087803b158015611d3657600080fd5b505af1158015611d4a573d6000803e3d6000fd5b5050505081600b6000828254611d609190613478565b9091555060009050611d70611259565b905060006c0c9f2c9cd04674edea40000000611d8c838661343f565b611d969190613456565b600680549192506000919082611dab836133f7565b9190505590506040518060800160405280336001600160a01b0316815260200186815260200142815260200162093a8042611de69190613478565b90526000828152600d60209081526040808320845181546001600160a01b0319166001600160a01b039091161781558483015160018083019190915585830151600283015560609095015160039091015533808452600f83529083208054948501815583529120909101829055817fda8cf62f5868109ec17d28336a4f3baa4dcec549a4ef6f99dd1d5eb638af08c8878686611e8562093a8042613478565b60408051948552602085019390935291830152606082015242608082015260a00160405180910390a392505050610dba600160008051602061353a83398151915255565b6001600160a01b0381166000908152600f6020908152604091829020805483518184028101840190945280845260609392830182828015611f2957602002820191906000526020600020905b815481526020019060010190808311611f15575b50505050509050919050565b60008051602061355a833981519152611f4d81612894565b611f556126ac565b6003546001600160a01b0316611fa05760405162461bcd60e51b815260206004820152601060248201526f14dd1c985d1959de481b9bdd081cd95d60821b6044820152606401610b60565b60008211611fc05760405162461bcd60e51b8152600401610b60906133a2565b6000546040516370a0823160e01b815230600482015283916001600160a01b0316906370a0823190602401602060405180830381865afa158015612008573d6000803e3d6000fd5b505050506040513d601f19601f8201168201806040525081019061202c9190613426565b10156120715760405162461bcd60e51b8152602060048201526014602482015273496e73756666696369656e742062616c616e636560601b6044820152606401610b60565b6003546000546113cb916001600160a01b0391821691168461274b565b6001600160a01b0381166000908152600e6020908152604091829020805483518184028101840190945280845260609392830182828015611f295760200282019190600052602060002090815481526020019060010190808311611f155750505050509050919050565b61210182610de0565b61210a81612894565b61117c8383612a07565b600e602052816000526040600020818154811061145b57600080fd5b60008051602061355a83398151915261214881612894565b60008212156121ce57600061215c8361348b565b90506004548111156121b05760405162461bcd60e51b815260206004820152601860248201527f4c6f73732065786365656473207661756c742076616c756500000000000000006044820152606401610b60565b80600460008282546121c291906133e4565b909155506121e6915050565b81600460008282546121e09190613478565b90915550505b4260078190556004546040805185815260208101929092528101919091527f14bd41440477d723cf5d214434669e5e4af5d3106bdc7ba6414c382d732840589060600160405180910390a15050565b61223d612790565b806001600160a01b0381166122865760405162461bcd60e51b815260206004820152600f60248201526e496e76616c6964206164647265737360881b6044820152606401610b60565b600280546001600160a01b038481166001600160a01b0319831681179093556040519116919082907f4ab5be82436d353e61ca18726e984e561f5c1cc7c6d38b29d2553c790434705a90600090a3505050565b6122e1612790565b6001600160a01b03811661230b57604051631e4fbdf760e01b815260006004820152602401610b60565b610dd581612c58565b600061231e612d27565b805490915060ff600160401b820416159067ffffffffffffffff166000811580156123465750825b905060008267ffffffffffffffff1660011480156123635750303b155b905081158015612371575080155b1561238f5760405163f92ee8a960e01b815260040160405180910390fd5b845467ffffffffffffffff1916600117855583156123b957845460ff60401b1916600160401b1785555b6001600160a01b03891661240f5760405162461bcd60e51b815260206004820152601a60248201527f496e76616c696420737461626c65636f696e20616464726573730000000000006044820152606401610b60565b6001600160a01b0388166124655760405162461bcd60e51b815260206004820152601b60248201527f496e76616c696420736861726520746f6b656e206164647265737300000000006044820152606401610b60565b6001600160a01b0387166124bb5760405162461bcd60e51b815260206004820152601860248201527f496e76616c6964207374726174656779206164647265737300000000000000006044820152606401610b60565b6001600160a01b0386166125115760405162461bcd60e51b815260206004820152601860248201527f496e76616c6964207472656173757279206164647265737300000000000000006044820152606401610b60565b61251a33612d50565b612522612d61565b61252a612d61565b612532612d69565b61253a612d61565b600080546001600160a01b03808c166001600160a01b0319928316178355600180548c8316908416179055600380548b831690841617905560028054918a169190921617905561258a9033612962565b506125a360008051602061355a83398151915233612962565b506125ce7f189ab7a9244df0848122154315af71fe140f3db0fe014031783b0946b8c9d2e333612962565b50426007819055604080516001600160a01b038b811682528981166020830152818301939093529051898316928c169130917f59fbf569e13224f023993109b7bc20408873be1498dfe4494b6061367e924c969181900360600190a4831561267057845460ff60401b19168555604051600181527fc7f505b2f371ae2175ee4913f4499e1f2633a7b5936321eed1cdaeb6115181d29060200160405180910390a15b505050505050505050565b60008051602061351a8339815191525460ff16156114825760405163d93c066560e01b815260040160405180910390fd5b60008051602061353a8339815191528054600119016126de57604051633ee5aeb560e01b815260040160405180910390fd5b60029055565b6040516001600160a01b03848116602483015283811660448301526064820183905261117c9186918216906323b872dd906084015b604051602081830303815290604052915060e01b6020820180516001600160e01b038381831617835250505050612d79565b6040516001600160a01b0383811660248301526044820183905261115b91859182169063a9059cbb90606401612719565b600160008051602061353a83398151915255565b336127c27f9016d09d72d40fdae2fd8ceac6b6234c7706214fd39c1cd1e609a0528c199300546001600160a01b031690565b6001600160a01b0316146114825760405163118cdaa760e01b8152336004820152602401610b60565b6127f361267b565b60008051602061351a833981519152805460ff191660011781557f62e78cea01bee320cd4e420270b5ea74000d11b0c9f74754ebdbfc544b05a258335b6040516001600160a01b03909116815260200160405180910390a150565b612856612dea565b60008051602061351a833981519152805460ff191681557f5db9ee0a495bf2e6ff9c91a7834c1ba4fdd244a5e8aa4e537bd38aeae4b073aa33612830565b610dd58133612e1a565b6001600160a01b0382166000908152600e60205260408120905b815481101561117c57828282815481106128d4576128d4613410565b90600052602060002001540361295a57815482906128f4906001906133e4565b8154811061290457612904613410565b906000526020600020015482828154811061292157612921613410565b90600052602060002001819055508180548061293f5761293f6134a7565b6001900381819060005260206000200160009055905561117c565b6001016128b8565b60006000805160206134fa83398151915261297d8484611484565b6129fd576000848152602082815260408083206001600160a01b03871684529091529020805460ff191660011790556129b33390565b6001600160a01b0316836001600160a01b0316857f2f8788117e7eff1d82e926ec794901d17c78024a50270940304540a733656f0d60405160405180910390a46001915050610b28565b6000915050610b28565b60006000805160206134fa833981519152612a228484611484565b156129fd576000848152602082815260408083206001600160a01b0387168085529252808320805460ff1916905551339287917ff6391f5c32d9c69d2a47ea670b442974b53935d1edc7fd64eb21e047a839171b9190a46001915050610b28565b306001600160a01b037f0000000000000000000000000000000000000000000000000000000000000000161480612b0a57507f00000000000000000000000000000000000000000000000000000000000000006001600160a01b0316612afe6000805160206134da833981519152546001600160a01b031690565b6001600160a01b031614155b156114825760405163703e46dd60e11b815260040160405180910390fd5b7f189ab7a9244df0848122154315af71fe140f3db0fe014031783b0946b8c9d2e36113e281612894565b816001600160a01b03166352d1902d6040518163ffffffff1660e01b8152600401602060405180830381865afa925050508015612bac575060408051601f3d908101601f19168201909252612ba991810190613426565b60015b612bd457604051634c9c8ce360e01b81526001600160a01b0383166004820152602401610b60565b6000805160206134da8339815191528114612c0557604051632a87526960e21b815260048101829052602401610b60565b61115b8383612e53565b306001600160a01b037f000000000000000000000000000000000000000000000000000000000000000016146114825760405163703e46dd60e11b815260040160405180910390fd5b7f9016d09d72d40fdae2fd8ceac6b6234c7706214fd39c1cd1e609a0528c19930080546001600160a01b031981166001600160a01b03848116918217845560405192169182907f8be0079c531659141344cd1fd0a4f28419497f9722a3daafe3b4186f6b6457e090600090a3505050565b6001600160a01b0382166000908152600f60205260408120905b815481101561117c5782828281548110612cff57612cff613410565b906000526020600020015403612d1f57815482906128f4906001906133e4565b600101612ce3565b6000807ff0c57e16840df040f15088dc2f81fe391c3923bec73e23a9662efc9c229c6a00610b28565b612d58612ea9565b610dd581612ece565b611482612ea9565b612d71612ea9565b611482612ed6565b600080602060008451602086016000885af180612d9c576040513d6000823e3d81fd5b50506000513d91508115612db4578060011415612dc1565b6001600160a01b0384163b155b1561117c57604051635274afe760e01b81526001600160a01b0385166004820152602401610b60565b60008051602061351a8339815191525460ff1661148257604051638dfc202b60e01b815260040160405180910390fd5b612e248282611484565b6113e25760405163e2517d3f60e01b81526001600160a01b038216600482015260248101839052604401610b60565b612e5c82612ede565b6040516001600160a01b038316907fbc7cd75a20ee27fd9adebab32041f755214dbc6bffa90cc0225b39da2e5c2d3b90600090a2805115612ea15761115b8282612f43565b6113e2612fb9565b612eb1612fd8565b61148257604051631afcd79f60e31b815260040160405180910390fd5b6122e1612ea9565b61277c612ea9565b806001600160a01b03163b600003612f1457604051634c9c8ce360e01b81526001600160a01b0382166004820152602401610b60565b6000805160206134da83398151915280546001600160a01b0319166001600160a01b0392909216919091179055565b6060600080846001600160a01b031684604051612f6091906134bd565b600060405180830381855af49150503d8060008114612f9b576040519150601f19603f3d011682016040523d82523d6000602084013e612fa0565b606091505b5091509150612fb0858383612ff2565b95945050505050565b34156114825760405163b398979f60e01b815260040160405180910390fd5b6000612fe2612d27565b54600160401b900460ff16919050565b6060826130075761300282613051565b61304a565b815115801561301e57506001600160a01b0384163b155b1561304757604051639996b31560e01b81526001600160a01b0385166004820152602401610b60565b50805b9392505050565b80511561306057805160208201fd5b60405163d6bda27560e01b815260040160405180910390fd5b60006020828403121561308b57600080fd5b81356001600160e01b03198116811461304a57600080fd5b6000602082840312156130b557600080fd5b5035919050565b6000602082840312156130ce57600080fd5b8135801515811461304a57600080fd5b600080602083850312156130f157600080fd5b823567ffffffffffffffff8082111561310957600080fd5b818501915085601f83011261311d57600080fd5b81358181111561312c57600080fd5b8660208260051b850101111561314157600080fd5b60209290920196919550909350505050565b80356001600160a01b0381168114610dba57600080fd5b60006020828403121561317c57600080fd5b61304a82613153565b6000806040838503121561319857600080fd5b823591506131a860208401613153565b90509250929050565b634e487b7160e01b600052604160045260246000fd5b600080604083850312156131da57600080fd5b6131e383613153565b9150602083013567ffffffffffffffff8082111561320057600080fd5b818501915085601f83011261321457600080fd5b813581811115613226576132266131b1565b604051601f8201601f19908116603f0116810190838211818310171561324e5761324e6131b1565b8160405282815288602084870101111561326757600080fd5b8260208601602083013760006020848301015280955050505050509250929050565b6000806040838503121561329c57600080fd5b6132a583613153565b946020939093013593505050565b60005b838110156132ce5781810151838201526020016132b6565b50506000910152565b60208152600082518060208401526132f68160408501602087016132b3565b601f01601f19169190910160400192915050565b6020808252825182820181905260009190848201906040850190845b8181101561334257835183529284019291840191600101613326565b50909695505050505050565b6000806000806080858703121561336457600080fd5b61336d85613153565b935061337b60208601613153565b925061338960408601613153565b915061339760608601613153565b905092959194509250565b6020808252601290820152710416d6f756e74206d757374206265203e20360741b604082015260600190565b634e487b7160e01b600052601160045260246000fd5b81810381811115610b2857610b286133ce565b600060018201613409576134096133ce565b5060010190565b634e487b7160e01b600052603260045260246000fd5b60006020828403121561343857600080fd5b5051919050565b8082028115828204841417610b2857610b286133ce565b60008261347357634e487b7160e01b600052601260045260246000fd5b500490565b80820180821115610b2857610b286133ce565b6000600160ff1b82016134a0576134a06133ce565b5060000390565b634e487b7160e01b600052603160045260246000fd5b600082516134cf8184602087016132b3565b919091019291505056fe360894a13ba1a3210667c828492db98dca3e2076cc3735a920a3ca505d382bbc02dd7bc7dec4dceedda775e58dd541e08a116c6c53815c0bd028192f7b626800cd5ed15c6e187e77e9aee88184c21f4f2182ab5827cb3b7e07fbedcd63f033009b779b17422d0df92223018b32b4d1fa46e071723d6817e2486d003becc55f00a49807205ce4d355092ef5a8a18f56e8913cf4a201fbe287825b095693c21775a264697066735822122057aa143df58e3883f29ef1c0041bb5b50e19af96a53cba28c4af8bdaf68adc7c64736f6c63430008180033",
  "linkReferences": {},
  "deployedLinkReferences": {}
}