{
  "_format": "hh-sol-artifact-1",
  "contractName": "DepositVault",
  "sourceName": "contracts/vault/DepositVault.sol",
  "abi": [
    {
      "inputs": [],
      "stateMutability": "nonpayable",
      "type": "constructor"
    },
    {
      "inputs": [],
      "name": "AccessControlBadConfirmation",
      "type": "error"
    },
    {
      "inputs": [
        {
          "internalType": "address",
          "name": "account",
          "type": "address"
        },
        {
          "internalType": "bytes32",
          "name": "neededRole",
          "type": "bytes32"
        }
      ],
      "name": "AccessControlUnauthorizedAccount",
      "type": "error"
    },
    {
      "inputs": [
        {
          "internalType": "address",
          "name": "target",
          "type": "address"
        }
      ],
      "name": "AddressEmptyCode",
      "type": "error"
    },
    {
      "inputs": [
        {
          "internalType": "address",
          "name": "implementation",
          "type": "address"
        }
      ],
      "name": "ERC1967InvalidImplementation",
      "type": "error"
    },
    {
      "inputs": [],
      "name": "ERC1967NonPayable",
      "type": "error"
    },
    {
      "inputs": [],
      "name": "EnforcedPause",
      "type": "error"
    },
    {
      "inputs": [],
      "name": "ExpectedPause",
      "type": "error"
    },
    {
      "inputs": [],
      "name": "FailedCall",
      "type": "error"
    },
    {
      "inputs": [],
      "name": "InvalidInitialization",
      "type": "error"
    },
    {
      "inputs": [],
      "name": "NotInitializing",
      "type": "error"
    },
    {
      "inputs": [
        {
          "internalType": "address",
          "name": "owner",
          "type": "address"
        }
      ],
      "name": "OwnableInvalidOwner",
      "type": "error"
    },
    {
      "inputs": [
        {
          "internalType": "address",
          "name": "account",
          "type": "address"
        }
      ],
      "name": "OwnableUnauthorizedAccount",
      "type": "error"
    },
    {
      "inputs": [],
      "name": "ReentrancyGuardReentrantCall",
      "type": "error"
    },
    {
      "inputs": [
        {
          "internalType": "address",
          "name": "token",
          "type": "address"
        }
      ],
      "name": "SafeERC20FailedOperation",
      "type": "error"
    },
    {
      "inputs": [],
      "name": "UUPSUnauthorizedCallContext",
      "type": "error"
    },
    {
      "inputs": [
        {
          "internalType": "bytes32",
          "name": "slot",
          "type": "bytes32"
        }
      ],
      "name": "UUPSUnsupportedProxiableUUID",
      "type": "error"
    },
    {
      "anonymous": false,
      "inputs": [
        {
          "indexed": false,
          "internalType": "uint256",
          "name": "oldFee",
          "type": "uint256"
        },
        {
          "indexed": false,
          "internalType": "uint256",
          "name": "newFee",
          "type": "uint256"
        }
      ],
      "name": "DepositFeeUpdated",
      "type": "event"
    },
    {
      "anonymous": false,
      "inputs": [
        {
          "indexed": true,
          "internalType": "uint256",
          "name": "depositId",
          "type": "uint256"
        },
        {
          "indexed": true,
          "internalType": "address",
          "name": "user",
          "type": "address"
        },
        {
          "indexed": false,
          "internalType": "uint256",
          "name": "usdAmount",
          "type": "uint256"
        },
        {
          "indexed": false,
          "internalType": "uint256",
          "name": "sharesMinted",
          "type": "uint256"
        },
        {
          "indexed": false,
          "internalType": "uint256",
          "name": "timestamp",
          "type": "uint256"
        }
      ],
      "name": "DepositProcessed",
      "type": "event"
    },
    {
      "anonymous": false,
      "inputs": [
        {
          "indexed": true,
          "internalType": "uint256",
          "name": "depositId",
          "type": "uint256"
        },
        {
          "indexed": true,
          "internalType": "address",
          "name": "user",
          "type": "address"
        },
        {
          "indexed": false,
          "internalType": "uint256",
          "name": "amount",
          "type": "uint256"
        },
        {
          "indexed": false,
          "internalType": "uint256",
          "name": "fee",
          "type": "uint256"
        },
        {
          "indexed": false,
          "internalType": "uint256",
          "name": "timestamp",
          "type": "uint256"
        }
      ],
      "name": "DepositRequested",
      "type": "event"
    },
    {
      "anonymous": false,
      "inputs": [
        {
          "indexed": true,
          "internalType": "address",
          "name": "treasury",
          "type": "address"
        },
        {
          "indexed": false,
          "internalType": "uint256",
          "name": "amount",
          "type": "uint256"
        },
        {
          "indexed": false,
          "internalType": "string",
          "name": "feeType",
          "type": "string"
        }
      ],
      "name": "FeesCollected",
      "type": "event"
    },
    {
      "anonymous": false,
      "inputs": [
        {
          "indexed": false,
          "internalType": "uint64",
          "name": "version",
          "type": "uint64"
        }
      ],
      "name": "Initialized",
      "type": "event"
    },
    {
      "anonymous": false,
      "inputs": [
        {
          "indexed": false,
          "internalType": "uint256",
          "name": "oldMin",
          "type": "uint256"
        },
        {
          "indexed": false,
          "internalType": "uint256",
          "name": "newMin",
          "type": "uint256"
        }
      ],
      "name": "MinDepositUpdated",
      "type": "event"
    },
    {
      "anonymous": false,
      "inputs": [
        {
          "indexed": false,
          "internalType": "uint256",
          "name": "oldMin",
          "type": "uint256"
        },
        {
          "indexed": false,
          "internalType": "uint256",
          "name": "newMin",
          "type": "uint256"
        }
      ],
      "name": "MinWithdrawalSharesUpdated",
      "type": "event"
    },
    {
      "anonymous": false,
      "inputs": [
        {
          "indexed": true,
          "internalType": "address",
          "name": "previousOwner",
          "type": "address"
        },
        {
          "indexed": true,
          "internalType": "address",
          "name": "newOwner",
          "type": "address"
        }
      ],
      "name": "OwnershipTransferred",
      "type": "event"
    },
    {
      "anonymous": false,
      "inputs": [
        {
          "indexed": false,
          "internalType": "address",
          "name": "account",
          "type": "address"
        }
      ],
      "name": "Paused",
      "type": "event"
    },
    {
      "anonymous": false,
      "inputs": [
        {
          "indexed": false,
          "internalType": "int256",
          "name": "rewardAmount",
          "type": "int256"
        },
        {
          "indexed": false,
          "internalType": "uint256",
          "name": "newTotalVaultValue",
          "type": "uint256"
        },
        {
          "indexed": false,
          "internalType": "uint256",
          "name": "timestamp",
          "type": "uint256"
        }
      ],
      "name": "RewardDistributed",
      "type": "event"
    },
    {
      "anonymous": false,
      "inputs": [
        {
          "indexed": true,
          "internalType": "bytes32",
          "name": "role",
          "type": "bytes32"
        },
        {
          "indexed": true,
          "internalType": "bytes32",
          "name": "previousAdminRole",
          "type": "bytes32"
        },
        {
          "indexed": true,
          "internalType": "bytes32",
          "name": "newAdminRole",
          "type": "bytes32"
        }
      ],
      "name": "RoleAdminChanged",
      "type": "event"
    },
    {
      "anonymous": false,
      "inputs": [
        {
          "indexed": true,
          "internalType": "bytes32",
          "name": "role",
          "type": "bytes32"
        },
        {
          "indexed": true,
          "internalType": "address",
          "name": "account",
          "type": "address"
        },
        {
          "indexed": true,
          "internalType": "address",
          "name": "sender",
          "type": "address"
        }
      ],
      "name": "RoleGranted",
      "type": "event"
    },
    {
      "anonymous": false,
      "inputs": [
        {
          "indexed": true,
          "internalType": "bytes32",
          "name": "role",
          "type": "bytes32"
        },
        {
          "indexed": true,
          "internalType": "address",
          "name": "account",
          "type": "address"
        },
        {
          "indexed": true,
          "internalType": "address",
          "name": "sender",
          "type": "address"
        }
      ],
      "name": "RoleRevoked",
      "type": "event"
    },
    {
      "anonymous": false,
      "inputs": [
        {
          "indexed": true,
          "internalType": "address",
          "name": "oldStrategy",
          "type": "address"
        },
        {
          "indexed": true,
          "internalType": "address",
          "name": "newStrategy",
          "type": "address"
        }
      ],
      "name": "StrategyUpdated",
      "type": "event"
    },
    {
      "anonymous": false,
      "inputs": [
        {
          "indexed": true,
          "internalType": "address",
          "name": "oldTreasury",
          "type": "address"
        },
        {
          "indexed": true,
          "internalType": "address",
          "name": "newTreasury",
          "type": "address"
        }
      ],
      "name": "TreasuryUpdated",
      "type": "event"
    },
    {
      "anonymous": false,
      "inputs": [
        {
          "indexed": false,
          "internalType": "address",
          "name": "account",
          "type": "address"
        }
      ],
      "name": "Unpaused",
      "type": "event"
    },
    {
      "anonymous": false,
      "inputs": [
        {
          "indexed": true,
          "internalType": "address",
          "name": "implementation",
          "type": "address"
        }
      ],
      "name": "Upgraded",
      "type": "event"
    },
    {
      "anonymous": false,
      "inputs": [
        {
          "indexed": true,
          "internalType": "address",
          "name": "vault",
          "type": "address"
        },
        {
          "indexed": true,
          "internalType": "address",
          "name": "stablecoin",
          "type": "address"
        },
        {
          "indexed": true,
          "internalType": "address",
          "name": "strategy",
          "type": "address"
        },
        {
          "indexed": false,
          "internalType": "address",
          "name": "shareToken",
          "type": "address"
        },
        {
          "indexed": false,
          "internalType": "address",
          "name": "treasury",
          "type": "address"
        },
        {
          "indexed": false,
          "internalType": "uint256",
          "name": "timestamp",
          "type": "uint256"
        }
      ],
      "name": "VaultInitialized",
      "type": "event"
    },
    {
      "anonymous": false,
      "inputs": [
        {
          "indexed": false,
          "internalType": "uint256",
          "name": "oldFee",
          "type": "uint256"
        },
        {
          "indexed": false,
          "internalType": "uint256",
          "name": "newFee",
          "type": "uint256"
        }
      ],
      "name": "WithdrawalFeeUpdated",
      "type": "event"
    },
    {
      "anonymous": false,
      "inputs": [
        {
          "indexed": true,
          "internalType": "uint256",
          "name": "withdrawalId",
          "type": "uint256"
        },
        {
          "indexed": true,
          "internalType": "address",
          "name": "user",
          "type": "address"
        },
        {
          "indexed": false,
          "internalType": "uint256",
          "name": "shares",
          "type": "uint256"
        },
        {
          "indexed": false,
          "internalType": "uint256",
          "name": "shareValueAtProcessing",
          "type": "uint256"
        },
        {
          "indexed": false,
          "internalType": "uint256",
          "name": "usdAmount",
          "type": "uint256"
        },
        {
          "indexed": false,
          "internalType": "uint256",
          "name": "fee",
          "type": "uint256"
        },
        {
          "indexed": false,
          "internalType": "uint256",
          "name": "timestamp",
          "type": "uint256"
        }
      ],
      "name": "WithdrawalProcessed",
      "type": "event"
    },
    {
      "anonymous": false,
      "inputs": [
        {
          "indexed": true,
          "internalType": "uint256",
          "name": "withdrawalId",
          "type": "uint256"
        },
        {
          "indexed": true,
          "internalType": "address",
          "name": "user",
          "type": "address"
        },
        {
          "indexed": false,
          "internalType": "uint256",
          "name": "shares",
          "type": "uint256"
        },
        {
          "indexed": false,
          "internalType": "uint256",
          "name": "shareValueAtRequest",
          "type": "uint256"
        },
        {
          "indexed": false,
          "internalType": "uint256",
          "name": "expectedUsdAmount",
          "type": "uint256"
        },
        {
          "indexed": false,
          "internalType": "uint256",
          "name": "canBeApprovedAt",
          "type": "uint256"
        },
        {
          "indexed": false,
          "internalType": "uint256",
          "name": "timestamp",
          "type": "uint256"
        }
      ],
      "name": "WithdrawalRequested",
      "type": "event"
    },
    {
      "inputs": [],
      "name": "ADMIN_ROLE",
      "outputs": [
        {
          "internalType": "bytes32",
          "name": "",
          "type": "bytes32"
        }
      ],
      "stateMutability": "view",
      "type": "function"
    },
    {
      "inputs": [],
      "name": "DEFAULT_ADMIN_ROLE",
      "outputs": [
        {
          "internalType": "bytes32",
          "name": "",
          "type": "bytes32"
        }
      ],
      "stateMutability": "view",
      "type": "function"
    },
    {
      "inputs": [],
      "name": "MAX_PENDING_DEPOSITS_PER_USER",
      "outputs": [
        {
          "internalType": "uint256",
          "name": "",
          "type": "uint256"
        }
      ],
      "stateMutability": "view",
      "type": "function"
    },
    {
      "inputs": [],
      "name": "MAX_PENDING_WITHDRAWALS_PER_USER",
      "outputs": [
        {
          "internalType": "uint256",
          "name": "",
          "type": "uint256"
        }
      ],
      "stateMutability": "view",
      "type": "function"
    },
    {
      "inputs": [],
      "name": "UPGRADER_ROLE",
      "outputs": [
        {
          "internalType": "bytes32",
          "name": "",
          "type": "bytes32"
        }
      ],
      "stateMutability": "view",
      "type": "function"
    },
    {
      "inputs": [],
      "name": "UPGRADE_INTERFACE_VERSION",
      "outputs": [
        {
          "internalType": "string",
          "name": "",
          "type": "string"
        }
      ],
      "stateMutability": "view",
      "type": "function"
    },
    {
      "inputs": [],
      "name": "WITHDRAWAL_DELAY",
      "outputs": [
        {
          "internalType": "uint256",
          "name": "",
          "type": "uint256"
        }
      ],
      "stateMutability": "view",
      "type": "function"
    },
    {
      "inputs": [
        {
          "internalType": "uint256[]",
          "name": "withdrawalIds",
          "type": "uint256[]"
        }
      ],
      "name": "approveWithdrawals",
      "outputs": [],
      "stateMutability": "nonpayable",
      "type": "function"
    },
    {
      "inputs": [
        {
          "internalType": "uint256",
          "name": "amount",
          "type": "uint256"
        }
      ],
      "name": "calculateDepositAmountAfterFee",
      "outputs": [
        {
          "internalType": "uint256",
          "name": "",
          "type": "uint256"
        }
      ],
      "stateMutability": "view",
      "type": "function"
    },
    {
      "inputs": [
        {
          "internalType": "uint256",
          "name": "amount",
          "type": "uint256"
        }
      ],
      "name": "calculateWithdrawalAmountAfterFee",
      "outputs": [
        {
          "internalType": "uint256",
          "name": "",
          "type": "uint256"
        }
      ],
      "stateMutability": "view",
      "type": "function"
    },
    {
      "inputs": [],
      "name": "depositFee",
      "outputs": [
        {
          "internalType": "uint256",
          "name": "",
          "type": "uint256"
        }
      ],
      "stateMutability": "view",
      "type": "function"
    },
    {
      "inputs": [],
      "name": "depositIdCounter",
      "outputs": [
        {
          "internalType": "uint256",
          "name": "",
          "type": "uint256"
        }
      ],
      "stateMutability": "view",
      "type": "function"
    },
    {
      "inputs": [
        {
          "internalType": "uint256",
          "name": "amount",
          "type": "uint256"
        }
      ],
      "name": "depositToStrategy",
      "outputs": [],
      "stateMutability": "nonpayable",
      "type": "function"
    },
    {
      "inputs": [
        {
          "internalType": "uint256",
          "name": "",
          "type": "uint256"
        }
      ],
      "name": "deposits",
      "outputs": [
        {
          "internalType": "address",
          "name": "user",
          "type": "address"
        },
        {
          "internalType": "uint256",
          "name": "amount",
          "type": "uint256"
        },
        {
          "internalType": "uint256",
          "name": "timestamp",
          "type": "uint256"
        }
      ],
      "stateMutability": "view",
      "type": "function"
    },
    {
      "inputs": [
        {
          "internalType": "int256",
          "name": "rewardAmount",
          "type": "int256"
        }
      ],
      "name": "distributeRewards",
      "outputs": [],
      "stateMutability": "nonpayable",
      "type": "function"
    },
    {
      "inputs": [
        {
          "internalType": "uint256[]",
          "name": "withdrawalIds",
          "type": "uint256[]"
        }
      ],
      "name": "forceApproveWithdrawals",
      "outputs": [],
      "stateMutability": "nonpayable",
      "type": "function"
    },
    {
      "inputs": [
        {
          "internalType": "bytes32",
          "name": "role",
          "type": "bytes32"
        }
      ],
      "name": "getRoleAdmin",
      "outputs": [
        {
          "internalType": "bytes32",
          "name": "",
          "type": "bytes32"
        }
      ],
      "stateMutability": "view",
      "type": "function"
    },
    {
      "inputs": [
        {
          "internalType": "address",
          "name": "user",
          "type": "address"
        }
      ],
      "name": "getUserDepositIds",
      "outputs": [
        {
          "internalType": "uint256[]",
          "name": "",
          "type": "uint256[]"
        }
      ],
      "stateMutability": "view",
      "type": "function"
    },
    {
      "inputs": [
        {
          "internalType": "address",
          "name": "user",
          "type": "address"
        }
      ],
      "name": "getUserPendingDepositCount",
      "outputs": [
        {
          "internalType": "uint256",
          "name": "",
          "type": "uint256"
        }
      ],
      "stateMutability": "view",
      "type": "function"
    },
    {
      "inputs": [
        {
          "internalType": "address",
          "name": "user",
          "type": "address"
        }
      ],
      "name": "getUserPendingWithdrawalCount",
      "outputs": [
        {
          "internalType": "uint256",
          "name": "",
          "type": "uint256"
        }
      ],
      "stateMutability": "view",
      "type": "function"
    },
    {
      "inputs": [
        {
          "internalType": "address",
          "name": "user",
          "type": "address"
        }
      ],
      "name": "getUserWithdrawalIds",
      "outputs": [
        {
          "internalType": "uint256[]",
          "name": "",
          "type": "uint256[]"
        }
      ],
      "stateMutability": "view",
      "type": "function"
    },
    {
      "inputs": [
        {
          "internalType": "bytes32",
          "name": "role",
          "type": "bytes32"
        },
        {
          "internalType": "address",
          "name": "account",
          "type": "address"
        }
      ],
      "name": "grantRole",
      "outputs": [],
      "stateMutability": "nonpayable",
      "type": "function"
    },
    {
      "inputs": [
        {
          "internalType": "bytes32",
          "name": "role",
          "type": "bytes32"
        },
        {
          "internalType": "address",
          "name": "account",
          "type": "address"
        }
      ],
      "name": "hasRole",
      "outputs": [
        {
          "internalType": "bool",
          "name": "",
          "type": "bool"
        }
      ],
      "stateMutability": "view",
      "type": "function"
    },
    {
      "inputs": [
        {
          "internalType": "address",
          "name": "_stablecoin",
          "type": "address"
        },
        {
          "internalType": "address",
          "name": "_shareToken",
          "type": "address"
        },
        {
          "internalType": "address",
          "name": "_strategy",
          "type": "address"
        },
        {
          "internalType": "address",
          "name": "_treasury",
          "type": "address"
        }
      ],
      "name": "initialize",
      "outputs": [],
      "stateMutability": "nonpayable",
      "type": "function"
    },
    {
      "inputs": [],
      "name": "lastRewardDistribution",
      "outputs": [
        {
          "internalType": "uint256",
          "name": "",
          "type": "uint256"
        }
      ],
      "stateMutability": "view",
      "type": "function"
    },
    {
      "inputs": [],
      "name": "minDeposit",
      "outputs": [
        {
          "internalType": "uint256",
          "name": "",
          "type": "uint256"
        }
      ],
      "stateMutability": "view",
      "type": "function"
    },
    {
      "inputs": [],
      "name": "minWithdrawalShares",
      "outputs": [
        {
          "internalType": "uint256",
          "name": "",
          "type": "uint256"
        }
      ],
      "stateMutability": "view",
      "type": "function"
    },
    {
      "inputs": [],
      "name": "owner",
      "outputs": [
        {
          "internalType": "address",
          "name": "",
          "type": "address"
        }
      ],
      "stateMutability": "view",
      "type": "function"
    },
    {
      "inputs": [],
      "name": "paused",
      "outputs": [
        {
          "internalType": "bool",
          "name": "",
          "type": "bool"
        }
      ],
      "stateMutability": "view",
      "type": "function"
    },
    {
      "inputs": [
        {
          "internalType": "uint256[]",
          "name": "depositIds",
          "type": "uint256[]"
        }
      ],
      "name": "processDeposits",
      "outputs": [],
      "stateMutability": "nonpayable",
      "type": "function"
    },
    {
      "inputs": [],
      "name": "proxiableUUID",
      "outputs": [
        {
          "internalType": "bytes32",
          "name": "",
          "type": "bytes32"
        }
      ],
      "stateMutability": "view",
      "type": "function"
    },
    {
      "inputs": [],
      "name": "renounceOwnership",
      "outputs": [],
      "stateMutability": "nonpayable",
      "type": "function"
    },
    {
      "inputs": [
        {
          "internalType": "bytes32",
          "name": "role",
          "type": "bytes32"
        },
        {
          "internalType": "address",
          "name": "callerConfirmation",
          "type": "address"
        }
      ],
      "name": "renounceRole",
      "outputs": [],
      "stateMutability": "nonpayable",
      "type": "function"
    },
    {
      "inputs": [
        {
          "internalType": "uint256",
          "name": "amount",
          "type": "uint256"
        }
      ],
      "name": "requestDeposit",
      "outputs": [
        {
          "internalType": "uint256",
          "name": "",
          "type": "uint256"
        }
      ],
      "stateMutability": "nonpayable",
      "type": "function"
    },
    {
      "inputs": [
        {
          "internalType": "uint256",
          "name": "shares",
          "type": "uint256"
        }
      ],
      "name": "requestWithdrawal",
      "outputs": [
        {
          "internalType": "uint256",
          "name": "",
          "type": "uint256"
        }
      ],
      "stateMutability": "nonpayable",
      "type": "function"
    },
    {
      "inputs": [
        {
          "internalType": "bytes32",
          "name": "role",
          "type": "bytes32"
        },
        {
          "internalType": "address",
          "name": "account",
          "type": "address"
        }
      ],
      "name": "revokeRole",
      "outputs": [],
      "stateMutability": "nonpayable",
      "type": "function"
    },
    {
      "inputs": [
        {
          "internalType": "uint256",
          "name": "newFee",
          "type": "uint256"
        }
      ],
      "name": "setDepositFee",
      "outputs": [],
      "stateMutability": "nonpayable",
      "type": "function"
    },
    {
      "inputs": [
        {
          "internalType": "uint256",
          "name": "newMin",
          "type": "uint256"
        }
      ],
      "name": "setMinDeposit",
      "outputs": [],
      "stateMutability": "nonpayable",
      "type": "function"
    },
    {
      "inputs": [
        {
          "internalType": "uint256",
          "name": "newMin",
          "type": "uint256"
        }
      ],
      "name": "setMinWithdrawalShares",
      "outputs": [],
      "stateMutability": "nonpayable",
      "type": "function"
    },
    {
      "inputs": [
        {
          "internalType": "bool",
          "name": "_paused",
          "type": "bool"
        }
      ],
      "name": "setPaused",
      "outputs": [],
      "stateMutability": "nonpayable",
      "type": "function"
    },
    {
      "inputs": [
        {
          "internalType": "address",
          "name": "newStrategy",
          "type": "address"
        }
      ],
      "name": "setStrategy",
      "outputs": [],
      "stateMutability": "nonpayable",
      "type": "function"
    },
    {
      "inputs": [
        {
          "internalType": "address",
          "name": "newTreasury",
          "type": "address"
        }
      ],
      "name": "setTreasury",
      "outputs": [],
      "stateMutability": "nonpayable",
      "type": "function"
    },
    {
      "inputs": [
        {
          "internalType": "uint256",
          "name": "newFee",
          "type": "uint256"
        }
      ],
      "name": "setWithdrawalFee",
      "outputs": [],
      "stateMutability": "nonpayable",
      "type": "function"
    },
    {
      "inputs": [],
      "name": "shareToken",
      "outputs": [
        {
          "internalType": "contract VaultShareToken",
          "name": "",
          "type": "address"
        }
      ],
      "stateMutability": "view",
      "type": "function"
    },
    {
      "inputs": [],
      "name": "shareValue",
      "outputs": [
        {
          "internalType": "uint256",
          "name": "",
          "type": "uint256"
        }
      ],
      "stateMutability": "view",
      "type": "function"
    },
    {
      "inputs": [],
      "name": "stablecoin",
      "outputs": [
        {
          "internalType": "contract IERC20",
          "name": "",
          "type": "address"
        }
      ],
      "stateMutability": "view",
      "type": "function"
    },
    {
      "inputs": [],
      "name": "strategy",
      "outputs": [
        {
          "internalType": "address",
          "name": "",
          "type": "address"
        }
      ],
      "stateMutability": "view",
      "type": "function"
    },
    {
      "inputs": [
        {
          "internalType": "bytes4",
          "name": "interfaceId",
          "type": "bytes4"
        }
      ],
      "name": "supportsInterface",
      "outputs": [
        {
          "internalType": "bool",
          "name": "",
          "type": "bool"
        }
      ],
      "stateMutability": "view",
      "type": "function"
    },
    {
      "inputs": [],
      "name": "totalDeposited",
      "outputs": [
        {
          "internalType": "uint256",
          "name": "",
          "type": "uint256"
        }
      ],
      "stateMutability": "view",
      "type": "function"
    },
    {
      "inputs": [],
      "name": "totalPendingWithdrawalShares",
      "outputs": [
        {
          "internalType": "uint256",
          "name": "",
          "type": "uint256"
        }
      ],
      "stateMutability": "view",
      "type": "function"
    },
    {
      "inputs": [],
      "name": "totalSharesWithdrawn",
      "outputs": [
        {
          "internalType": "uint256",
          "name": "",
          "type": "uint256"
        }
      ],
      "stateMutability": "view",
      "type": "function"
    },
    {
      "inputs": [],
      "name": "totalUsdWithdrawn",
      "outputs": [
        {
          "internalType": "uint256",
          "name": "",
          "type": "uint256"
        }
      ],
      "stateMutability": "view",
      "type": "function"
    },
    {
      "inputs": [],
      "name": "totalVaultValue",
      "outputs": [
        {
          "internalType": "uint256",
          "name": "",
          "type": "uint256"
        }
      ],
      "stateMutability": "view",
      "type": "function"
    },
    {
      "inputs": [
        {
          "internalType": "address",
          "name": "newOwner",
          "type": "address"
        }
      ],
      "name": "transferOwnership",
      "outputs": [],
      "stateMutability": "nonpayable",
      "type": "function"
    },
    {
      "inputs": [],
      "name": "treasury",
      "outputs": [
        {
          "internalType": "address",
          "name": "",
          "type": "address"
        }
      ],
      "stateMutability": "view",
      "type": "function"
    },
    {
      "inputs": [
        {
          "internalType": "address",
          "name": "newImplementation",
          "type": "address"
        },
        {
          "internalType": "bytes",
          "name": "data",
          "type": "bytes"
        }
      ],
      "name": "upgradeToAndCall",
      "outputs": [],
      "stateMutability": "payable",
      "type": "function"
    },
    {
      "inputs": [
        {
          "internalType": "address",
          "name": "",
          "type": "address"
        },
        {
          "internalType": "uint256",
          "name": "",
          "type": "uint256"
        }
      ],
      "name": "userDepositIds",
      "outputs": [
        {
          "internalType": "uint256",
          "name": "",
          "type": "uint256"
        }
      ],
      "stateMutability": "view",
      "type": "function"
    },
    {
      "inputs": [
        {
          "internalType": "address",
          "name": "",
          "type": "address"
        },
        {
          "internalType": "uint256",
          "name": "",
          "type": "uint256"
        }
      ],
      "name": "userWithdrawalIds",
      "outputs": [
        {
          "internalType": "uint256",
          "name": "",
          "type": "uint256"
        }
      ],
      "stateMutability": "view",
      "type": "function"
    },
    {
      "inputs": [
        {
          "internalType": "uint256",
          "name": "amount",
          "type": "uint256"
        }
      ],
      "name": "withdrawFromStrategy",
      "outputs": [],
      "stateMutability": "nonpayable",
      "type": "function"
    },
    {
      "inputs": [],
      "name": "withdrawalFee",
      "outputs": [
        {
          "internalType": "uint256",
          "name": "",
          "type": "uint256"
        }
      ],
      "stateMutability": "view",
      "type": "function"
    },
    {
      "inputs": [],
      "name": "withdrawalIdCounter",
      "outputs": [
        {
          "internalType": "uint256",
          "name": "",
          "type": "uint256"
        }
      ],
      "stateMutability": "view",
      "type": "function"
    },
    {
      "inputs": [
        {
          "internalType": "uint256",
          "name": "",
          "type": "uint256"
        }
      ],
      "name": "withdrawals",
      "outputs": [
        {
          "internalType": "address",
          "name": "user",
          "type": "address"
        },
        {
          "internalType": "uint256",
          "name": "shares",
          "type": "uint256"
        },
        {
          "internalType": "uint256",
          "name": "requestedAt",
          "type": "uint256"
        },
        {
          "internalType": "uint256",
          "name": "canBeApprovedAt",
          "type": "uint256"
        }
      ],
      "stateMutability": "view",
      "type": "function"
    }
  ],
  "bytecode": "0x60a0604052306080523480156200001557600080fd5b506200002062000026565b620000da565b7ff0c57e16840df040f15088dc2f81fe391c3923bec73e23a9662efc9c229c6a00805468010000000000000000900460ff1615620000775760405163f92ee8a960e01b815260040160405180910390fd5b80546001600160401b0390811614620000d75780546001600160401b0319166001600160401b0390811782556040519081527fc7f505b2f371ae2175ee4913f4499e1f2633a7b5936321eed1cdaeb6115181d29060200160405180910390a15b50565b608051613f7f6200010460003960008181613496015281816134bf01526136220152613f7f6000f3fe6080604052600436106103ad5760003560e01c806388fa6455116101e7578063c1faad381161010d578063dcbaa82d116100a0578063f2fde38b1161006f578063f2fde38b14610b70578063f72c0d8b14610b90578063f8c8765e14610bc4578063ff50abdc14610be457600080fd5b8063dcbaa82d14610afa578063e086d09814610b10578063e9cbd82214610b30578063f0f4426014610b5057600080fd5b8063d4e4487d116100dc578063d4e4487d14610a7a578063d547741f14610a9a578063d623662814610aba578063d7779e9814610ada57600080fd5b8063c1faad38146109f7578063c4f6726414610a24578063c92b6ed2146107cf578063d33b0aa714610a5a57600080fd5b80639ee679e811610185578063ad3cb1cc11610154578063ad3cb1cc14610922578063afbc74b914610960578063b02c43d014610976578063b0cd9cff146109e157600080fd5b80639ee679e8146108ad578063a217fddf146108cd578063a8c62e76146108e2578063ac1e50251461090257600080fd5b80638fcc9cfb116101c15780638fcc9cfb1461083757806391d148541461085757806395197e6d1461087757806397298e901461088d57600080fd5b806388fa6455146107cf5780638bc7e8c4146107e45780638da5cb5b146107fa57600080fd5b806348b19335116102d75780635cc070761161026a5780636c9fa59e116102395780636c9fa59e14610762578063715018a61461078257806375b238fc1461079757806383d5b7cc146107b957600080fd5b80635cc070761461067e57806361d027b3146106f457806365eddbb11461072c57806367a527931461074c57600080fd5b806352d1902d116102a657806352d1902d1461060e578063533573fe146106235780635c24b8ad146106395780635c975abb1461065957600080fd5b806348b19335146105a5578063490ae210146105c55780634f1ef286146105e55780634ffee068146105f857600080fd5b80632dd2f1371161034f57806336568abe1161031e57806336568abe1461054457806341b3d18514610564578063427e40421461057a578063447b15f41461059057600080fd5b80632dd2f137146104ae5780632e1fdea3146104ce5780632f2ff15d1461050457806333a100ca1461052457600080fd5b806310b7dac91161038b57806310b7dac91461042c57806316c38b3c1461044e57806323957cd11461046e578063248a9ca31461048e57600080fd5b806301ffc9a7146103b25780630d1e6667146103e75780630ebb172a14610415575b600080fd5b3480156103be57600080fd5b506103d26103cd366004613a23565b610bfa565b60405190151581526020015b60405180910390f35b3480156103f357600080fd5b50610407610402366004613a4d565b610c31565b6040519081526020016103de565b34801561042157600080fd5b5061040762093a8081565b34801561043857600080fd5b5061044c610447366004613a66565b610eb4565b005b34801561045a57600080fd5b5061044c610469366004613ae9565b611480565b34801561047a57600080fd5b5061044c610489366004613a4d565b6114a1565b34801561049a57600080fd5b506104076104a9366004613a4d565b611586565b3480156104ba57600080fd5b5061044c6104c9366004613a66565b6115a8565b3480156104da57600080fd5b506104076104e9366004613b1d565b6001600160a01b03166000908152600f602052604090205490565b34801561051057600080fd5b5061044c61051f366004613b38565b611906565b34801561053057600080fd5b5061044c61053f366004613b1d565b611928565b34801561055057600080fd5b5061044c61055f366004613b38565b6119cc565b34801561057057600080fd5b5061040760125481565b34801561058657600080fd5b50610407600b5481565b34801561059c57600080fd5b506104076119ff565b3480156105b157600080fd5b5061044c6105c0366004613a4d565b611ac8565b3480156105d157600080fd5b5061044c6105e0366004613a4d565b611b88565b61044c6105f3366004613b7a565b611c11565b34801561060457600080fd5b5061040760095481565b34801561061a57600080fd5b50610407611c2c565b34801561062f57600080fd5b5061040760055481565b34801561064557600080fd5b50610407610654366004613a4d565b611c49565b34801561066557600080fd5b50600080516020613eea8339815191525460ff166103d2565b34801561068a57600080fd5b506106ca610699366004613a4d565b600d6020526000908152604090208054600182015460028301546003909301546001600160a01b0390921692909184565b604080516001600160a01b03909516855260208501939093529183015260608201526080016103de565b34801561070057600080fd5b50600254610714906001600160a01b031681565b6040516001600160a01b0390911681526020016103de565b34801561073857600080fd5b50610407610747366004613c3c565b611c69565b34801561075857600080fd5b5061040760105481565b34801561076e57600080fd5b50600154610714906001600160a01b031681565b34801561078e57600080fd5b5061044c611c9a565b3480156107a357600080fd5b50610407600080516020613f2a83398151915281565b3480156107c557600080fd5b5061040760065481565b3480156107db57600080fd5b50610407600381565b3480156107f057600080fd5b5061040760115481565b34801561080657600080fd5b507f9016d09d72d40fdae2fd8ceac6b6234c7706214fd39c1cd1e609a0528c199300546001600160a01b0316610714565b34801561084357600080fd5b5061044c610852366004613a4d565b611cae565b34801561086357600080fd5b506103d2610872366004613b38565b611d81565b34801561088357600080fd5b5061040760135481565b34801561089957600080fd5b5061044c6108a8366004613a66565b611db9565b3480156108b957600080fd5b506104076108c8366004613a4d565b612360565b3480156108d957600080fd5b50610407600081565b3480156108ee57600080fd5b50600354610714906001600160a01b031681565b34801561090e57600080fd5b5061044c61091d366004613a4d565b6127b0565b34801561092e57600080fd5b50610953604051806040016040528060058152602001640352e302e360dc1b81525081565b6040516103de9190613c8a565b34801561096c57600080fd5b5061040760045481565b34801561098257600080fd5b506109bc610991366004613a4d565b600c602052600090815260409020805460018201546002909201546001600160a01b03909116919083565b604080516001600160a01b0390941684526020840192909252908201526060016103de565b3480156109ed57600080fd5b5061040760075481565b348015610a0357600080fd5b50610a17610a12366004613b1d565b612839565b6040516103de9190613cbd565b348015610a3057600080fd5b50610407610a3f366004613b1d565b6001600160a01b03166000908152600e602052604090205490565b348015610a6657600080fd5b5061044c610a75366004613a4d565b6128a5565b348015610a8657600080fd5b50610a17610a95366004613b1d565b6129fe565b348015610aa657600080fd5b5061044c610ab5366004613b38565b612a68565b348015610ac657600080fd5b50610407610ad5366004613c3c565b612a84565b348015610ae657600080fd5b5061044c610af5366004613a4d565b612aa0565b348015610b0657600080fd5b50610407600a5481565b348015610b1c57600080fd5b50610407610b2b366004613a4d565b612b9e565b348015610b3c57600080fd5b50600054610714906001600160a01b031681565b348015610b5c57600080fd5b5061044c610b6b366004613b1d565b612bbe565b348015610b7c57600080fd5b5061044c610b8b366004613b1d565b612c62565b348015610b9c57600080fd5b506104077f189ab7a9244df0848122154315af71fe140f3db0fe014031783b0946b8c9d2e381565b348015610bd057600080fd5b5061044c610bdf366004613d01565b612c9d565b348015610bf057600080fd5b5061040760085481565b60006001600160e01b03198216637965db0b60e01b1480610c2b57506301ffc9a760e01b6001600160e01b03198316145b92915050565b6000610c3b613025565b610c43613056565b60008211610c6c5760405162461bcd60e51b8152600401610c6390613d55565b60405180910390fd5b601254821015610cb65760405162461bcd60e51b81526020600482015260156024820152744465706f7369742062656c6f77206d696e696d756d60581b6044820152606401610c63565b336000908152600e6020526040902054600311610d155760405162461bcd60e51b815260206004820152601c60248201527f4d61782070656e64696e67206465706f736974732072656163686564000000006044820152606401610c63565b600054610d2d906001600160a01b031633308561308e565b600254601054600054610d4e926001600160a01b03918216929116906130f5565b60025460105460408051918252602082018190526007828201526619195c1bdcda5d60ca1b6060830152516001600160a01b03909216917fdb23cba216bfaed89070d2734596f2ee2a163099cfc4f5ef32036debc97922269181900360800190a2600060105483610dbf9190613d97565b600580549192506000919082610dd483613daa565b909155506040805160608082018352338083526020808401888152428587018181526000898152600c8552888120975188546001600160a01b0319166001600160a01b0390911617885592516001808901919091559051600290970196909655838252600e835286822080549687018155825290829020909401869055601054855189815291820152938401929092529293509183917f6a9e5347542ffc3c79f09aa1727184e58a17b05edb3d98635ee72005b6e4833f910160405180910390a3915050610eaf6001600080516020613f0a83398151915255565b919050565b610ebc61313a565b610ec4613056565b80610f0d5760405162461bcd60e51b81526020600482015260196024820152784e6f207769746864726177616c7320746f2070726f6365737360381b6044820152606401610c63565b600080610f186119ff565b905060005b8381101561104d576000858583818110610f3957610f39613dc3565b9050602002013590506006548110610f8b5760405162461bcd60e51b8152602060048201526015602482015274125b9d985b1a59081dda5d1a191c985dd85b081251605a1b6044820152606401610c63565b6000818152600d6020908152604091829020825160808101845281546001600160a01b0316808252600183015493820193909352600282015493810193909352600301546060830152610fdf575050611045565b6000670de0b6b3a7640000858360200151610ffa9190613dd9565b6110049190613df0565b90506000612710601154836110199190613dd9565b6110239190613df0565b905060006110318284613d97565b905061103d8189613e12565b975050505050505b600101610f1d565b506000821161109e5760405162461bcd60e51b815260206004820152601f60248201527f4e6f2076616c6964207769746864726177616c7320746f2070726f63657373006044820152606401610c63565b6000546040516370a0823160e01b815230600482015283916001600160a01b0316906370a0823190602401602060405180830381865afa1580156110e6573d6000803e3d6000fd5b505050506040513d601f19601f8201168201806040525081019061110a9190613e25565b10156111585760405162461bcd60e51b815260206004820152601860248201527f496e73756666696369656e74205553442062616c616e636500000000000000006044820152606401610c63565b60005b8381101561146257600085858381811061117757611177613dc3565b602090810292909201356000818152600d8452604090819020815160808101835281546001600160a01b03168082526001830154968201969096526002820154928101929092526003015460608201529093509190506111d857505061145a565b6000670de0b6b3a76400008583602001516111f39190613dd9565b6111fd9190613df0565b90506000612710601154836112129190613dd9565b61121c9190613df0565b9050600061122a8284613d97565b600054855160405163a9059cbb60e01b81526001600160a01b03918216600482015260248101849052929350169063a9059cbb906044016020604051808303816000875af1158015611280573d6000803e3d6000fd5b505050506040513d601f19601f820116820180604052508101906112a49190613e3e565b6112e25760405162461bcd60e51b815260206004820152600f60248201526e151c985b9cd9995c8819985a5b1959608a1b6044820152606401610c63565b600154845160208601516040516303b233ed60e51b81526001600160a01b03928316600482015260248101919091529116906376467da090604401600060405180830381600087803b15801561133757600080fd5b505af115801561134b573d6000803e3d6000fd5b5050505080600460008282546113619190613d97565b90915550506020840151600b805460009061137d908490613d97565b9091555050602084015160098054600090611399908490613e12565b9250508190555080600a60008282546113b29190613e12565b90915550508351602080860151601154604080519283529282018b9052818301859052606082015242608082015290516001600160a01b039092169187917fa1965f472fbc245e52ffff7e8714c6b331a346e1418d9836bd924ff32d48fac5919081900360a00190a383516114279086613195565b505050600091825250600d6020526040812080546001600160a01b03191681556001810182905560028101829055600301555b60010161115b565b50505061147c6001600080516020613f0a83398151915255565b5050565b61148861313a565b801561149957611496613259565b50565b6114966132bc565b6114a961313a565b670de0b6b3a76400008110156114f35760405162461bcd60e51b815260206004820152600f60248201526e4d696e696d756d20746f6f206c6f7760881b6044820152606401610c63565b69021e19e0c9bab24000008111156115405760405162461bcd60e51b815260206004820152601060248201526f09ad2dcd2daeada40e8dede40d0d2ced60831b6044820152606401610c63565b601380549082905560408051828152602081018490527f0f13780188866ed0bdc6d235407efdc20b7f1212b401123d008802063a2feb2391015b60405180910390a15050565b6000908152600080516020613eca833981519152602052604090206001015490565b600080516020613f2a8339815191526115c081613302565b6115c8613056565b8161160e5760405162461bcd60e51b81526020600482015260166024820152754e6f206465706f7369747320746f2070726f6365737360501b6044820152606401610c63565b60006116186119ff565b905060005b838110156118e857600085858381811061163957611639613dc3565b90506020020135905060055481106116885760405162461bcd60e51b8152602060048201526012602482015271125b9d985b1a590819195c1bdcda5d08125160721b6044820152606401610c63565b6000818152600c6020908152604091829020825160608101845281546001600160a01b0316808252600183015493820193909352600290910154928101929092526116d45750506118e0565b600154604080516318160ddd60e01b815290516000926001600160a01b0316916318160ddd9160048083019260209291908290030181865afa15801561171e573d6000803e3d6000fd5b505050506040513d601f19601f820116820180604052508101906117429190613e25565b60000361176457602082015161175d9064e8d4a51000613dd9565b9050611799565b84826020015164e8d4a5100061177a9190613dd9565b61178c90670de0b6b3a7640000613dd9565b6117969190613df0565b90505b60015482516040516340c10f1960e01b81526001600160a01b039182166004820152602481018490529116906340c10f1990604401600060405180830381600087803b1580156117e857600080fd5b505af11580156117fc573d6000803e3d6000fd5b505050508160200151600460008282546118169190613e12565b9091555050602082015160005461183a916001600160a01b039091169033906130f5565b8160200151600860008282546118509190613e12565b9091555050815160208084015160408051918252918101849052428183015290516001600160a01b039092169185917fc2ef66f482a31770499b1f76197e6436fe38f18c554fbc45b71b76fea3fca4bd919081900360600190a381516118b6908461330c565b50506000908152600c6020526040812080546001600160a01b031916815560018101829055600201555b60010161161d565b50506119016001600080516020613f0a83398151915255565b505050565b61190f82611586565b61191881613302565b611922838361336a565b50505050565b61193061313a565b806001600160a01b0381166119795760405162461bcd60e51b815260206004820152600f60248201526e496e76616c6964206164647265737360881b6044820152606401610c63565b600380546001600160a01b038481166001600160a01b0319831681179093556040519116919082907fe4cec16b1a7e6b7979e923da619a8b1e5fd0f0fb6e5c1cf647f350430ee61ca990600090a3505050565b6001600160a01b03811633146119f55760405163334bd91960e11b815260040160405180910390fd5b611901828261340f565b600080600160009054906101000a90046001600160a01b03166001600160a01b03166318160ddd6040518163ffffffff1660e01b8152600401602060405180830381865afa158015611a55573d6000803e3d6000fd5b505050506040513d601f19601f82011682018060405250810190611a799190613e25565b905080600003611a9257670de0b6b3a764000091505090565b8060045464e8d4a51000611aa69190613dd9565b611ab890670de0b6b3a7640000613dd9565b611ac29190613df0565b91505090565b600080516020613f2a833981519152611ae081613302565b611ae8613056565b6003546001600160a01b0316611b335760405162461bcd60e51b815260206004820152601060248201526f14dd1c985d1959de481b9bdd081cd95d60821b6044820152606401610c63565b60008211611b535760405162461bcd60e51b8152600401610c6390613d55565b600354600054611b71916001600160a01b039182169116308561308e565b61147c6001600080516020613f0a83398151915255565b611b9061313a565b6305f5e100811115611bd35760405162461bcd60e51b815260206004820152600c60248201526b08ccaca40e8dede40d0d2ced60a31b6044820152606401610c63565b601080549082905560408051828152602081018490527f828cf983933545af35b9ba46eec951db1cb4c5433c3ec403aeced2963c264790910161157a565b611c1961348b565b611c2282613530565b61147c828261355a565b6000611c36613617565b50600080516020613eaa83398151915290565b60006011548211611c5c57506000919050565b601154610c2b9083613d97565b600f6020528160005260406000208181548110611c8557600080fd5b90600052602060002001600091509150505481565b611ca261313a565b611cac6000613660565b565b611cb661313a565b620f4240811015611cfb5760405162461bcd60e51b815260206004820152600f60248201526e4d696e696d756d20746f6f206c6f7760881b6044820152606401610c63565b6402540be400811115611d435760405162461bcd60e51b815260206004820152601060248201526f09ad2dcd2daeada40e8dede40d0d2ced60831b6044820152606401610c63565b601280549082905560408051828152602081018490527fb566d3df2587c9e70b06b6419bdeeeeec8ca8cd60e4c48c6baad0d94c46809c7910161157a565b6000918252600080516020613eca833981519152602090815260408084206001600160a01b0393909316845291905290205460ff1690565b600080516020613f2a833981519152611dd181613302565b611dd9613056565b81611e225760405162461bcd60e51b81526020600482015260196024820152784e6f207769746864726177616c7320746f2070726f6365737360381b6044820152606401610c63565b600080611e2d6119ff565b905060005b84811015611f8c576000868683818110611e4e57611e4e613dc3565b9050602002013590506006548110611ea05760405162461bcd60e51b8152602060048201526015602482015274125b9d985b1a59081dda5d1a191c985dd85b081251605a1b6044820152606401610c63565b6000818152600d6020908152604091829020825160808101845281546001600160a01b0316808252600183015493820193909352600282015493810193909352600301546060830152611ef4575050611f84565b8060600151421015611f485760405162461bcd60e51b815260206004820152601860248201527f5769746864726177616c2064656c6179206e6f74206d657400000000000000006044820152606401610c63565b60006c0c9f2c9cd04674edea40000000858360200151611f689190613dd9565b611f729190613df0565b9050611f7e8187613e12565b95505050505b600101611e32565b508115611fab57600054611fab906001600160a01b031633308561308e565b60005b84811015612346576000868683818110611fca57611fca613dc3565b602090810292909201356000818152600d8452604090819020815160808101835281546001600160a01b031680825260018301549682019690965260028201549281019290925260030154606082015290935091905061202b57505061233e565b60006c0c9f2c9cd04674edea4000000085836020015161204b9190613dd9565b6120559190613df0565b905060115481116120a85760405162461bcd60e51b815260206004820152601b60248201527f5769746864726177616c20616d6f756e7420746f6f20736d616c6c00000000006044820152606401610c63565b6000601154826120b89190613d97565b6002546011546000549293506120db926001600160a01b039081169216906130f5565b6002546011546040805191825260208201819052600a82820152691dda5d1a191c985dd85b60b21b6060830152516001600160a01b03909216917fdb23cba216bfaed89070d2734596f2ee2a163099cfc4f5ef32036debc97922269181900360800190a2825160005461215a916001600160a01b0390911690836130f5565b60015483516020850151604051632770a7eb60e21b81526001600160a01b0392831660048201526024810191909152911690639dc29fac90604401600060405180830381600087803b1580156121af57600080fd5b505af11580156121c3573d6000803e3d6000fd5b5050600154855160208701516040516303b233ed60e51b81526001600160a01b0392831660048201526024810191909152911692506376467da09150604401600060405180830381600087803b15801561221c57600080fd5b505af1158015612230573d6000803e3d6000fd5b5050505081600460008282546122469190613d97565b90915550506020830151600b8054600090612262908490613d97565b909155505060208301516009805460009061227e908490613e12565b9250508190555081600a60008282546122979190613e12565b90915550508251602080850151601154604080519283529282018a9052818301869052606082015242608082015290516001600160a01b039092169186917fa1965f472fbc245e52ffff7e8714c6b331a346e1418d9836bd924ff32d48fac5919081900360a00190a3825161230c9085613195565b5050506000908152600d6020526040812080546001600160a01b03191681556001810182905560028101829055600301555b600101611fae565b5050506119016001600080516020613f0a83398151915255565b600061236a613025565b612372613056565b600082116123b75760405162461bcd60e51b81526020600482015260126024820152710536861726573206d757374206265203e20360741b6044820152606401610c63565b6013548210156124095760405162461bcd60e51b815260206004820152601860248201527f5769746864726177616c2062656c6f77206d696e696d756d00000000000000006044820152606401610c63565b336000908152600f60205260409020546003116124685760405162461bcd60e51b815260206004820152601f60248201527f4d61782070656e64696e67207769746864726177616c732072656163686564006044820152606401610c63565b6001546040516370a0823160e01b815233600482015283916001600160a01b0316906370a0823190602401602060405180830381865afa1580156124b0573d6000803e3d6000fd5b505050506040513d601f19601f820116820180604052508101906124d49190613e25565b10156125185760405162461bcd60e51b8152602060048201526013602482015272496e73756666696369656e742073686172657360681b6044820152606401610c63565b60015460405163ed666d2f60e01b815233600482015283916001600160a01b03169063ed666d2f90602401602060405180830381865afa158015612560573d6000803e3d6000fd5b505050506040513d601f19601f820116820180604052508101906125849190613e25565b10156125d25760405162461bcd60e51b815260206004820152601d60248201527f496e73756666696369656e7420617661696c61626c65207368617265730000006044820152606401610c63565b60015460405162bf7e8960e31b8152336004820152602481018490526001600160a01b03909116906305fbf44890604401600060405180830381600087803b15801561261d57600080fd5b505af1158015612631573d6000803e3d6000fd5b5050505081600b60008282546126479190613e12565b90915550600090506126576119ff565b905060006c0c9f2c9cd04674edea400000006126738386613dd9565b61267d9190613df0565b60068054919250600091908261269283613daa565b9190505590506040518060800160405280336001600160a01b0316815260200186815260200142815260200162093a80426126cd9190613e12565b90526000828152600d60209081526040808320845181546001600160a01b0319166001600160a01b039091161781558483015160018083019190915585830151600283015560609095015160039091015533808452600f83529083208054948501815583529120909101829055817fda8cf62f5868109ec17d28336a4f3baa4dcec549a4ef6f99dd1d5eb638af08c887868661276c62093a8042613e12565b60408051948552602085019390935291830152606082015242608082015260a00160405180910390a392505050610eaf6001600080516020613f0a83398151915255565b6127b861313a565b6305f5e1008111156127fb5760405162461bcd60e51b815260206004820152600c60248201526b08ccaca40e8dede40d0d2ced60a31b6044820152606401610c63565b601180549082905560408051828152602081018490527f72aa1ef4707dfa7defd1468e6ffc70bf9517ce19e3afad93fcf4be42f2d494f5910161157a565b6001600160a01b0381166000908152600f602090815260409182902080548351818402810184019094528084526060939283018282801561289957602002820191906000526020600020905b815481526020019060010190808311612885575b50505050509050919050565b600080516020613f2a8339815191526128bd81613302565b6128c5613056565b6003546001600160a01b03166129105760405162461bcd60e51b815260206004820152601060248201526f14dd1c985d1959de481b9bdd081cd95d60821b6044820152606401610c63565b600082116129305760405162461bcd60e51b8152600401610c6390613d55565b6000546040516370a0823160e01b815230600482015283916001600160a01b0316906370a0823190602401602060405180830381865afa158015612978573d6000803e3d6000fd5b505050506040513d601f19601f8201168201806040525081019061299c9190613e25565b10156129e15760405162461bcd60e51b8152602060048201526014602482015273496e73756666696369656e742062616c616e636560601b6044820152606401610c63565b600354600054611b71916001600160a01b039182169116846130f5565b6001600160a01b0381166000908152600e602090815260409182902080548351818402810184019094528084526060939283018282801561289957602002820191906000526020600020908154815260200190600101908083116128855750505050509050919050565b612a7182611586565b612a7a81613302565b611922838361340f565b600e6020528160005260406000208181548110611c8557600080fd5b600080516020613f2a833981519152612ab881613302565b6000821215612b3e576000612acc83613e5b565b9050600454811115612b205760405162461bcd60e51b815260206004820152601860248201527f4c6f73732065786365656473207661756c742076616c756500000000000000006044820152606401610c63565b8060046000828254612b329190613d97565b90915550612b56915050565b8160046000828254612b509190613e12565b90915550505b4260078190556004546040805185815260208101929092528101919091527f14bd41440477d723cf5d214434669e5e4af5d3106bdc7ba6414c382d732840589060600161157a565b60006010548211612bb157506000919050565b601054610c2b9083613d97565b612bc661313a565b806001600160a01b038116612c0f5760405162461bcd60e51b815260206004820152600f60248201526e496e76616c6964206164647265737360881b6044820152606401610c63565b600280546001600160a01b038481166001600160a01b0319831681179093556040519116919082907f4ab5be82436d353e61ca18726e984e561f5c1cc7c6d38b29d2553c790434705a90600090a3505050565b612c6a61313a565b6001600160a01b038116612c9457604051631e4fbdf760e01b815260006004820152602401610c63565b61149681613660565b6000612ca76136d1565b805490915060ff600160401b820416159067ffffffffffffffff16600081158015612ccf5750825b905060008267ffffffffffffffff166001148015612cec5750303b155b905081158015612cfa575080155b15612d185760405163f92ee8a960e01b815260040160405180910390fd5b845467ffffffffffffffff191660011785558315612d4257845460ff60401b1916600160401b1785555b6001600160a01b038916612d985760405162461bcd60e51b815260206004820152601a60248201527f496e76616c696420737461626c65636f696e20616464726573730000000000006044820152606401610c63565b6001600160a01b038816612dee5760405162461bcd60e51b815260206004820152601b60248201527f496e76616c696420736861726520746f6b656e206164647265737300000000006044820152606401610c63565b6001600160a01b038716612e445760405162461bcd60e51b815260206004820152601860248201527f496e76616c6964207374726174656779206164647265737300000000000000006044820152606401610c63565b6001600160a01b038616612e9a5760405162461bcd60e51b815260206004820152601860248201527f496e76616c6964207472656173757279206164647265737300000000000000006044820152606401610c63565b612ea3336136fa565b612eab61370b565b612eb361370b565b612ebb613713565b612ec361370b565b600080546001600160a01b03808c166001600160a01b0319928316178355600180548c8316908416179055600380548b831690841617905560028054918a1691909216179055612f13903361336a565b50612f2c600080516020613f2a8339815191523361336a565b50612f577f189ab7a9244df0848122154315af71fe140f3db0fe014031783b0946b8c9d2e33361336a565b50426007819055620f424060108190556011556305f5e10060125568056bc75e2d63100000601355604080516001600160a01b038b811682528981166020830152818301939093529051898316928c169130917f59fbf569e13224f023993109b7bc20408873be1498dfe4494b6061367e924c969181900360600190a4831561301a57845460ff60401b19168555604051600181527fc7f505b2f371ae2175ee4913f4499e1f2633a7b5936321eed1cdaeb6115181d29060200160405180910390a15b505050505050505050565b600080516020613eea8339815191525460ff1615611cac5760405163d93c066560e01b815260040160405180910390fd5b600080516020613f0a83398151915280546001190161308857604051633ee5aeb560e01b815260040160405180910390fd5b60029055565b6040516001600160a01b0384811660248301528381166044830152606482018390526119229186918216906323b872dd906084015b604051602081830303815290604052915060e01b6020820180516001600160e01b038381831617835250505050613723565b6040516001600160a01b0383811660248301526044820183905261190191859182169063a9059cbb906064016130c3565b6001600080516020613f0a83398151915255565b3361316c7f9016d09d72d40fdae2fd8ceac6b6234c7706214fd39c1cd1e609a0528c199300546001600160a01b031690565b6001600160a01b031614611cac5760405163118cdaa760e01b8152336004820152602401610c63565b6001600160a01b0382166000908152600f60205260408120905b815481101561192257828282815481106131cb576131cb613dc3565b90600052602060002001540361325157815482906131eb90600190613d97565b815481106131fb576131fb613dc3565b906000526020600020015482828154811061321857613218613dc3565b90600052602060002001819055508180548061323657613236613e77565b60019003818190600052602060002001600090559055611922565b6001016131af565b613261613025565b600080516020613eea833981519152805460ff191660011781557f62e78cea01bee320cd4e420270b5ea74000d11b0c9f74754ebdbfc544b05a258335b6040516001600160a01b03909116815260200160405180910390a150565b6132c4613794565b600080516020613eea833981519152805460ff191681557f5db9ee0a495bf2e6ff9c91a7834c1ba4fdd244a5e8aa4e537bd38aeae4b073aa3361329e565b61149681336137c4565b6001600160a01b0382166000908152600e60205260408120905b8154811015611922578282828154811061334257613342613dc3565b90600052602060002001540361336257815482906131eb90600190613d97565b600101613326565b6000600080516020613eca8339815191526133858484611d81565b613405576000848152602082815260408083206001600160a01b03871684529091529020805460ff191660011790556133bb3390565b6001600160a01b0316836001600160a01b0316857f2f8788117e7eff1d82e926ec794901d17c78024a50270940304540a733656f0d60405160405180910390a46001915050610c2b565b6000915050610c2b565b6000600080516020613eca83398151915261342a8484611d81565b15613405576000848152602082815260408083206001600160a01b0387168085529252808320805460ff1916905551339287917ff6391f5c32d9c69d2a47ea670b442974b53935d1edc7fd64eb21e047a839171b9190a46001915050610c2b565b306001600160a01b037f000000000000000000000000000000000000000000000000000000000000000016148061351257507f00000000000000000000000000000000000000000000000000000000000000006001600160a01b0316613506600080516020613eaa833981519152546001600160a01b031690565b6001600160a01b031614155b15611cac5760405163703e46dd60e11b815260040160405180910390fd5b7f189ab7a9244df0848122154315af71fe140f3db0fe014031783b0946b8c9d2e361147c81613302565b816001600160a01b03166352d1902d6040518163ffffffff1660e01b8152600401602060405180830381865afa9250505080156135b4575060408051601f3d908101601f191682019092526135b191810190613e25565b60015b6135dc57604051634c9c8ce360e01b81526001600160a01b0383166004820152602401610c63565b600080516020613eaa833981519152811461360d57604051632a87526960e21b815260048101829052602401610c63565b61190183836137fd565b306001600160a01b037f00000000000000000000000000000000000000000000000000000000000000001614611cac5760405163703e46dd60e11b815260040160405180910390fd5b7f9016d09d72d40fdae2fd8ceac6b6234c7706214fd39c1cd1e609a0528c19930080546001600160a01b031981166001600160a01b03848116918217845560405192169182907f8be0079c531659141344cd1fd0a4f28419497f9722a3daafe3b4186f6b6457e090600090a3505050565b6000807ff0c57e16840df040f15088dc2f81fe391c3923bec73e23a9662efc9c229c6a00610c2b565b613702613853565b61149681613878565b611cac613853565b61371b613853565b611cac613880565b600080602060008451602086016000885af180613746576040513d6000823e3d81fd5b50506000513d9150811561375e57806001141561376b565b6001600160a01b0384163b155b1561192257604051635274afe760e01b81526001600160a01b0385166004820152602401610c63565b600080516020613eea8339815191525460ff16611cac57604051638dfc202b60e01b815260040160405180910390fd5b6137ce8282611d81565b61147c5760405163e2517d3f60e01b81526001600160a01b038216600482015260248101839052604401610c63565b61380682613888565b6040516001600160a01b038316907fbc7cd75a20ee27fd9adebab32041f755214dbc6bffa90cc0225b39da2e5c2d3b90600090a280511561384b5761190182826138ed565b61147c613963565b61385b613982565b611cac57604051631afcd79f60e31b815260040160405180910390fd5b612c6a613853565b613126613853565b806001600160a01b03163b6000036138be57604051634c9c8ce360e01b81526001600160a01b0382166004820152602401610c63565b600080516020613eaa83398151915280546001600160a01b0319166001600160a01b0392909216919091179055565b6060600080846001600160a01b03168460405161390a9190613e8d565b600060405180830381855af49150503d8060008114613945576040519150601f19603f3d011682016040523d82523d6000602084013e61394a565b606091505b509150915061395a85838361399c565b95945050505050565b3415611cac5760405163b398979f60e01b815260040160405180910390fd5b600061398c6136d1565b54600160401b900460ff16919050565b6060826139b1576139ac826139fb565b6139f4565b81511580156139c857506001600160a01b0384163b155b156139f157604051639996b31560e01b81526001600160a01b0385166004820152602401610c63565b50805b9392505050565b805115613a0a57805160208201fd5b60405163d6bda27560e01b815260040160405180910390fd5b600060208284031215613a3557600080fd5b81356001600160e01b0319811681146139f457600080fd5b600060208284031215613a5f57600080fd5b5035919050565b60008060208385031215613a7957600080fd5b823567ffffffffffffffff80821115613a9157600080fd5b818501915085601f830112613aa557600080fd5b813581811115613ab457600080fd5b8660208260051b8501011115613ac957600080fd5b60209290920196919550909350505050565b801515811461149657600080fd5b600060208284031215613afb57600080fd5b81356139f481613adb565b80356001600160a01b0381168114610eaf57600080fd5b600060208284031215613b2f57600080fd5b6139f482613b06565b60008060408385031215613b4b57600080fd5b82359150613b5b60208401613b06565b90509250929050565b634e487b7160e01b600052604160045260246000fd5b60008060408385031215613b8d57600080fd5b613b9683613b06565b9150602083013567ffffffffffffffff80821115613bb357600080fd5b818501915085601f830112613bc757600080fd5b813581811115613bd957613bd9613b64565b604051601f8201601f19908116603f01168101908382118183101715613c0157613c01613b64565b81604052828152886020848701011115613c1a57600080fd5b8260208601602083013760006020848301015280955050505050509250929050565b60008060408385031215613c4f57600080fd5b613c5883613b06565b946020939093013593505050565b60005b83811015613c81578181015183820152602001613c69565b50506000910152565b6020815260008251806020840152613ca9816040850160208701613c66565b601f01601f19169190910160400192915050565b6020808252825182820181905260009190848201906040850190845b81811015613cf557835183529284019291840191600101613cd9565b50909695505050505050565b60008060008060808587031215613d1757600080fd5b613d2085613b06565b9350613d2e60208601613b06565b9250613d3c60408601613b06565b9150613d4a60608601613b06565b905092959194509250565b6020808252601290820152710416d6f756e74206d757374206265203e20360741b604082015260600190565b634e487b7160e01b600052601160045260246000fd5b81810381811115610c2b57610c2b613d81565b600060018201613dbc57613dbc613d81565b5060010190565b634e487b7160e01b600052603260045260246000fd5b8082028115828204841417610c2b57610c2b613d81565b600082613e0d57634e487b7160e01b600052601260045260246000fd5b500490565b80820180821115610c2b57610c2b613d81565b600060208284031215613e3757600080fd5b5051919050565b600060208284031215613e5057600080fd5b81516139f481613adb565b6000600160ff1b8201613e7057613e70613d81565b5060000390565b634e487b7160e01b600052603160045260246000fd5b60008251613e9f818460208701613c66565b919091019291505056fe360894a13ba1a3210667c828492db98dca3e2076cc3735a920a3ca505d382bbc02dd7bc7dec4dceedda775e58dd541e08a116c6c53815c0bd028192f7b626800cd5ed15c6e187e77e9aee88184c21f4f2182ab5827cb3b7e07fbedcd63f033009b779b17422d0df92223018b32b4d1fa46e071723d6817e2486d003becc55f00a49807205ce4d355092ef5a8a18f56e8913cf4a201fbe287825b095693c21775a26469706673582212206d911f7b9430565a77ea2982d051820bcae1fd21c5fe322c82c08107a3c8f8c664736f6c63430008180033",
  "linkReferences": {},
  "deployedLinkReferences": {}
}