{
  "_format": "hh-sol-artifact-1",
  "contractName": "DepositVault",
  "sourceName": "contracts/vault/DepositVault.sol",
  "abi": [
    {
      "inputs": [],
      "stateMutability": "nonpayable",
      "type": "constructor"
    },
    {
      "inputs": [],
      "name": "AccessControlBadConfirmation",
      "type": "error"
    },
    {
      "inputs": [
        {
          "internalType": "address",
          "name": "account",
          "type": "address"
        },
        {
          "internalType": "bytes32",
          "name": "neededRole",
          "type": "bytes32"
        }
      ],
      "name": "AccessControlUnauthorizedAccount",
      "type": "error"
    },
    {
      "inputs": [
        {
          "internalType": "address",
          "name": "target",
          "type": "address"
        }
      ],
      "name": "AddressEmptyCode",
      "type": "error"
    },
    {
      "inputs": [
        {
          "internalType": "address",
          "name": "implementation",
          "type": "address"
        }
      ],
      "name": "ERC1967InvalidImplementation",
      "type": "error"
    },
    {
      "inputs": [],
      "name": "ERC1967NonPayable",
      "type": "error"
    },
    {
      "inputs": [],
      "name": "EnforcedPause",
      "type": "error"
    },
    {
      "inputs": [],
      "name": "ExpectedPause",
      "type": "error"
    },
    {
      "inputs": [],
      "name": "FailedCall",
      "type": "error"
    },
    {
      "inputs": [],
      "name": "InvalidInitialization",
      "type": "error"
    },
    {
      "inputs": [],
      "name": "NotInitializing",
      "type": "error"
    },
    {
      "inputs": [
        {
          "internalType": "address",
          "name": "owner",
          "type": "address"
        }
      ],
      "name": "OwnableInvalidOwner",
      "type": "error"
    },
    {
      "inputs": [
        {
          "internalType": "address",
          "name": "account",
          "type": "address"
        }
      ],
      "name": "OwnableUnauthorizedAccount",
      "type": "error"
    },
    {
      "inputs": [],
      "name": "ReentrancyGuardReentrantCall",
      "type": "error"
    },
    {
      "inputs": [
        {
          "internalType": "address",
          "name": "token",
          "type": "address"
        }
      ],
      "name": "SafeERC20FailedOperation",
      "type": "error"
    },
    {
      "inputs": [],
      "name": "UUPSUnauthorizedCallContext",
      "type": "error"
    },
    {
      "inputs": [
        {
          "internalType": "bytes32",
          "name": "slot",
          "type": "bytes32"
        }
      ],
      "name": "UUPSUnsupportedProxiableUUID",
      "type": "error"
    },
    {
      "anonymous": false,
      "inputs": [
        {
          "indexed": false,
          "internalType": "uint256",
          "name": "oldFee",
          "type": "uint256"
        },
        {
          "indexed": false,
          "internalType": "uint256",
          "name": "newFee",
          "type": "uint256"
        }
      ],
      "name": "DepositFeeUpdated",
      "type": "event"
    },
    {
      "anonymous": false,
      "inputs": [
        {
          "indexed": true,
          "internalType": "uint256",
          "name": "depositId",
          "type": "uint256"
        },
        {
          "indexed": true,
          "internalType": "address",
          "name": "user",
          "type": "address"
        },
        {
          "indexed": false,
          "internalType": "uint256",
          "name": "usdAmount",
          "type": "uint256"
        },
        {
          "indexed": false,
          "internalType": "uint256",
          "name": "sharesMinted",
          "type": "uint256"
        },
        {
          "indexed": false,
          "internalType": "uint256",
          "name": "timestamp",
          "type": "uint256"
        }
      ],
      "name": "DepositProcessed",
      "type": "event"
    },
    {
      "anonymous": false,
      "inputs": [
        {
          "indexed": true,
          "internalType": "uint256",
          "name": "depositId",
          "type": "uint256"
        },
        {
          "indexed": true,
          "internalType": "address",
          "name": "user",
          "type": "address"
        },
        {
          "indexed": false,
          "internalType": "uint256",
          "name": "amount",
          "type": "uint256"
        },
        {
          "indexed": false,
          "internalType": "uint256",
          "name": "fee",
          "type": "uint256"
        },
        {
          "indexed": false,
          "internalType": "uint256",
          "name": "timestamp",
          "type": "uint256"
        }
      ],
      "name": "DepositRequested",
      "type": "event"
    },
    {
      "anonymous": false,
      "inputs": [
        {
          "indexed": true,
          "internalType": "address",
          "name": "treasury",
          "type": "address"
        },
        {
          "indexed": false,
          "internalType": "uint256",
          "name": "amount",
          "type": "uint256"
        },
        {
          "indexed": false,
          "internalType": "string",
          "name": "feeType",
          "type": "string"
        }
      ],
      "name": "FeesCollected",
      "type": "event"
    },
    {
      "anonymous": false,
      "inputs": [
        {
          "indexed": false,
          "internalType": "uint64",
          "name": "version",
          "type": "uint64"
        }
      ],
      "name": "Initialized",
      "type": "event"
    },
    {
      "anonymous": false,
      "inputs": [
        {
          "indexed": false,
          "internalType": "uint256",
          "name": "oldMin",
          "type": "uint256"
        },
        {
          "indexed": false,
          "internalType": "uint256",
          "name": "newMin",
          "type": "uint256"
        }
      ],
      "name": "MinDepositUpdated",
      "type": "event"
    },
    {
      "anonymous": false,
      "inputs": [
        {
          "indexed": false,
          "internalType": "uint256",
          "name": "oldMin",
          "type": "uint256"
        },
        {
          "indexed": false,
          "internalType": "uint256",
          "name": "newMin",
          "type": "uint256"
        }
      ],
      "name": "MinWithdrawalSharesUpdated",
      "type": "event"
    },
    {
      "anonymous": false,
      "inputs": [
        {
          "indexed": true,
          "internalType": "address",
          "name": "previousOwner",
          "type": "address"
        },
        {
          "indexed": true,
          "internalType": "address",
          "name": "newOwner",
          "type": "address"
        }
      ],
      "name": "OwnershipTransferred",
      "type": "event"
    },
    {
      "anonymous": false,
      "inputs": [
        {
          "indexed": false,
          "internalType": "address",
          "name": "account",
          "type": "address"
        }
      ],
      "name": "Paused",
      "type": "event"
    },
    {
      "anonymous": false,
      "inputs": [
        {
          "indexed": false,
          "internalType": "int256",
          "name": "rewardAmount",
          "type": "int256"
        },
        {
          "indexed": false,
          "internalType": "uint256",
          "name": "newTotalVaultValue",
          "type": "uint256"
        },
        {
          "indexed": false,
          "internalType": "uint256",
          "name": "timestamp",
          "type": "uint256"
        }
      ],
      "name": "RewardDistributed",
      "type": "event"
    },
    {
      "anonymous": false,
      "inputs": [
        {
          "indexed": true,
          "internalType": "bytes32",
          "name": "role",
          "type": "bytes32"
        },
        {
          "indexed": true,
          "internalType": "bytes32",
          "name": "previousAdminRole",
          "type": "bytes32"
        },
        {
          "indexed": true,
          "internalType": "bytes32",
          "name": "newAdminRole",
          "type": "bytes32"
        }
      ],
      "name": "RoleAdminChanged",
      "type": "event"
    },
    {
      "anonymous": false,
      "inputs": [
        {
          "indexed": true,
          "internalType": "bytes32",
          "name": "role",
          "type": "bytes32"
        },
        {
          "indexed": true,
          "internalType": "address",
          "name": "account",
          "type": "address"
        },
        {
          "indexed": true,
          "internalType": "address",
          "name": "sender",
          "type": "address"
        }
      ],
      "name": "RoleGranted",
      "type": "event"
    },
    {
      "anonymous": false,
      "inputs": [
        {
          "indexed": true,
          "internalType": "bytes32",
          "name": "role",
          "type": "bytes32"
        },
        {
          "indexed": true,
          "internalType": "address",
          "name": "account",
          "type": "address"
        },
        {
          "indexed": true,
          "internalType": "address",
          "name": "sender",
          "type": "address"
        }
      ],
      "name": "RoleRevoked",
      "type": "event"
    },
    {
      "anonymous": false,
      "inputs": [
        {
          "indexed": true,
          "internalType": "address",
          "name": "oldStrategy",
          "type": "address"
        },
        {
          "indexed": true,
          "internalType": "address",
          "name": "newStrategy",
          "type": "address"
        }
      ],
      "name": "StrategyUpdated",
      "type": "event"
    },
    {
      "anonymous": false,
      "inputs": [
        {
          "indexed": true,
          "internalType": "address",
          "name": "oldTreasury",
          "type": "address"
        },
        {
          "indexed": true,
          "internalType": "address",
          "name": "newTreasury",
          "type": "address"
        }
      ],
      "name": "TreasuryUpdated",
      "type": "event"
    },
    {
      "anonymous": false,
      "inputs": [
        {
          "indexed": false,
          "internalType": "address",
          "name": "account",
          "type": "address"
        }
      ],
      "name": "Unpaused",
      "type": "event"
    },
    {
      "anonymous": false,
      "inputs": [
        {
          "indexed": true,
          "internalType": "address",
          "name": "implementation",
          "type": "address"
        }
      ],
      "name": "Upgraded",
      "type": "event"
    },
    {
      "anonymous": false,
      "inputs": [
        {
          "indexed": true,
          "internalType": "address",
          "name": "vault",
          "type": "address"
        },
        {
          "indexed": true,
          "internalType": "address",
          "name": "stablecoin",
          "type": "address"
        },
        {
          "indexed": true,
          "internalType": "address",
          "name": "strategy",
          "type": "address"
        },
        {
          "indexed": false,
          "internalType": "address",
          "name": "shareToken",
          "type": "address"
        },
        {
          "indexed": false,
          "internalType": "address",
          "name": "treasury",
          "type": "address"
        },
        {
          "indexed": false,
          "internalType": "uint256",
          "name": "timestamp",
          "type": "uint256"
        }
      ],
      "name": "VaultInitialized",
      "type": "event"
    },
    {
      "anonymous": false,
      "inputs": [
        {
          "indexed": false,
          "internalType": "uint256",
          "name": "oldFee",
          "type": "uint256"
        },
        {
          "indexed": false,
          "internalType": "uint256",
          "name": "newFee",
          "type": "uint256"
        }
      ],
      "name": "WithdrawalFeeUpdated",
      "type": "event"
    },
    {
      "anonymous": false,
      "inputs": [
        {
          "indexed": true,
          "internalType": "uint256",
          "name": "withdrawalId",
          "type": "uint256"
        },
        {
          "indexed": true,
          "internalType": "address",
          "name": "user",
          "type": "address"
        },
        {
          "indexed": false,
          "internalType": "uint256",
          "name": "shares",
          "type": "uint256"
        },
        {
          "indexed": false,
          "internalType": "uint256",
          "name": "shareValueAtProcessing",
          "type": "uint256"
        },
        {
          "indexed": false,
          "internalType": "uint256",
          "name": "usdAmount",
          "type": "uint256"
        },
        {
          "indexed": false,
          "internalType": "uint256",
          "name": "fee",
          "type": "uint256"
        },
        {
          "indexed": false,
          "internalType": "uint256",
          "name": "timestamp",
          "type": "uint256"
        }
      ],
      "name": "WithdrawalProcessed",
      "type": "event"
    },
    {
      "anonymous": false,
      "inputs": [
        {
          "indexed": true,
          "internalType": "uint256",
          "name": "withdrawalId",
          "type": "uint256"
        },
        {
          "indexed": true,
          "internalType": "address",
          "name": "user",
          "type": "address"
        },
        {
          "indexed": false,
          "internalType": "uint256",
          "name": "shares",
          "type": "uint256"
        },
        {
          "indexed": false,
          "internalType": "uint256",
          "name": "shareValueAtRequest",
          "type": "uint256"
        },
        {
          "indexed": false,
          "internalType": "uint256",
          "name": "expectedUsdAmount",
          "type": "uint256"
        },
        {
          "indexed": false,
          "internalType": "uint256",
          "name": "canBeApprovedAt",
          "type": "uint256"
        },
        {
          "indexed": false,
          "internalType": "uint256",
          "name": "timestamp",
          "type": "uint256"
        }
      ],
      "name": "WithdrawalRequested",
      "type": "event"
    },
    {
      "inputs": [],
      "name": "ADMIN_ROLE",
      "outputs": [
        {
          "internalType": "bytes32",
          "name": "",
          "type": "bytes32"
        }
      ],
      "stateMutability": "view",
      "type": "function"
    },
    {
      "inputs": [],
      "name": "DEFAULT_ADMIN_ROLE",
      "outputs": [
        {
          "internalType": "bytes32",
          "name": "",
          "type": "bytes32"
        }
      ],
      "stateMutability": "view",
      "type": "function"
    },
    {
      "inputs": [],
      "name": "MAX_PENDING_DEPOSITS_PER_USER",
      "outputs": [
        {
          "internalType": "uint256",
          "name": "",
          "type": "uint256"
        }
      ],
      "stateMutability": "view",
      "type": "function"
    },
    {
      "inputs": [],
      "name": "MAX_PENDING_WITHDRAWALS_PER_USER",
      "outputs": [
        {
          "internalType": "uint256",
          "name": "",
          "type": "uint256"
        }
      ],
      "stateMutability": "view",
      "type": "function"
    },
    {
      "inputs": [],
      "name": "UPGRADER_ROLE",
      "outputs": [
        {
          "internalType": "bytes32",
          "name": "",
          "type": "bytes32"
        }
      ],
      "stateMutability": "view",
      "type": "function"
    },
    {
      "inputs": [],
      "name": "UPGRADE_INTERFACE_VERSION",
      "outputs": [
        {
          "internalType": "string",
          "name": "",
          "type": "string"
        }
      ],
      "stateMutability": "view",
      "type": "function"
    },
    {
      "inputs": [],
      "name": "WITHDRAWAL_DELAY",
      "outputs": [
        {
          "internalType": "uint256",
          "name": "",
          "type": "uint256"
        }
      ],
      "stateMutability": "view",
      "type": "function"
    },
    {
      "inputs": [
        {
          "internalType": "uint256[]",
          "name": "withdrawalIds",
          "type": "uint256[]"
        }
      ],
      "name": "approveWithdrawals",
      "outputs": [],
      "stateMutability": "nonpayable",
      "type": "function"
    },
    {
      "inputs": [
        {
          "internalType": "uint256",
          "name": "amount",
          "type": "uint256"
        }
      ],
      "name": "calculateDepositAmountAfterFee",
      "outputs": [
        {
          "internalType": "uint256",
          "name": "",
          "type": "uint256"
        }
      ],
      "stateMutability": "view",
      "type": "function"
    },
    {
      "inputs": [
        {
          "internalType": "uint256",
          "name": "amount",
          "type": "uint256"
        }
      ],
      "name": "calculateWithdrawalAmountAfterFee",
      "outputs": [
        {
          "internalType": "uint256",
          "name": "",
          "type": "uint256"
        }
      ],
      "stateMutability": "view",
      "type": "function"
    },
    {
      "inputs": [],
      "name": "depositFee",
      "outputs": [
        {
          "internalType": "uint256",
          "name": "",
          "type": "uint256"
        }
      ],
      "stateMutability": "view",
      "type": "function"
    },
    {
      "inputs": [],
      "name": "depositIdCounter",
      "outputs": [
        {
          "internalType": "uint256",
          "name": "",
          "type": "uint256"
        }
      ],
      "stateMutability": "view",
      "type": "function"
    },
    {
      "inputs": [
        {
          "internalType": "uint256",
          "name": "amount",
          "type": "uint256"
        }
      ],
      "name": "depositToStrategy",
      "outputs": [],
      "stateMutability": "nonpayable",
      "type": "function"
    },
    {
      "inputs": [
        {
          "internalType": "uint256",
          "name": "",
          "type": "uint256"
        }
      ],
      "name": "deposits",
      "outputs": [
        {
          "internalType": "address",
          "name": "user",
          "type": "address"
        },
        {
          "internalType": "uint256",
          "name": "amount",
          "type": "uint256"
        },
        {
          "internalType": "uint256",
          "name": "timestamp",
          "type": "uint256"
        }
      ],
      "stateMutability": "view",
      "type": "function"
    },
    {
      "inputs": [
        {
          "internalType": "int256",
          "name": "rewardAmount",
          "type": "int256"
        }
      ],
      "name": "distributeRewards",
      "outputs": [],
      "stateMutability": "nonpayable",
      "type": "function"
    },
    {
      "inputs": [
        {
          "internalType": "bytes32",
          "name": "role",
          "type": "bytes32"
        }
      ],
      "name": "getRoleAdmin",
      "outputs": [
        {
          "internalType": "bytes32",
          "name": "",
          "type": "bytes32"
        }
      ],
      "stateMutability": "view",
      "type": "function"
    },
    {
      "inputs": [
        {
          "internalType": "address",
          "name": "user",
          "type": "address"
        }
      ],
      "name": "getUserDepositIds",
      "outputs": [
        {
          "internalType": "uint256[]",
          "name": "",
          "type": "uint256[]"
        }
      ],
      "stateMutability": "view",
      "type": "function"
    },
    {
      "inputs": [
        {
          "internalType": "address",
          "name": "user",
          "type": "address"
        }
      ],
      "name": "getUserPendingDepositCount",
      "outputs": [
        {
          "internalType": "uint256",
          "name": "",
          "type": "uint256"
        }
      ],
      "stateMutability": "view",
      "type": "function"
    },
    {
      "inputs": [
        {
          "internalType": "address",
          "name": "user",
          "type": "address"
        }
      ],
      "name": "getUserPendingWithdrawalCount",
      "outputs": [
        {
          "internalType": "uint256",
          "name": "",
          "type": "uint256"
        }
      ],
      "stateMutability": "view",
      "type": "function"
    },
    {
      "inputs": [
        {
          "internalType": "address",
          "name": "user",
          "type": "address"
        }
      ],
      "name": "getUserWithdrawalIds",
      "outputs": [
        {
          "internalType": "uint256[]",
          "name": "",
          "type": "uint256[]"
        }
      ],
      "stateMutability": "view",
      "type": "function"
    },
    {
      "inputs": [
        {
          "internalType": "bytes32",
          "name": "role",
          "type": "bytes32"
        },
        {
          "internalType": "address",
          "name": "account",
          "type": "address"
        }
      ],
      "name": "grantRole",
      "outputs": [],
      "stateMutability": "nonpayable",
      "type": "function"
    },
    {
      "inputs": [
        {
          "internalType": "bytes32",
          "name": "role",
          "type": "bytes32"
        },
        {
          "internalType": "address",
          "name": "account",
          "type": "address"
        }
      ],
      "name": "hasRole",
      "outputs": [
        {
          "internalType": "bool",
          "name": "",
          "type": "bool"
        }
      ],
      "stateMutability": "view",
      "type": "function"
    },
    {
      "inputs": [
        {
          "internalType": "address",
          "name": "_stablecoin",
          "type": "address"
        },
        {
          "internalType": "address",
          "name": "_shareToken",
          "type": "address"
        },
        {
          "internalType": "address",
          "name": "_strategy",
          "type": "address"
        },
        {
          "internalType": "address",
          "name": "_treasury",
          "type": "address"
        }
      ],
      "name": "initialize",
      "outputs": [],
      "stateMutability": "nonpayable",
      "type": "function"
    },
    {
      "inputs": [],
      "name": "lastRewardDistribution",
      "outputs": [
        {
          "internalType": "uint256",
          "name": "",
          "type": "uint256"
        }
      ],
      "stateMutability": "view",
      "type": "function"
    },
    {
      "inputs": [],
      "name": "minDeposit",
      "outputs": [
        {
          "internalType": "uint256",
          "name": "",
          "type": "uint256"
        }
      ],
      "stateMutability": "view",
      "type": "function"
    },
    {
      "inputs": [],
      "name": "minWithdrawalShares",
      "outputs": [
        {
          "internalType": "uint256",
          "name": "",
          "type": "uint256"
        }
      ],
      "stateMutability": "view",
      "type": "function"
    },
    {
      "inputs": [],
      "name": "owner",
      "outputs": [
        {
          "internalType": "address",
          "name": "",
          "type": "address"
        }
      ],
      "stateMutability": "view",
      "type": "function"
    },
    {
      "inputs": [],
      "name": "paused",
      "outputs": [
        {
          "internalType": "bool",
          "name": "",
          "type": "bool"
        }
      ],
      "stateMutability": "view",
      "type": "function"
    },
    {
      "inputs": [
        {
          "internalType": "uint256[]",
          "name": "depositIds",
          "type": "uint256[]"
        }
      ],
      "name": "processDeposits",
      "outputs": [],
      "stateMutability": "nonpayable",
      "type": "function"
    },
    {
      "inputs": [],
      "name": "proxiableUUID",
      "outputs": [
        {
          "internalType": "bytes32",
          "name": "",
          "type": "bytes32"
        }
      ],
      "stateMutability": "view",
      "type": "function"
    },
    {
      "inputs": [],
      "name": "renounceOwnership",
      "outputs": [],
      "stateMutability": "nonpayable",
      "type": "function"
    },
    {
      "inputs": [
        {
          "internalType": "bytes32",
          "name": "role",
          "type": "bytes32"
        },
        {
          "internalType": "address",
          "name": "callerConfirmation",
          "type": "address"
        }
      ],
      "name": "renounceRole",
      "outputs": [],
      "stateMutability": "nonpayable",
      "type": "function"
    },
    {
      "inputs": [
        {
          "internalType": "uint256",
          "name": "amount",
          "type": "uint256"
        }
      ],
      "name": "requestDeposit",
      "outputs": [
        {
          "internalType": "uint256",
          "name": "",
          "type": "uint256"
        }
      ],
      "stateMutability": "nonpayable",
      "type": "function"
    },
    {
      "inputs": [
        {
          "internalType": "uint256",
          "name": "shares",
          "type": "uint256"
        }
      ],
      "name": "requestWithdrawal",
      "outputs": [
        {
          "internalType": "uint256",
          "name": "",
          "type": "uint256"
        }
      ],
      "stateMutability": "nonpayable",
      "type": "function"
    },
    {
      "inputs": [
        {
          "internalType": "bytes32",
          "name": "role",
          "type": "bytes32"
        },
        {
          "internalType": "address",
          "name": "account",
          "type": "address"
        }
      ],
      "name": "revokeRole",
      "outputs": [],
      "stateMutability": "nonpayable",
      "type": "function"
    },
    {
      "inputs": [
        {
          "internalType": "uint256",
          "name": "newFee",
          "type": "uint256"
        }
      ],
      "name": "setDepositFee",
      "outputs": [],
      "stateMutability": "nonpayable",
      "type": "function"
    },
    {
      "inputs": [
        {
          "internalType": "uint256",
          "name": "newMin",
          "type": "uint256"
        }
      ],
      "name": "setMinDeposit",
      "outputs": [],
      "stateMutability": "nonpayable",
      "type": "function"
    },
    {
      "inputs": [
        {
          "internalType": "uint256",
          "name": "newMin",
          "type": "uint256"
        }
      ],
      "name": "setMinWithdrawalShares",
      "outputs": [],
      "stateMutability": "nonpayable",
      "type": "function"
    },
    {
      "inputs": [
        {
          "internalType": "bool",
          "name": "_paused",
          "type": "bool"
        }
      ],
      "name": "setPaused",
      "outputs": [],
      "stateMutability": "nonpayable",
      "type": "function"
    },
    {
      "inputs": [
        {
          "internalType": "address",
          "name": "newStrategy",
          "type": "address"
        }
      ],
      "name": "setStrategy",
      "outputs": [],
      "stateMutability": "nonpayable",
      "type": "function"
    },
    {
      "inputs": [
        {
          "internalType": "address",
          "name": "newTreasury",
          "type": "address"
        }
      ],
      "name": "setTreasury",
      "outputs": [],
      "stateMutability": "nonpayable",
      "type": "function"
    },
    {
      "inputs": [
        {
          "internalType": "uint256",
          "name": "newFee",
          "type": "uint256"
        }
      ],
      "name": "setWithdrawalFee",
      "outputs": [],
      "stateMutability": "nonpayable",
      "type": "function"
    },
    {
      "inputs": [],
      "name": "shareToken",
      "outputs": [
        {
          "internalType": "contract VaultShareToken",
          "name": "",
          "type": "address"
        }
      ],
      "stateMutability": "view",
      "type": "function"
    },
    {
      "inputs": [],
      "name": "shareValue",
      "outputs": [
        {
          "internalType": "uint256",
          "name": "",
          "type": "uint256"
        }
      ],
      "stateMutability": "view",
      "type": "function"
    },
    {
      "inputs": [],
      "name": "stablecoin",
      "outputs": [
        {
          "internalType": "contract IERC20",
          "name": "",
          "type": "address"
        }
      ],
      "stateMutability": "view",
      "type": "function"
    },
    {
      "inputs": [],
      "name": "strategy",
      "outputs": [
        {
          "internalType": "address",
          "name": "",
          "type": "address"
        }
      ],
      "stateMutability": "view",
      "type": "function"
    },
    {
      "inputs": [
        {
          "internalType": "bytes4",
          "name": "interfaceId",
          "type": "bytes4"
        }
      ],
      "name": "supportsInterface",
      "outputs": [
        {
          "internalType": "bool",
          "name": "",
          "type": "bool"
        }
      ],
      "stateMutability": "view",
      "type": "function"
    },
    {
      "inputs": [],
      "name": "totalDeposited",
      "outputs": [
        {
          "internalType": "uint256",
          "name": "",
          "type": "uint256"
        }
      ],
      "stateMutability": "view",
      "type": "function"
    },
    {
      "inputs": [],
      "name": "totalPendingWithdrawalShares",
      "outputs": [
        {
          "internalType": "uint256",
          "name": "",
          "type": "uint256"
        }
      ],
      "stateMutability": "view",
      "type": "function"
    },
    {
      "inputs": [],
      "name": "totalSharesWithdrawn",
      "outputs": [
        {
          "internalType": "uint256",
          "name": "",
          "type": "uint256"
        }
      ],
      "stateMutability": "view",
      "type": "function"
    },
    {
      "inputs": [],
      "name": "totalUsdWithdrawn",
      "outputs": [
        {
          "internalType": "uint256",
          "name": "",
          "type": "uint256"
        }
      ],
      "stateMutability": "view",
      "type": "function"
    },
    {
      "inputs": [],
      "name": "totalVaultValue",
      "outputs": [
        {
          "internalType": "uint256",
          "name": "",
          "type": "uint256"
        }
      ],
      "stateMutability": "view",
      "type": "function"
    },
    {
      "inputs": [
        {
          "internalType": "address",
          "name": "newOwner",
          "type": "address"
        }
      ],
      "name": "transferOwnership",
      "outputs": [],
      "stateMutability": "nonpayable",
      "type": "function"
    },
    {
      "inputs": [],
      "name": "treasury",
      "outputs": [
        {
          "internalType": "address",
          "name": "",
          "type": "address"
        }
      ],
      "stateMutability": "view",
      "type": "function"
    },
    {
      "inputs": [
        {
          "internalType": "address",
          "name": "newImplementation",
          "type": "address"
        },
        {
          "internalType": "bytes",
          "name": "data",
          "type": "bytes"
        }
      ],
      "name": "upgradeToAndCall",
      "outputs": [],
      "stateMutability": "payable",
      "type": "function"
    },
    {
      "inputs": [
        {
          "internalType": "address",
          "name": "",
          "type": "address"
        },
        {
          "internalType": "uint256",
          "name": "",
          "type": "uint256"
        }
      ],
      "name": "userDepositIds",
      "outputs": [
        {
          "internalType": "uint256",
          "name": "",
          "type": "uint256"
        }
      ],
      "stateMutability": "view",
      "type": "function"
    },
    {
      "inputs": [
        {
          "internalType": "address",
          "name": "",
          "type": "address"
        },
        {
          "internalType": "uint256",
          "name": "",
          "type": "uint256"
        }
      ],
      "name": "userWithdrawalIds",
      "outputs": [
        {
          "internalType": "uint256",
          "name": "",
          "type": "uint256"
        }
      ],
      "stateMutability": "view",
      "type": "function"
    },
    {
      "inputs": [
        {
          "internalType": "uint256",
          "name": "amount",
          "type": "uint256"
        }
      ],
      "name": "withdrawFromStrategy",
      "outputs": [],
      "stateMutability": "nonpayable",
      "type": "function"
    },
    {
      "inputs": [],
      "name": "withdrawalFee",
      "outputs": [
        {
          "internalType": "uint256",
          "name": "",
          "type": "uint256"
        }
      ],
      "stateMutability": "view",
      "type": "function"
    },
    {
      "inputs": [],
      "name": "withdrawalIdCounter",
      "outputs": [
        {
          "internalType": "uint256",
          "name": "",
          "type": "uint256"
        }
      ],
      "stateMutability": "view",
      "type": "function"
    },
    {
      "inputs": [
        {
          "internalType": "uint256",
          "name": "",
          "type": "uint256"
        }
      ],
      "name": "withdrawals",
      "outputs": [
        {
          "internalType": "address",
          "name": "user",
          "type": "address"
        },
        {
          "internalType": "uint256",
          "name": "shares",
          "type": "uint256"
        },
        {
          "internalType": "uint256",
          "name": "requestedAt",
          "type": "uint256"
        },
        {
          "internalType": "uint256",
          "name": "canBeApprovedAt",
          "type": "uint256"
        }
      ],
      "stateMutability": "view",
      "type": "function"
    }
  ],
  "bytecode": "0x60a0604052306080523480156200001557600080fd5b506200002062000026565b620000da565b7ff0c57e16840df040f15088dc2f81fe391c3923bec73e23a9662efc9c229c6a00805468010000000000000000900460ff1615620000775760405163f92ee8a960e01b815260040160405180910390fd5b80546001600160401b0390811614620000d75780546001600160401b0319166001600160401b0390811782556040519081527fc7f505b2f371ae2175ee4913f4499e1f2633a7b5936321eed1cdaeb6115181d29060200160405180910390a15b50565b60805161396a6200010460003960008181612e4901528181612e720152612fd5015261396a6000f3fe6080604052600436106103a25760003560e01c806388fa6455116101e7578063c1faad381161010d578063dcbaa82d116100a0578063f2fde38b1161006f578063f2fde38b14610b45578063f72c0d8b14610b65578063f8c8765e14610b99578063ff50abdc14610bb957600080fd5b8063dcbaa82d14610acf578063e086d09814610ae5578063e9cbd82214610b05578063f0f4426014610b2557600080fd5b8063d4e4487d116100dc578063d4e4487d14610a4f578063d547741f14610a6f578063d623662814610a8f578063d7779e9814610aaf57600080fd5b8063c1faad38146109cc578063c4f67264146109f9578063c92b6ed2146107a4578063d33b0aa714610a2f57600080fd5b80639ee679e811610185578063ad3cb1cc11610154578063ad3cb1cc146108f7578063afbc74b914610935578063b02c43d01461094b578063b0cd9cff146109b657600080fd5b80639ee679e814610882578063a217fddf146108a2578063a8c62e76146108b7578063ac1e5025146108d757600080fd5b80638fcc9cfb116101c15780638fcc9cfb1461080c57806391d148541461082c57806395197e6d1461084c57806397298e901461086257600080fd5b806388fa6455146107a45780638bc7e8c4146107b95780638da5cb5b146107cf57600080fd5b8063490ae210116102cc5780635cc070761161026a5780636c9fa59e116102395780636c9fa59e14610737578063715018a61461075757806375b238fc1461076c57806383d5b7cc1461078e57600080fd5b80635cc070761461065357806361d027b3146106c957806365eddbb11461070157806367a527931461072157600080fd5b806352d1902d116102a657806352d1902d146105e3578063533573fe146105f85780635c24b8ad1461060e5780635c975abb1461062e57600080fd5b8063490ae2101461059a5780634f1ef286146105ba5780634ffee068146105cd57600080fd5b80632e1fdea31161034457806341b3d1851161031357806341b3d18514610539578063427e40421461054f578063447b15f41461056557806348b193351461057a57600080fd5b80632e1fdea3146104a35780632f2ff15d146104d957806333a100ca146104f957806336568abe1461051957600080fd5b806316c38b3c1161038057806316c38b3c1461042157806323957cd114610443578063248a9ca3146104635780632dd2f1371461048357600080fd5b806301ffc9a7146103a75780630d1e6667146103dc5780630ebb172a1461040a575b600080fd5b3480156103b357600080fd5b506103c76103c2366004613434565b610bcf565b60405190151581526020015b60405180910390f35b3480156103e857600080fd5b506103fc6103f736600461345e565b610c06565b6040519081526020016103d3565b34801561041657600080fd5b506103fc62093a8081565b34801561042d57600080fd5b5061044161043c366004613477565b610e89565b005b34801561044f57600080fd5b5061044161045e36600461345e565b610eaa565b34801561046f57600080fd5b506103fc61047e36600461345e565b610f8f565b34801561048f57600080fd5b5061044161049e366004613499565b610fb1565b3480156104af57600080fd5b506103fc6104be366004613525565b6001600160a01b03166000908152600f602052604090205490565b3480156104e557600080fd5b506104416104f4366004613540565b61130f565b34801561050557600080fd5b50610441610514366004613525565b611331565b34801561052557600080fd5b50610441610534366004613540565b6113d5565b34801561054557600080fd5b506103fc60125481565b34801561055b57600080fd5b506103fc600b5481565b34801561057157600080fd5b506103fc611408565b34801561058657600080fd5b5061044161059536600461345e565b6114d1565b3480156105a657600080fd5b506104416105b536600461345e565b611595565b6104416105c8366004613582565b61161e565b3480156105d957600080fd5b506103fc60095481565b3480156105ef57600080fd5b506103fc611639565b34801561060457600080fd5b506103fc60055481565b34801561061a57600080fd5b506103fc61062936600461345e565b611656565b34801561063a57600080fd5b506000805160206138d58339815191525460ff166103c7565b34801561065f57600080fd5b5061069f61066e36600461345e565b600d6020526000908152604090208054600182015460028301546003909301546001600160a01b0390921692909184565b604080516001600160a01b03909516855260208501939093529183015260608201526080016103d3565b3480156106d557600080fd5b506002546106e9906001600160a01b031681565b6040516001600160a01b0390911681526020016103d3565b34801561070d57600080fd5b506103fc61071c366004613644565b611676565b34801561072d57600080fd5b506103fc60105481565b34801561074357600080fd5b506001546106e9906001600160a01b031681565b34801561076357600080fd5b506104416116a7565b34801561077857600080fd5b506103fc60008051602061391583398151915281565b34801561079a57600080fd5b506103fc60065481565b3480156107b057600080fd5b506103fc600381565b3480156107c557600080fd5b506103fc60115481565b3480156107db57600080fd5b507f9016d09d72d40fdae2fd8ceac6b6234c7706214fd39c1cd1e609a0528c199300546001600160a01b03166106e9565b34801561081857600080fd5b5061044161082736600461345e565b6116bb565b34801561083857600080fd5b506103c7610847366004613540565b61178e565b34801561085857600080fd5b506103fc60135481565b34801561086e57600080fd5b5061044161087d366004613499565b6117c6565b34801561088e57600080fd5b506103fc61089d36600461345e565b611d71565b3480156108ae57600080fd5b506103fc600081565b3480156108c357600080fd5b506003546106e9906001600160a01b031681565b3480156108e357600080fd5b506104416108f236600461345e565b6121c1565b34801561090357600080fd5b50610928604051806040016040528060058152602001640352e302e360dc1b81525081565b6040516103d39190613692565b34801561094157600080fd5b506103fc60045481565b34801561095757600080fd5b5061099161096636600461345e565b600c602052600090815260409020805460018201546002909201546001600160a01b03909116919083565b604080516001600160a01b0390941684526020840192909252908201526060016103d3565b3480156109c257600080fd5b506103fc60075481565b3480156109d857600080fd5b506109ec6109e7366004613525565b61224a565b6040516103d391906136c5565b348015610a0557600080fd5b506103fc610a14366004613525565b6001600160a01b03166000908152600e602052604090205490565b348015610a3b57600080fd5b50610441610a4a36600461345e565b6122b6565b348015610a5b57600080fd5b506109ec610a6a366004613525565b61240f565b348015610a7b57600080fd5b50610441610a8a366004613540565b612479565b348015610a9b57600080fd5b506103fc610aaa366004613644565b612495565b348015610abb57600080fd5b50610441610aca36600461345e565b6124b1565b348015610adb57600080fd5b506103fc600a5481565b348015610af157600080fd5b506103fc610b0036600461345e565b6125af565b348015610b1157600080fd5b506000546106e9906001600160a01b031681565b348015610b3157600080fd5b50610441610b40366004613525565b6125cf565b348015610b5157600080fd5b50610441610b60366004613525565b612673565b348015610b7157600080fd5b506103fc7f189ab7a9244df0848122154315af71fe140f3db0fe014031783b0946b8c9d2e381565b348015610ba557600080fd5b50610441610bb4366004613709565b6126ae565b348015610bc557600080fd5b506103fc60085481565b60006001600160e01b03198216637965db0b60e01b1480610c0057506301ffc9a760e01b6001600160e01b03198316145b92915050565b6000610c10612a36565b610c18612a67565b60008211610c415760405162461bcd60e51b8152600401610c389061375d565b60405180910390fd5b601254821015610c8b5760405162461bcd60e51b81526020600482015260156024820152744465706f7369742062656c6f77206d696e696d756d60581b6044820152606401610c38565b336000908152600e6020526040902054600311610cea5760405162461bcd60e51b815260206004820152601c60248201527f4d61782070656e64696e67206465706f736974732072656163686564000000006044820152606401610c38565b600054610d02906001600160a01b0316333085612a9f565b600254601054600054610d23926001600160a01b0391821692911690612b06565b60025460105460408051918252602082018190526007828201526619195c1bdcda5d60ca1b6060830152516001600160a01b03909216917fdb23cba216bfaed89070d2734596f2ee2a163099cfc4f5ef32036debc97922269181900360800190a2600060105483610d94919061379f565b600580549192506000919082610da9836137b2565b909155506040805160608082018352338083526020808401888152428587018181526000898152600c8552888120975188546001600160a01b0319166001600160a01b0390911617885592516001808901919091559051600290970196909655838252600e835286822080549687018155825290829020909401869055601054855189815291820152938401929092529293509183917f6a9e5347542ffc3c79f09aa1727184e58a17b05edb3d98635ee72005b6e4833f910160405180910390a3915050610e8460016000805160206138f583398151915255565b919050565b610e91612b4b565b8015610ea257610e9f612ba6565b50565b610e9f612c09565b610eb2612b4b565b670de0b6b3a7640000811015610efc5760405162461bcd60e51b815260206004820152600f60248201526e4d696e696d756d20746f6f206c6f7760881b6044820152606401610c38565b69021e19e0c9bab2400000811115610f495760405162461bcd60e51b815260206004820152601060248201526f09ad2dcd2daeada40e8dede40d0d2ced60831b6044820152606401610c38565b601380549082905560408051828152602081018490527f0f13780188866ed0bdc6d235407efdc20b7f1212b401123d008802063a2feb2391015b60405180910390a15050565b60009081526000805160206138b5833981519152602052604090206001015490565b600080516020613915833981519152610fc981612c4f565b610fd1612a67565b816110175760405162461bcd60e51b81526020600482015260166024820152754e6f206465706f7369747320746f2070726f6365737360501b6044820152606401610c38565b6000611021611408565b905060005b838110156112f1576000858583818110611042576110426137cb565b90506020020135905060055481106110915760405162461bcd60e51b8152602060048201526012602482015271125b9d985b1a590819195c1bdcda5d08125160721b6044820152606401610c38565b6000818152600c6020908152604091829020825160608101845281546001600160a01b0316808252600183015493820193909352600290910154928101929092526110dd5750506112e9565b600154604080516318160ddd60e01b815290516000926001600160a01b0316916318160ddd9160048083019260209291908290030181865afa158015611127573d6000803e3d6000fd5b505050506040513d601f19601f8201168201806040525081019061114b91906137e1565b60000361116d5760208201516111669064e8d4a510006137fa565b90506111a2565b84826020015164e8d4a5100061118391906137fa565b61119590670de0b6b3a76400006137fa565b61119f9190613811565b90505b60015482516040516340c10f1960e01b81526001600160a01b039182166004820152602481018490529116906340c10f1990604401600060405180830381600087803b1580156111f157600080fd5b505af1158015611205573d6000803e3d6000fd5b5050505081602001516004600082825461121f9190613833565b90915550506020820151600054611243916001600160a01b03909116903390612b06565b8160200151600860008282546112599190613833565b9091555050815160208084015160408051918252918101849052428183015290516001600160a01b039092169185917fc2ef66f482a31770499b1f76197e6436fe38f18c554fbc45b71b76fea3fca4bd919081900360600190a381516112bf9084612c59565b50506000908152600c6020526040812080546001600160a01b031916815560018101829055600201555b600101611026565b505061130a60016000805160206138f583398151915255565b505050565b61131882610f8f565b61132181612c4f565b61132b8383612d1d565b50505050565b611339612b4b565b806001600160a01b0381166113825760405162461bcd60e51b815260206004820152600f60248201526e496e76616c6964206164647265737360881b6044820152606401610c38565b600380546001600160a01b038481166001600160a01b0319831681179093556040519116919082907fe4cec16b1a7e6b7979e923da619a8b1e5fd0f0fb6e5c1cf647f350430ee61ca990600090a3505050565b6001600160a01b03811633146113fe5760405163334bd91960e11b815260040160405180910390fd5b61130a8282612dc2565b600080600160009054906101000a90046001600160a01b03166001600160a01b03166318160ddd6040518163ffffffff1660e01b8152600401602060405180830381865afa15801561145e573d6000803e3d6000fd5b505050506040513d601f19601f8201168201806040525081019061148291906137e1565b90508060000361149b57670de0b6b3a764000091505090565b8060045464e8d4a510006114af91906137fa565b6114c190670de0b6b3a76400006137fa565b6114cb9190613811565b91505090565b6000805160206139158339815191526114e981612c4f565b6114f1612a67565b6003546001600160a01b031661153c5760405162461bcd60e51b815260206004820152601060248201526f14dd1c985d1959de481b9bdd081cd95d60821b6044820152606401610c38565b6000821161155c5760405162461bcd60e51b8152600401610c389061375d565b60035460005461157a916001600160a01b0391821691163085612a9f565b61159160016000805160206138f583398151915255565b5050565b61159d612b4b565b6305f5e1008111156115e05760405162461bcd60e51b815260206004820152600c60248201526b08ccaca40e8dede40d0d2ced60a31b6044820152606401610c38565b601080549082905560408051828152602081018490527f828cf983933545af35b9ba46eec951db1cb4c5433c3ec403aeced2963c2647909101610f83565b611626612e3e565b61162f82612ee3565b6115918282612f0d565b6000611643612fca565b5060008051602061389583398151915290565b6000601154821161166957506000919050565b601154610c00908361379f565b600f602052816000526040600020818154811061169257600080fd5b90600052602060002001600091509150505481565b6116af612b4b565b6116b96000613013565b565b6116c3612b4b565b620f42408110156117085760405162461bcd60e51b815260206004820152600f60248201526e4d696e696d756d20746f6f206c6f7760881b6044820152606401610c38565b6402540be4008111156117505760405162461bcd60e51b815260206004820152601060248201526f09ad2dcd2daeada40e8dede40d0d2ced60831b6044820152606401610c38565b601280549082905560408051828152602081018490527fb566d3df2587c9e70b06b6419bdeeeeec8ca8cd60e4c48c6baad0d94c46809c79101610f83565b60009182526000805160206138b5833981519152602090815260408084206001600160a01b0393909316845291905290205460ff1690565b6000805160206139158339815191526117de81612c4f565b6117e6612a67565b816118335760405162461bcd60e51b815260206004820152601960248201527f4e6f207769746864726177616c7320746f2070726f63657373000000000000006044820152606401610c38565b60008061183e611408565b905060005b8481101561199d57600086868381811061185f5761185f6137cb565b90506020020135905060065481106118b15760405162461bcd60e51b8152602060048201526015602482015274125b9d985b1a59081dda5d1a191c985dd85b081251605a1b6044820152606401610c38565b6000818152600d6020908152604091829020825160808101845281546001600160a01b0316808252600183015493820193909352600282015493810193909352600301546060830152611905575050611995565b80606001514210156119595760405162461bcd60e51b815260206004820152601860248201527f5769746864726177616c2064656c6179206e6f74206d657400000000000000006044820152606401610c38565b60006c0c9f2c9cd04674edea4000000085836020015161197991906137fa565b6119839190613811565b905061198f8187613833565b95505050505b600101611843565b5081156119bc576000546119bc906001600160a01b0316333085612a9f565b60005b84811015611d575760008686838181106119db576119db6137cb565b602090810292909201356000818152600d8452604090819020815160808101835281546001600160a01b0316808252600183015496820196909652600282015492810192909252600301546060820152909350919050611a3c575050611d4f565b60006c0c9f2c9cd04674edea40000000858360200151611a5c91906137fa565b611a669190613811565b90506011548111611ab95760405162461bcd60e51b815260206004820152601b60248201527f5769746864726177616c20616d6f756e7420746f6f20736d616c6c00000000006044820152606401610c38565b600060115482611ac9919061379f565b600254601154600054929350611aec926001600160a01b03908116921690612b06565b6002546011546040805191825260208201819052600a82820152691dda5d1a191c985dd85b60b21b6060830152516001600160a01b03909216917fdb23cba216bfaed89070d2734596f2ee2a163099cfc4f5ef32036debc97922269181900360800190a28251600054611b6b916001600160a01b039091169083612b06565b60015483516020850151604051632770a7eb60e21b81526001600160a01b0392831660048201526024810191909152911690639dc29fac90604401600060405180830381600087803b158015611bc057600080fd5b505af1158015611bd4573d6000803e3d6000fd5b5050600154855160208701516040516303b233ed60e51b81526001600160a01b0392831660048201526024810191909152911692506376467da09150604401600060405180830381600087803b158015611c2d57600080fd5b505af1158015611c41573d6000803e3d6000fd5b505050508160046000828254611c57919061379f565b90915550506020830151600b8054600090611c7390849061379f565b9091555050602083015160098054600090611c8f908490613833565b9250508190555081600a6000828254611ca89190613833565b90915550508251602080850151601154604080519283529282018a9052818301869052606082015242608082015290516001600160a01b039092169186917fa1965f472fbc245e52ffff7e8714c6b331a346e1418d9836bd924ff32d48fac5919081900360a00190a38251611d1d9085613084565b5050506000908152600d6020526040812080546001600160a01b03191681556001810182905560028101829055600301555b6001016119bf565b50505061130a60016000805160206138f583398151915255565b6000611d7b612a36565b611d83612a67565b60008211611dc85760405162461bcd60e51b81526020600482015260126024820152710536861726573206d757374206265203e20360741b6044820152606401610c38565b601354821015611e1a5760405162461bcd60e51b815260206004820152601860248201527f5769746864726177616c2062656c6f77206d696e696d756d00000000000000006044820152606401610c38565b336000908152600f6020526040902054600311611e795760405162461bcd60e51b815260206004820152601f60248201527f4d61782070656e64696e67207769746864726177616c732072656163686564006044820152606401610c38565b6001546040516370a0823160e01b815233600482015283916001600160a01b0316906370a0823190602401602060405180830381865afa158015611ec1573d6000803e3d6000fd5b505050506040513d601f19601f82011682018060405250810190611ee591906137e1565b1015611f295760405162461bcd60e51b8152602060048201526013602482015272496e73756666696369656e742073686172657360681b6044820152606401610c38565b60015460405163ed666d2f60e01b815233600482015283916001600160a01b03169063ed666d2f90602401602060405180830381865afa158015611f71573d6000803e3d6000fd5b505050506040513d601f19601f82011682018060405250810190611f9591906137e1565b1015611fe35760405162461bcd60e51b815260206004820152601d60248201527f496e73756666696369656e7420617661696c61626c65207368617265730000006044820152606401610c38565b60015460405162bf7e8960e31b8152336004820152602481018490526001600160a01b03909116906305fbf44890604401600060405180830381600087803b15801561202e57600080fd5b505af1158015612042573d6000803e3d6000fd5b5050505081600b60008282546120589190613833565b9091555060009050612068611408565b905060006c0c9f2c9cd04674edea4000000061208483866137fa565b61208e9190613811565b6006805491925060009190826120a3836137b2565b9190505590506040518060800160405280336001600160a01b0316815260200186815260200142815260200162093a80426120de9190613833565b90526000828152600d60209081526040808320845181546001600160a01b0319166001600160a01b039091161781558483015160018083019190915585830151600283015560609095015160039091015533808452600f83529083208054948501815583529120909101829055817fda8cf62f5868109ec17d28336a4f3baa4dcec549a4ef6f99dd1d5eb638af08c887868661217d62093a8042613833565b60408051948552602085019390935291830152606082015242608082015260a00160405180910390a392505050610e8460016000805160206138f583398151915255565b6121c9612b4b565b6305f5e10081111561220c5760405162461bcd60e51b815260206004820152600c60248201526b08ccaca40e8dede40d0d2ced60a31b6044820152606401610c38565b601180549082905560408051828152602081018490527f72aa1ef4707dfa7defd1468e6ffc70bf9517ce19e3afad93fcf4be42f2d494f59101610f83565b6001600160a01b0381166000908152600f60209081526040918290208054835181840281018401909452808452606093928301828280156122aa57602002820191906000526020600020905b815481526020019060010190808311612296575b50505050509050919050565b6000805160206139158339815191526122ce81612c4f565b6122d6612a67565b6003546001600160a01b03166123215760405162461bcd60e51b815260206004820152601060248201526f14dd1c985d1959de481b9bdd081cd95d60821b6044820152606401610c38565b600082116123415760405162461bcd60e51b8152600401610c389061375d565b6000546040516370a0823160e01b815230600482015283916001600160a01b0316906370a0823190602401602060405180830381865afa158015612389573d6000803e3d6000fd5b505050506040513d601f19601f820116820180604052508101906123ad91906137e1565b10156123f25760405162461bcd60e51b8152602060048201526014602482015273496e73756666696369656e742062616c616e636560601b6044820152606401610c38565b60035460005461157a916001600160a01b03918216911684612b06565b6001600160a01b0381166000908152600e60209081526040918290208054835181840281018401909452808452606093928301828280156122aa57602002820191906000526020600020908154815260200190600101908083116122965750505050509050919050565b61248282610f8f565b61248b81612c4f565b61132b8383612dc2565b600e602052816000526040600020818154811061169257600080fd5b6000805160206139158339815191526124c981612c4f565b600082121561254f5760006124dd83613846565b90506004548111156125315760405162461bcd60e51b815260206004820152601860248201527f4c6f73732065786365656473207661756c742076616c756500000000000000006044820152606401610c38565b8060046000828254612543919061379f565b90915550612567915050565b81600460008282546125619190613833565b90915550505b4260078190556004546040805185815260208101929092528101919091527f14bd41440477d723cf5d214434669e5e4af5d3106bdc7ba6414c382d7328405890606001610f83565b600060105482116125c257506000919050565b601054610c00908361379f565b6125d7612b4b565b806001600160a01b0381166126205760405162461bcd60e51b815260206004820152600f60248201526e496e76616c6964206164647265737360881b6044820152606401610c38565b600280546001600160a01b038481166001600160a01b0319831681179093556040519116919082907f4ab5be82436d353e61ca18726e984e561f5c1cc7c6d38b29d2553c790434705a90600090a3505050565b61267b612b4b565b6001600160a01b0381166126a557604051631e4fbdf760e01b815260006004820152602401610c38565b610e9f81613013565b60006126b86130e2565b805490915060ff600160401b820416159067ffffffffffffffff166000811580156126e05750825b905060008267ffffffffffffffff1660011480156126fd5750303b155b90508115801561270b575080155b156127295760405163f92ee8a960e01b815260040160405180910390fd5b845467ffffffffffffffff19166001178555831561275357845460ff60401b1916600160401b1785555b6001600160a01b0389166127a95760405162461bcd60e51b815260206004820152601a60248201527f496e76616c696420737461626c65636f696e20616464726573730000000000006044820152606401610c38565b6001600160a01b0388166127ff5760405162461bcd60e51b815260206004820152601b60248201527f496e76616c696420736861726520746f6b656e206164647265737300000000006044820152606401610c38565b6001600160a01b0387166128555760405162461bcd60e51b815260206004820152601860248201527f496e76616c6964207374726174656779206164647265737300000000000000006044820152606401610c38565b6001600160a01b0386166128ab5760405162461bcd60e51b815260206004820152601860248201527f496e76616c6964207472656173757279206164647265737300000000000000006044820152606401610c38565b6128b43361310b565b6128bc61311c565b6128c461311c565b6128cc613124565b6128d461311c565b600080546001600160a01b03808c166001600160a01b0319928316178355600180548c8316908416179055600380548b831690841617905560028054918a16919092161790556129249033612d1d565b5061293d60008051602061391583398151915233612d1d565b506129687f189ab7a9244df0848122154315af71fe140f3db0fe014031783b0946b8c9d2e333612d1d565b50426007819055620f424060108190556011556305f5e10060125568056bc75e2d63100000601355604080516001600160a01b038b811682528981166020830152818301939093529051898316928c169130917f59fbf569e13224f023993109b7bc20408873be1498dfe4494b6061367e924c969181900360600190a48315612a2b57845460ff60401b19168555604051600181527fc7f505b2f371ae2175ee4913f4499e1f2633a7b5936321eed1cdaeb6115181d29060200160405180910390a15b505050505050505050565b6000805160206138d58339815191525460ff16156116b95760405163d93c066560e01b815260040160405180910390fd5b6000805160206138f5833981519152805460011901612a9957604051633ee5aeb560e01b815260040160405180910390fd5b60029055565b6040516001600160a01b03848116602483015283811660448301526064820183905261132b9186918216906323b872dd906084015b604051602081830303815290604052915060e01b6020820180516001600160e01b038381831617835250505050613134565b6040516001600160a01b0383811660248301526044820183905261130a91859182169063a9059cbb90606401612ad4565b60016000805160206138f583398151915255565b33612b7d7f9016d09d72d40fdae2fd8ceac6b6234c7706214fd39c1cd1e609a0528c199300546001600160a01b031690565b6001600160a01b0316146116b95760405163118cdaa760e01b8152336004820152602401610c38565b612bae612a36565b6000805160206138d5833981519152805460ff191660011781557f62e78cea01bee320cd4e420270b5ea74000d11b0c9f74754ebdbfc544b05a258335b6040516001600160a01b03909116815260200160405180910390a150565b612c116131a5565b6000805160206138d5833981519152805460ff191681557f5db9ee0a495bf2e6ff9c91a7834c1ba4fdd244a5e8aa4e537bd38aeae4b073aa33612beb565b610e9f81336131d5565b6001600160a01b0382166000908152600e60205260408120905b815481101561132b5782828281548110612c8f57612c8f6137cb565b906000526020600020015403612d155781548290612caf9060019061379f565b81548110612cbf57612cbf6137cb565b9060005260206000200154828281548110612cdc57612cdc6137cb565b906000526020600020018190555081805480612cfa57612cfa613862565b6001900381819060005260206000200160009055905561132b565b600101612c73565b60006000805160206138b5833981519152612d38848461178e565b612db8576000848152602082815260408083206001600160a01b03871684529091529020805460ff19166001179055612d6e3390565b6001600160a01b0316836001600160a01b0316857f2f8788117e7eff1d82e926ec794901d17c78024a50270940304540a733656f0d60405160405180910390a46001915050610c00565b6000915050610c00565b60006000805160206138b5833981519152612ddd848461178e565b15612db8576000848152602082815260408083206001600160a01b0387168085529252808320805460ff1916905551339287917ff6391f5c32d9c69d2a47ea670b442974b53935d1edc7fd64eb21e047a839171b9190a46001915050610c00565b306001600160a01b037f0000000000000000000000000000000000000000000000000000000000000000161480612ec557507f00000000000000000000000000000000000000000000000000000000000000006001600160a01b0316612eb9600080516020613895833981519152546001600160a01b031690565b6001600160a01b031614155b156116b95760405163703e46dd60e11b815260040160405180910390fd5b7f189ab7a9244df0848122154315af71fe140f3db0fe014031783b0946b8c9d2e361159181612c4f565b816001600160a01b03166352d1902d6040518163ffffffff1660e01b8152600401602060405180830381865afa925050508015612f67575060408051601f3d908101601f19168201909252612f64918101906137e1565b60015b612f8f57604051634c9c8ce360e01b81526001600160a01b0383166004820152602401610c38565b6000805160206138958339815191528114612fc057604051632a87526960e21b815260048101829052602401610c38565b61130a838361320e565b306001600160a01b037f000000000000000000000000000000000000000000000000000000000000000016146116b95760405163703e46dd60e11b815260040160405180910390fd5b7f9016d09d72d40fdae2fd8ceac6b6234c7706214fd39c1cd1e609a0528c19930080546001600160a01b031981166001600160a01b03848116918217845560405192169182907f8be0079c531659141344cd1fd0a4f28419497f9722a3daafe3b4186f6b6457e090600090a3505050565b6001600160a01b0382166000908152600f60205260408120905b815481101561132b57828282815481106130ba576130ba6137cb565b9060005260206000200154036130da5781548290612caf9060019061379f565b60010161309e565b6000807ff0c57e16840df040f15088dc2f81fe391c3923bec73e23a9662efc9c229c6a00610c00565b613113613264565b610e9f81613289565b6116b9613264565b61312c613264565b6116b9613291565b600080602060008451602086016000885af180613157576040513d6000823e3d81fd5b50506000513d9150811561316f57806001141561317c565b6001600160a01b0384163b155b1561132b57604051635274afe760e01b81526001600160a01b0385166004820152602401610c38565b6000805160206138d58339815191525460ff166116b957604051638dfc202b60e01b815260040160405180910390fd5b6131df828261178e565b6115915760405163e2517d3f60e01b81526001600160a01b038216600482015260248101839052604401610c38565b61321782613299565b6040516001600160a01b038316907fbc7cd75a20ee27fd9adebab32041f755214dbc6bffa90cc0225b39da2e5c2d3b90600090a280511561325c5761130a82826132fe565b611591613374565b61326c613393565b6116b957604051631afcd79f60e31b815260040160405180910390fd5b61267b613264565b612b37613264565b806001600160a01b03163b6000036132cf57604051634c9c8ce360e01b81526001600160a01b0382166004820152602401610c38565b60008051602061389583398151915280546001600160a01b0319166001600160a01b0392909216919091179055565b6060600080846001600160a01b03168460405161331b9190613878565b600060405180830381855af49150503d8060008114613356576040519150601f19603f3d011682016040523d82523d6000602084013e61335b565b606091505b509150915061336b8583836133ad565b95945050505050565b34156116b95760405163b398979f60e01b815260040160405180910390fd5b600061339d6130e2565b54600160401b900460ff16919050565b6060826133c2576133bd8261340c565b613405565b81511580156133d957506001600160a01b0384163b155b1561340257604051639996b31560e01b81526001600160a01b0385166004820152602401610c38565b50805b9392505050565b80511561341b57805160208201fd5b60405163d6bda27560e01b815260040160405180910390fd5b60006020828403121561344657600080fd5b81356001600160e01b03198116811461340557600080fd5b60006020828403121561347057600080fd5b5035919050565b60006020828403121561348957600080fd5b8135801515811461340557600080fd5b600080602083850312156134ac57600080fd5b823567ffffffffffffffff808211156134c457600080fd5b818501915085601f8301126134d857600080fd5b8135818111156134e757600080fd5b8660208260051b85010111156134fc57600080fd5b60209290920196919550909350505050565b80356001600160a01b0381168114610e8457600080fd5b60006020828403121561353757600080fd5b6134058261350e565b6000806040838503121561355357600080fd5b823591506135636020840161350e565b90509250929050565b634e487b7160e01b600052604160045260246000fd5b6000806040838503121561359557600080fd5b61359e8361350e565b9150602083013567ffffffffffffffff808211156135bb57600080fd5b818501915085601f8301126135cf57600080fd5b8135818111156135e1576135e161356c565b604051601f8201601f19908116603f011681019083821181831017156136095761360961356c565b8160405282815288602084870101111561362257600080fd5b8260208601602083013760006020848301015280955050505050509250929050565b6000806040838503121561365757600080fd5b6136608361350e565b946020939093013593505050565b60005b83811015613689578181015183820152602001613671565b50506000910152565b60208152600082518060208401526136b181604085016020870161366e565b601f01601f19169190910160400192915050565b6020808252825182820181905260009190848201906040850190845b818110156136fd578351835292840192918401916001016136e1565b50909695505050505050565b6000806000806080858703121561371f57600080fd5b6137288561350e565b93506137366020860161350e565b92506137446040860161350e565b91506137526060860161350e565b905092959194509250565b6020808252601290820152710416d6f756e74206d757374206265203e20360741b604082015260600190565b634e487b7160e01b600052601160045260246000fd5b81810381811115610c0057610c00613789565b6000600182016137c4576137c4613789565b5060010190565b634e487b7160e01b600052603260045260246000fd5b6000602082840312156137f357600080fd5b5051919050565b8082028115828204841417610c0057610c00613789565b60008261382e57634e487b7160e01b600052601260045260246000fd5b500490565b80820180821115610c0057610c00613789565b6000600160ff1b820161385b5761385b613789565b5060000390565b634e487b7160e01b600052603160045260246000fd5b6000825161388a81846020870161366e565b919091019291505056fe360894a13ba1a3210667c828492db98dca3e2076cc3735a920a3ca505d382bbc02dd7bc7dec4dceedda775e58dd541e08a116c6c53815c0bd028192f7b626800cd5ed15c6e187e77e9aee88184c21f4f2182ab5827cb3b7e07fbedcd63f033009b779b17422d0df92223018b32b4d1fa46e071723d6817e2486d003becc55f00a49807205ce4d355092ef5a8a18f56e8913cf4a201fbe287825b095693c21775a2646970667358221220c46ac061effd5e47d9871338866c60554dcfb285ea5e355a93a7ed71bb7416d864736f6c63430008180033",
  "linkReferences": {},
  "deployedLinkReferences": {}
}