{
  "_format": "hh-sol-artifact-1",
  "contractName": "ScrubVaultCave",
  "sourceName": "contracts/ScrubVaultCave.sol",
  "abi": [
    {
      "inputs": [],
      "stateMutability": "nonpayable",
      "type": "constructor"
    },
    {
      "anonymous": false,
      "inputs": [
        {
          "indexed": false,
          "internalType": "address",
          "name": "previousAdmin",
          "type": "address"
        },
        {
          "indexed": false,
          "internalType": "address",
          "name": "newAdmin",
          "type": "address"
        }
      ],
      "name": "AdminChanged",
      "type": "event"
    },
    {
      "anonymous": false,
      "inputs": [
        {
          "indexed": true,
          "internalType": "address",
          "name": "beacon",
          "type": "address"
        }
      ],
      "name": "BeaconUpgraded",
      "type": "event"
    },
    {
      "anonymous": false,
      "inputs": [
        {
          "indexed": false,
          "internalType": "uint8",
          "name": "version",
          "type": "uint8"
        }
      ],
      "name": "Initialized",
      "type": "event"
    },
    {
      "anonymous": false,
      "inputs": [
        {
          "indexed": true,
          "internalType": "address",
          "name": "owner",
          "type": "address"
        },
        {
          "indexed": false,
          "internalType": "uint256",
          "name": "amount",
          "type": "uint256"
        },
        {
          "indexed": false,
          "internalType": "uint256",
          "name": "totalInventory",
          "type": "uint256"
        },
        {
          "indexed": false,
          "internalType": "uint256",
          "name": "timestamp",
          "type": "uint256"
        }
      ],
      "name": "InventoryDeposited",
      "type": "event"
    },
    {
      "anonymous": false,
      "inputs": [
        {
          "indexed": false,
          "internalType": "uint256",
          "name": "newAmount",
          "type": "uint256"
        }
      ],
      "name": "MinDepositUpdated",
      "type": "event"
    },
    {
      "anonymous": false,
      "inputs": [
        {
          "indexed": false,
          "internalType": "uint256",
          "name": "newAmount",
          "type": "uint256"
        }
      ],
      "name": "MinPurchaseUpdated",
      "type": "event"
    },
    {
      "anonymous": false,
      "inputs": [
        {
          "indexed": true,
          "internalType": "address",
          "name": "previousOwner",
          "type": "address"
        },
        {
          "indexed": true,
          "internalType": "address",
          "name": "newOwner",
          "type": "address"
        }
      ],
      "name": "OwnershipTransferred",
      "type": "event"
    },
    {
      "anonymous": false,
      "inputs": [
        {
          "indexed": true,
          "internalType": "address",
          "name": "user",
          "type": "address"
        },
        {
          "indexed": false,
          "internalType": "uint256",
          "name": "amount",
          "type": "uint256"
        },
        {
          "indexed": false,
          "internalType": "uint256",
          "name": "shares",
          "type": "uint256"
        },
        {
          "indexed": false,
          "internalType": "uint256",
          "name": "totalShares",
          "type": "uint256"
        },
        {
          "indexed": false,
          "internalType": "uint256",
          "name": "timestamp",
          "type": "uint256"
        }
      ],
      "name": "PointsDeposited",
      "type": "event"
    },
    {
      "anonymous": false,
      "inputs": [
        {
          "indexed": true,
          "internalType": "address",
          "name": "buyer",
          "type": "address"
        },
        {
          "indexed": false,
          "internalType": "uint256",
          "name": "pointAmount",
          "type": "uint256"
        },
        {
          "indexed": false,
          "internalType": "uint256",
          "name": "usdtPaid",
          "type": "uint256"
        },
        {
          "indexed": false,
          "internalType": "uint256",
          "name": "pricePerToken",
          "type": "uint256"
        },
        {
          "indexed": false,
          "internalType": "uint256",
          "name": "timestamp",
          "type": "uint256"
        }
      ],
      "name": "PointsPurchased",
      "type": "event"
    },
    {
      "anonymous": false,
      "inputs": [
        {
          "indexed": true,
          "internalType": "address",
          "name": "user",
          "type": "address"
        },
        {
          "indexed": false,
          "internalType": "uint256",
          "name": "amount",
          "type": "uint256"
        },
        {
          "indexed": false,
          "internalType": "uint256",
          "name": "shares",
          "type": "uint256"
        },
        {
          "indexed": false,
          "internalType": "uint256",
          "name": "totalShares",
          "type": "uint256"
        },
        {
          "indexed": false,
          "internalType": "uint256",
          "name": "timestamp",
          "type": "uint256"
        }
      ],
      "name": "PointsWithdrawn",
      "type": "event"
    },
    {
      "anonymous": false,
      "inputs": [
        {
          "indexed": false,
          "internalType": "uint256",
          "name": "oldPrice",
          "type": "uint256"
        },
        {
          "indexed": false,
          "internalType": "uint256",
          "name": "newPrice",
          "type": "uint256"
        },
        {
          "indexed": false,
          "internalType": "uint256",
          "name": "timestamp",
          "type": "uint256"
        }
      ],
      "name": "PriceUpdated",
      "type": "event"
    },
    {
      "anonymous": false,
      "inputs": [
        {
          "indexed": true,
          "internalType": "address",
          "name": "implementation",
          "type": "address"
        }
      ],
      "name": "Upgraded",
      "type": "event"
    },
    {
      "anonymous": false,
      "inputs": [
        {
          "indexed": true,
          "internalType": "address",
          "name": "user",
          "type": "address"
        },
        {
          "indexed": false,
          "internalType": "uint256",
          "name": "amount",
          "type": "uint256"
        },
        {
          "indexed": false,
          "internalType": "uint256",
          "name": "totalClaimed",
          "type": "uint256"
        },
        {
          "indexed": false,
          "internalType": "uint256",
          "name": "timestamp",
          "type": "uint256"
        }
      ],
      "name": "UsdtClaimed",
      "type": "event"
    },
    {
      "inputs": [
        {
          "internalType": "uint256",
          "name": "pointAmount",
          "type": "uint256"
        }
      ],
      "name": "buyPoints",
      "outputs": [],
      "stateMutability": "nonpayable",
      "type": "function"
    },
    {
      "inputs": [],
      "name": "claimUsdt",
      "outputs": [],
      "stateMutability": "nonpayable",
      "type": "function"
    },
    {
      "inputs": [
        {
          "internalType": "uint256",
          "name": "amount",
          "type": "uint256"
        }
      ],
      "name": "depositPoints",
      "outputs": [],
      "stateMutability": "nonpayable",
      "type": "function"
    },
    {
      "inputs": [
        {
          "internalType": "uint256",
          "name": "amount",
          "type": "uint256"
        }
      ],
      "name": "depositPointsInventory",
      "outputs": [],
      "stateMutability": "nonpayable",
      "type": "function"
    },
    {
      "inputs": [
        {
          "internalType": "address",
          "name": "token",
          "type": "address"
        },
        {
          "internalType": "uint256",
          "name": "amount",
          "type": "uint256"
        }
      ],
      "name": "emergencyWithdraw",
      "outputs": [],
      "stateMutability": "nonpayable",
      "type": "function"
    },
    {
      "inputs": [],
      "name": "getCaveStats",
      "outputs": [
        {
          "internalType": "uint256",
          "name": "totalDepositShares",
          "type": "uint256"
        },
        {
          "internalType": "uint256",
          "name": "totalDeposited",
          "type": "uint256"
        },
        {
          "internalType": "uint256",
          "name": "totalCollected",
          "type": "uint256"
        },
        {
          "internalType": "uint256",
          "name": "inventoryPoints",
          "type": "uint256"
        }
      ],
      "stateMutability": "view",
      "type": "function"
    },
    {
      "inputs": [
        {
          "internalType": "address",
          "name": "user",
          "type": "address"
        }
      ],
      "name": "getClaimableUsdt",
      "outputs": [
        {
          "internalType": "uint256",
          "name": "",
          "type": "uint256"
        }
      ],
      "stateMutability": "view",
      "type": "function"
    },
    {
      "inputs": [],
      "name": "getDepositedPoints",
      "outputs": [
        {
          "internalType": "uint256",
          "name": "",
          "type": "uint256"
        }
      ],
      "stateMutability": "view",
      "type": "function"
    },
    {
      "inputs": [
        {
          "internalType": "address",
          "name": "user",
          "type": "address"
        }
      ],
      "name": "getUserStats",
      "outputs": [
        {
          "internalType": "uint256",
          "name": "shares",
          "type": "uint256"
        },
        {
          "internalType": "uint256",
          "name": "withdrawablePoints",
          "type": "uint256"
        },
        {
          "internalType": "uint256",
          "name": "claimable",
          "type": "uint256"
        },
        {
          "internalType": "uint256",
          "name": "claimed",
          "type": "uint256"
        }
      ],
      "stateMutability": "view",
      "type": "function"
    },
    {
      "inputs": [
        {
          "internalType": "address",
          "name": "user",
          "type": "address"
        }
      ],
      "name": "getWithdrawablePoints",
      "outputs": [
        {
          "internalType": "uint256",
          "name": "",
          "type": "uint256"
        }
      ],
      "stateMutability": "view",
      "type": "function"
    },
    {
      "inputs": [
        {
          "internalType": "address",
          "name": "_scrubPoint",
          "type": "address"
        },
        {
          "internalType": "address",
          "name": "_usdt",
          "type": "address"
        },
        {
          "internalType": "uint256",
          "name": "_pointBuyPrice",
          "type": "uint256"
        },
        {
          "internalType": "address",
          "name": "_owner",
          "type": "address"
        }
      ],
      "name": "initialize",
      "outputs": [],
      "stateMutability": "nonpayable",
      "type": "function"
    },
    {
      "inputs": [],
      "name": "minDepositAmount",
      "outputs": [
        {
          "internalType": "uint256",
          "name": "",
          "type": "uint256"
        }
      ],
      "stateMutability": "view",
      "type": "function"
    },
    {
      "inputs": [],
      "name": "minPurchaseAmount",
      "outputs": [
        {
          "internalType": "uint256",
          "name": "",
          "type": "uint256"
        }
      ],
      "stateMutability": "view",
      "type": "function"
    },
    {
      "inputs": [],
      "name": "owner",
      "outputs": [
        {
          "internalType": "address",
          "name": "",
          "type": "address"
        }
      ],
      "stateMutability": "view",
      "type": "function"
    },
    {
      "inputs": [],
      "name": "pointBuyPrice",
      "outputs": [
        {
          "internalType": "uint256",
          "name": "",
          "type": "uint256"
        }
      ],
      "stateMutability": "view",
      "type": "function"
    },
    {
      "inputs": [],
      "name": "pointsForSale",
      "outputs": [
        {
          "internalType": "uint256",
          "name": "",
          "type": "uint256"
        }
      ],
      "stateMutability": "view",
      "type": "function"
    },
    {
      "inputs": [],
      "name": "proxiableUUID",
      "outputs": [
        {
          "internalType": "bytes32",
          "name": "",
          "type": "bytes32"
        }
      ],
      "stateMutability": "view",
      "type": "function"
    },
    {
      "inputs": [],
      "name": "renounceOwnership",
      "outputs": [],
      "stateMutability": "nonpayable",
      "type": "function"
    },
    {
      "inputs": [],
      "name": "scrubPoint",
      "outputs": [
        {
          "internalType": "contract IERC20",
          "name": "",
          "type": "address"
        }
      ],
      "stateMutability": "view",
      "type": "function"
    },
    {
      "inputs": [
        {
          "internalType": "uint256",
          "name": "amount",
          "type": "uint256"
        }
      ],
      "name": "setMinDepositAmount",
      "outputs": [],
      "stateMutability": "nonpayable",
      "type": "function"
    },
    {
      "inputs": [
        {
          "internalType": "uint256",
          "name": "amount",
          "type": "uint256"
        }
      ],
      "name": "setMinPurchaseAmount",
      "outputs": [],
      "stateMutability": "nonpayable",
      "type": "function"
    },
    {
      "inputs": [
        {
          "internalType": "uint256",
          "name": "newPrice",
          "type": "uint256"
        }
      ],
      "name": "setPointBuyPrice",
      "outputs": [],
      "stateMutability": "nonpayable",
      "type": "function"
    },
    {
      "inputs": [],
      "name": "totalShares",
      "outputs": [
        {
          "internalType": "uint256",
          "name": "",
          "type": "uint256"
        }
      ],
      "stateMutability": "view",
      "type": "function"
    },
    {
      "inputs": [],
      "name": "totalUsdtCollected",
      "outputs": [
        {
          "internalType": "uint256",
          "name": "",
          "type": "uint256"
        }
      ],
      "stateMutability": "view",
      "type": "function"
    },
    {
      "inputs": [
        {
          "internalType": "address",
          "name": "newOwner",
          "type": "address"
        }
      ],
      "name": "transferOwnership",
      "outputs": [],
      "stateMutability": "nonpayable",
      "type": "function"
    },
    {
      "inputs": [
        {
          "internalType": "address",
          "name": "newImplementation",
          "type": "address"
        }
      ],
      "name": "upgradeTo",
      "outputs": [],
      "stateMutability": "nonpayable",
      "type": "function"
    },
    {
      "inputs": [
        {
          "internalType": "address",
          "name": "newImplementation",
          "type": "address"
        },
        {
          "internalType": "bytes",
          "name": "data",
          "type": "bytes"
        }
      ],
      "name": "upgradeToAndCall",
      "outputs": [],
      "stateMutability": "payable",
      "type": "function"
    },
    {
      "inputs": [],
      "name": "usdt",
      "outputs": [
        {
          "internalType": "contract IERC20",
          "name": "",
          "type": "address"
        }
      ],
      "stateMutability": "view",
      "type": "function"
    },
    {
      "inputs": [
        {
          "internalType": "address",
          "name": "",
          "type": "address"
        }
      ],
      "name": "userShares",
      "outputs": [
        {
          "internalType": "uint256",
          "name": "",
          "type": "uint256"
        }
      ],
      "stateMutability": "view",
      "type": "function"
    },
    {
      "inputs": [
        {
          "internalType": "address",
          "name": "",
          "type": "address"
        }
      ],
      "name": "userUsdtClaimed",
      "outputs": [
        {
          "internalType": "uint256",
          "name": "",
          "type": "uint256"
        }
      ],
      "stateMutability": "view",
      "type": "function"
    },
    {
      "inputs": [
        {
          "internalType": "uint256",
          "name": "shares",
          "type": "uint256"
        }
      ],
      "name": "withdrawPoints",
      "outputs": [],
      "stateMutability": "nonpayable",
      "type": "function"
    }
  ],
  "bytecode": "0x60a080604052346100dc57306080526000549060ff8260081c1661008a575060ff8082160361004f575b604051611ffc90816100e28239608051818181610b8901528181610cbc01526111cc0152f35b60ff90811916176000557f7f26b83ff96e1f2b6a682f133852f6798a09c465da95921460cefb3847402498602060405160ff8152a138610029565b62461bcd60e51b815260206004820152602760248201527f496e697469616c697a61626c653a20636f6e747261637420697320696e697469604482015266616c697a696e6760c81b6064820152608490fd5b600080fdfe6080604081815260048036101561001557600080fd5b600092833560e01c90816303e8ad93146115ac5750806313178826146115865780631396e69a1461153b5780632a80cda3146114e25780632f48ab7d146114ba578063364c9777146113bb5780633659cfe6146111a45780633a98ef391461118557806347de8a9014610fdf5780634e43603a14610f645780634f1ef28614610c4057806352d1902d14610b6c578063580d292d14610b0457806358c9e484146109d3578063645006ca146109b35780636b16ba761461082f578063715018a6146107c4578063726f64f81461079c5780638da5cb5b146107745780638e5a54ec146106d957806395ccea671461064c578063a87143421461062c578063b47dbf221461060c578063bcedf278146105e6578063be2030941461031a578063cc70c59e146102fb578063d4ef4b37146102dc578063d636fe86146102b8578063de69b3aa1461027c578063e9d3fb78146102235763f2fde38b1461017857600080fd5b3461021f57602036600319011261021f576101916115e1565b9161019a61166c565b6001600160a01b038316156101b657836101b3846116c4565b80f35b906020608492519162461bcd60e51b8352820152602660248201527f4f776e61626c653a206e6577206f776e657220697320746865207a65726f206160448201527f64647265737300000000000000000000000000000000000000000000000000006064820152fd5b8280fd5b503461021f57602036600319011261021f577faa5cd4951ddd9c7655806cf5372041af8c3d11d707ee625a1493401a51feb80191602091359061026461166c565b61026f821515611f7b565b816101035551908152a180f35b5050346102b45760203660031901126102b457806020926001600160a01b036102a36115e1565b168152610100845220549051908152f35b5080fd5b5050346102b457816003193601126102b4576020906102d5611dfa565b9051908152f35b5050346102b457816003193601126102b45760209060ff549051908152f35b5050346102b457816003193601126102b45760209060fe549051908152f35b503461021f57608036600319011261021f576103346115e1565b90602435916001600160a01b03928381168091036105e25760443592606435858116918282036105de5788549660ff95868960081c16159889809a6105d2575b80156105bc575b156105535760ff1981166001178c5589610542575b50169283156104ff5784156104bc576103aa8715156119b8565b156104795750610400906103cc858a5460081c166103c781611a03565b611a03565b6103d5336116c4565b6103fb858a5460081c166103e881611a03565b6103f181611a03565b6001606555611a03565b6116c4565b73ffffffffffffffffffffffffffffffffffffffff19908160fb54161760fb5560fc54161760fc5555670de0b6b3a7640000806101025561010355610443575080f35b60207f7f26b83ff96e1f2b6a682f133852f6798a09c465da95921460cefb38474024989161ff001984541684555160018152a180f35b606490602089519162461bcd60e51b8352820152601560248201527f496e76616c6964206f776e6572206164647265737300000000000000000000006044820152fd5b60648260208b519162461bcd60e51b8352820152601460248201527f496e76616c6964205553445420616464726573730000000000000000000000006044820152fd5b60648260208b519162461bcd60e51b8352820152601a60248201527f496e76616c6964205363727562506f696e7420616464726573730000000000006044820152fd5b61ffff1916610101178b5538610390565b60848460208d519162461bcd60e51b8352820152602e60248201527f496e697469616c697a61626c653a20636f6e747261637420697320616c72656160448201527f647920696e697469616c697a65640000000000000000000000000000000000006064820152fd5b50303b15801561037b575060018882161461037b565b50600188821610610374565b8880fd5b8580fd5b5050346102b45760203660031901126102b4576020906102d56106076115e1565b611f1e565b5050346102b457816003193601126102b457602090610103549051908152f35b5050346102b457816003193601126102b457602090610104549051908152f35b508290346102b457826003193601126102b4576106676115e1565b9061067061166c565b6001600160a01b038092169081156106965750906101b391602435916033541690611d94565b606490602086519162461bcd60e51b8352820152601560248201527f496e76616c696420746f6b656e206164647265737300000000000000000000006044820152fd5b503461021f57602036600319011261021f5761076e7f01319023e037e451d0a1cd72ffbacf4dd570ae85d8a43284aba35e0f351d0cba913561071961166c565b610724811515611f7b565b61073d816001600160a01b0360fb541630903390611bb5565b6101049361074c828654611b53565b8095555191829133954291846040919493926060820195825260208201520152565b0390a280f35b5050346102b457816003193601126102b4576020906001600160a01b03603354169051908152f35b5050346102b457816003193601126102b4576020906001600160a01b0360fb54169051908152f35b833461082c578060031936011261082c576107dd61166c565b806001600160a01b0360335473ffffffffffffffffffffffffffffffffffffffff198116603355167f8be0079c531659141344cd1fd0a4f28419497f9722a3daafe3b4186f6b6457e08280a380f35b80fd5b503461021f57602036600319011261021f5780359161084c611b60565b610857831515611b08565b3384526101008060205283828620541061097057610873611dfa565b6108896108808287611abf565b60fd5490611ae8565b93841561092d5750906108c1847f20519e2ebe56dd6c1fa4cb8746265af57a878034805932ea56fe5486114ec55b9594931015611d3c565b3386526020528085206108d5858254611d87565b90556108e38460fd54611d87565b60fd556108fc82336001600160a01b0360fb5416611d94565b60fd54905191825260208201939093526040810192909252426060830152339180608081015b0390a2600160655580f35b606490602085519162461bcd60e51b8352820152601c60248201527f506f696e747320746f2072657475726e206d757374206265203e2030000000006044820152fd5b606483602084519162461bcd60e51b8352820152601360248201527f496e73756666696369656e7420736861726573000000000000000000000000006044820152fd5b5050346102b457816003193601126102b457602090610102549051908152f35b50903461021f57602036600319011261021f578135906109f1611b60565b610a0061010354831015611a74565b610104610a108382541015611d3c565b670de0b6b3a7640000610a2560ff5485611abf565b04938415610ac15750908291610a7b7f8d605116bcdece0015f55982d053ea65f76f299ce327184b936a795b14039450946001600160a01b03610a70888260fc541630903390611bb5565b339060fb5416611d94565b610a86838254611d87565b9055610a948460fe54611b53565b60fe5560ff5490519182526020820193909352604081019290925242606083015233918060808101610922565b606490602084519162461bcd60e51b8352820152601960248201527f55534454207265717569726564206d757374206265203e2030000000000000006044820152fd5b50903461021f57602036600319011261021f577f15819dd2fd9f6418b142e798d08a18d0bf06ea368f4480b7b0d3f75bd966bc489135610b4261166c565b610b4d8115156119b8565b60ff80549082905591519182526020820152426040820152606090a180f35b50823461082c578060031936011261082c57506001600160a01b037f0000000000000000000000000000000000000000000000000000000000000000163003610bd857602082517f360894a13ba1a3210667c828492db98dca3e2076cc3735a920a3ca505d382bbc8152f35b6020608492519162461bcd60e51b8352820152603860248201527f555550535570677261646561626c653a206d757374206e6f742062652063616c60448201527f6c6564207468726f7567682064656c656761746563616c6c00000000000000006064820152fd5b50908060031936011261021f57610c556115e1565b906024359067ffffffffffffffff8211610f605736602383011215610f605781840135610c8181611650565b90610c8e8351928361162e565b8082528660209485840192366024828401011161021f578060248893018537840101526001600160a01b03807f00000000000000000000000000000000000000000000000000000000000000001690610ce982301415611719565b610d187f360894a13ba1a3210667c828492db98dca3e2076cc3735a920a3ca505d382bbc92828454161461178a565b610d2061166c565b7f4910fdfa16fed3260ed0e7147f7cc6da11a60208b5b9406d12a635614ffd91435460ff1615610d5a575050505050506101b391506117fb565b8693949596169085516352d1902d60e01b815287818a81865afa8a9181610f2d575b50610de9576084898989519162461bcd60e51b8352820152602e60248201527f45524331393637557067726164653a206e657720696d706c656d656e7461746960448201527f6f6e206973206e6f7420555550530000000000000000000000000000000000006064820152fd5b9791929395949703610ec5575090869291610e03856117fb565b7fbc7cd75a20ee27fd9adebab32041f755214dbc6bffa90cc0225b39da2e5c2d3b8480a2855115801590610ebd575b610e40575b50505050505080f35b610eb1957f206661696c656400000000000000000000000000000000000000000000000000837f416464726573733a206c6f772d6c6576656c2064656c65676174652063616c6c86955198610e948a6115fc565b60278a528901528701525190845af4610eab6118b5565b916118e5565b50388080838180610e37565b506001610e32565b6084908685519162461bcd60e51b8352820152602960248201527f45524331393637557067726164653a20756e737570706f727465642070726f7860448201527f6961626c655555494400000000000000000000000000000000000000000000006064820152fd5b9091508881813d8311610f59575b610f45818361162e565b81010312610f5557519038610d7c565b8a80fd5b503d610f3b565b8480fd5b82843461082c57602036600319011261082c57610fdb610f826115e1565b926001600160a01b038416808452610100602052818085205494610fae610fa888611f1e565b97611e8f565b92815261010160205220549151948594859094939260609260808301968352602083015260408201520152565b0390f35b503461021f578260031936011261021f57610ff8611b60565b61100133611e8f565b908115611142576001600160a01b03908160fc541690845180926370a0823160e01b8252308383015281602460209586935afa80156111385785918891611103575b50106110c2575091610922917f508c18a47aab211164d64491e2490f84f3a4cc1f0b9fd7078cee3834b3d5382e9333875261109a8361010193848452888a2061108d838254611b53565b9055339060fc5416611d94565b3387525283852054935191829133954291846040919493926060820195825260208201520152565b60649185519162461bcd60e51b8352820152601960248201527f496e73756666696369656e74205553445420696e2063617665000000000000006044820152fd5b809250848092503d8311611131575b61111c818361162e565b8101031261112d5784905138611043565b8680fd5b503d611112565b86513d89823e3d90fd5b606490602084519162461bcd60e51b8352820152601060248201527f4e6f205553445420746f20636c61696d000000000000000000000000000000006044820152fd5b5050346102b457816003193601126102b45760209060fd549051908152f35b50903461021f576020806003193601126113b7576111c06115e1565b916001600160a01b03807f000000000000000000000000000000000000000000000000000000000000000016906111f982301415611719565b6112287f360894a13ba1a3210667c828492db98dca3e2076cc3735a920a3ca505d382bbc92828454161461178a565b61123061166c565b8251918483019183831067ffffffffffffffff8411176113a4578285528884527f4910fdfa16fed3260ed0e7147f7cc6da11a60208b5b9406d12a635614ffd91435460ff161561128a575050505050506101b391506117fb565b8693949596169085516352d1902d60e01b815287818a81865afa8a9181611375575b50611319576084898989519162461bcd60e51b8352820152602e60248201527f45524331393637557067726164653a206e657720696d706c656d656e7461746960448201527f6f6e206973206e6f7420555550530000000000000000000000000000000000006064820152fd5b9791929395949703610ec5575090869291611333856117fb565b7fbc7cd75a20ee27fd9adebab32041f755214dbc6bffa90cc0225b39da2e5c2d3b8480a285511580159061136e57610e405750505050505080f35b5082610e32565b9091508881813d831161139d575b61138d818361162e565b81010312610f55575190386112ac565b503d611383565b60248960418a634e487b7160e01b835252fd5b8380fd5b503461021f57602036600319011261021f577fdb836b18bcf64135dc9d0df361930fa3181eefeaacf335c9a14ffc4f57e6d6c190356113f8611b60565b61140761010254821015611a74565b611420816001600160a01b0360fb541630903390611bb5565b611428611dfa565b60fd5490811580156114b2575b1561149a57505080925b61144a841515611b08565b338552610100602052808520611461858254611b53565b90556109226114728560fd54611b53565b60fd819055915192835260208301949094526040820152426060820152339281906080820190565b6114a76114ac9284611abf565b611ae8565b9261143f565b508015611435565b5050346102b457816003193601126102b4576020906001600160a01b0360fc54169051908152f35b503461021f57602036600319011261021f577f96a008f96f1c0ab9fa3d9ddd43cdfc614848c4d054d51f43662ed900e9d094c891602091359061152361166c565b61152e821515611f7b565b816101025551908152a180f35b82843461082c578060031936011261082c575060fd54610fdb61155c611dfa565b9260fe54610104549151948594859094939260609260808301968352602083015260408201520152565b5050346102b45760203660031901126102b4576020906102d56115a76115e1565b611e8f565b8490843461021f57602036600319011261021f576020926001600160a01b036115d36115e1565b168152610101845220548152f35b600435906001600160a01b03821682036115f757565b600080fd5b6060810190811067ffffffffffffffff82111761161857604052565b634e487b7160e01b600052604160045260246000fd5b90601f8019910116810190811067ffffffffffffffff82111761161857604052565b67ffffffffffffffff811161161857601f01601f191660200190565b6001600160a01b0360335416330361168057565b606460405162461bcd60e51b815260206004820152602060248201527f4f776e61626c653a2063616c6c6572206973206e6f7420746865206f776e65726044820152fd5b603354906001600160a01b03809116918273ffffffffffffffffffffffffffffffffffffffff19821617603355167f8be0079c531659141344cd1fd0a4f28419497f9722a3daafe3b4186f6b6457e0600080a3565b1561172057565b608460405162461bcd60e51b815260206004820152602c60248201527f46756e6374696f6e206d7573742062652063616c6c6564207468726f7567682060448201527f64656c656761746563616c6c00000000000000000000000000000000000000006064820152fd5b1561179157565b608460405162461bcd60e51b815260206004820152602c60248201527f46756e6374696f6e206d7573742062652063616c6c6564207468726f7567682060448201527f6163746976652070726f787900000000000000000000000000000000000000006064820152fd5b803b1561184b576001600160a01b037f360894a13ba1a3210667c828492db98dca3e2076cc3735a920a3ca505d382bbc911673ffffffffffffffffffffffffffffffffffffffff19825416179055565b608460405162461bcd60e51b815260206004820152602d60248201527f455243313936373a206e657720696d706c656d656e746174696f6e206973206e60448201527f6f74206120636f6e7472616374000000000000000000000000000000000000006064820152fd5b3d156118e0573d906118c682611650565b916118d4604051938461162e565b82523d6000602084013e565b606090565b9192901561194657508151156118f9575090565b3b156119025790565b606460405162461bcd60e51b815260206004820152601d60248201527f416464726573733a2063616c6c20746f206e6f6e2d636f6e74726163740000006044820152fd5b8251909150156119595750805190602001fd5b6040519062461bcd60e51b82528160208060048301528251908160248401526000935b82851061199f575050604492506000838284010152601f80199101168101030190fd5b848101820151868601604401529381019385935061197c565b156119bf57565b606460405162461bcd60e51b815260206004820152601160248201527f5072696365206d757374206265203e20300000000000000000000000000000006044820152fd5b15611a0a57565b608460405162461bcd60e51b815260206004820152602b60248201527f496e697469616c697a61626c653a20636f6e7472616374206973206e6f74206960448201527f6e697469616c697a696e670000000000000000000000000000000000000000006064820152fd5b15611a7b57565b606460405162461bcd60e51b815260206004820152601460248201527f416d6f756e742062656c6f77206d696e696d756d0000000000000000000000006044820152fd5b81810292918115918404141715611ad257565b634e487b7160e01b600052601160045260246000fd5b8115611af2570490565b634e487b7160e01b600052601260045260246000fd5b15611b0f57565b606460405162461bcd60e51b815260206004820152601260248201527f536861726573206d757374206265203e203000000000000000000000000000006044820152fd5b91908201809211611ad257565b600260655414611b71576002606555565b606460405162461bcd60e51b815260206004820152601f60248201527f5265656e7472616e637947756172643a207265656e7472616e742063616c6c006044820152fd5b9290604051927f23b872dd0000000000000000000000000000000000000000000000000000000060208501526001600160a01b03809216602485015216604483015260648201526064815260a081019181831067ffffffffffffffff84111761161857611c2492604052611c26565b565b6001600160a01b031690604051604081019080821067ffffffffffffffff83111761161857611c93916040526020938482527f5361666545524332303a206c6f772d6c6576656c2063616c6c206661696c6564858301526000808587829751910182855af1610eab6118b5565b805191821591848315611d18575b505050905015611cae5750565b6084906040519062461bcd60e51b82526004820152602a60248201527f5361666545524332303a204552433230206f7065726174696f6e20646964206e60448201527f6f742073756363656564000000000000000000000000000000000000000000006064820152fd5b9193818094500103126102b45782015190811515820361082c575080388084611ca1565b15611d4357565b606460405162461bcd60e51b815260206004820152601b60248201527f496e73756666696369656e7420706f696e747320696e206361766500000000006044820152fd5b91908203918211611ad257565b916001600160a01b03604051927fa9059cbb000000000000000000000000000000000000000000000000000000006020850152166024830152604482015260448152608081019181831067ffffffffffffffff84111761161857611c2492604052611c26565b602460206001600160a01b0360fb5416604051928380926370a0823160e01b82523060048301525afa908115611e8357600091611e52575b506101045480821115611e4b57611e4891611d87565b90565b5050600090565b906020823d8211611e7b575b81611e6b6020938361162e565b8101031261082c57505138611e32565b3d9150611e5e565b6040513d6000823e3d90fd5b60fd54908115611e4b576001600160a01b0316600091818352610100602052604083205490670de0b6b3a76400009182810290808204841490151715611f0a57611ee491611edc91611ae8565b60fe54611abf565b04908252610101602052604082205490818111611f0057505090565b611e489250611d87565b602485634e487b7160e01b81526011600452fd5b60fd5480158015611f5b575b611e4b576114a7611e48926001600160a01b03611f45611dfa565b9116600052610100602052604060002054611abf565b506001600160a01b03821660005261010060205260406000205415611f2a565b15611f8257565b606460405162461bcd60e51b815260206004820152601260248201527f416d6f756e74206d757374206265203e203000000000000000000000000000006044820152fdfea26469706673582212205d430f865ea5d1d2b05d4af08b4902055e39aa0126d3ad455fab551dfa09ae3264736f6c63430008140033",
  "linkReferences": {},
  "deployedLinkReferences": {}
}