{
  "_format": "hh-sol-artifact-1",
  "contractName": "ScrubPoint",
  "sourceName": "contracts/ScrubPoint.sol",
  "abi": [
    {
      "inputs": [],
      "stateMutability": "nonpayable",
      "type": "constructor"
    },
    {
      "anonymous": false,
      "inputs": [
        {
          "indexed": false,
          "internalType": "address",
          "name": "previousAdmin",
          "type": "address"
        },
        {
          "indexed": false,
          "internalType": "address",
          "name": "newAdmin",
          "type": "address"
        }
      ],
      "name": "AdminChanged",
      "type": "event"
    },
    {
      "anonymous": false,
      "inputs": [
        {
          "indexed": true,
          "internalType": "address",
          "name": "owner",
          "type": "address"
        },
        {
          "indexed": true,
          "internalType": "address",
          "name": "spender",
          "type": "address"
        },
        {
          "indexed": false,
          "internalType": "uint256",
          "name": "value",
          "type": "uint256"
        }
      ],
      "name": "Approval",
      "type": "event"
    },
    {
      "anonymous": false,
      "inputs": [
        {
          "indexed": true,
          "internalType": "address",
          "name": "beacon",
          "type": "address"
        }
      ],
      "name": "BeaconUpgraded",
      "type": "event"
    },
    {
      "anonymous": false,
      "inputs": [
        {
          "indexed": false,
          "internalType": "uint8",
          "name": "version",
          "type": "uint8"
        }
      ],
      "name": "Initialized",
      "type": "event"
    },
    {
      "anonymous": false,
      "inputs": [
        {
          "indexed": true,
          "internalType": "address",
          "name": "previousOwner",
          "type": "address"
        },
        {
          "indexed": true,
          "internalType": "address",
          "name": "newOwner",
          "type": "address"
        }
      ],
      "name": "OwnershipTransferred",
      "type": "event"
    },
    {
      "anonymous": false,
      "inputs": [
        {
          "indexed": true,
          "internalType": "address",
          "name": "from",
          "type": "address"
        },
        {
          "indexed": true,
          "internalType": "address",
          "name": "to",
          "type": "address"
        },
        {
          "indexed": false,
          "internalType": "uint256",
          "name": "value",
          "type": "uint256"
        }
      ],
      "name": "Transfer",
      "type": "event"
    },
    {
      "anonymous": false,
      "inputs": [
        {
          "indexed": true,
          "internalType": "address",
          "name": "implementation",
          "type": "address"
        }
      ],
      "name": "Upgraded",
      "type": "event"
    },
    {
      "inputs": [
        {
          "internalType": "address",
          "name": "owner",
          "type": "address"
        },
        {
          "internalType": "address",
          "name": "spender",
          "type": "address"
        }
      ],
      "name": "allowance",
      "outputs": [
        {
          "internalType": "uint256",
          "name": "",
          "type": "uint256"
        }
      ],
      "stateMutability": "view",
      "type": "function"
    },
    {
      "inputs": [
        {
          "internalType": "address",
          "name": "spender",
          "type": "address"
        },
        {
          "internalType": "uint256",
          "name": "amount",
          "type": "uint256"
        }
      ],
      "name": "approve",
      "outputs": [
        {
          "internalType": "bool",
          "name": "",
          "type": "bool"
        }
      ],
      "stateMutability": "nonpayable",
      "type": "function"
    },
    {
      "inputs": [
        {
          "internalType": "address",
          "name": "account",
          "type": "address"
        }
      ],
      "name": "balanceOf",
      "outputs": [
        {
          "internalType": "uint256",
          "name": "",
          "type": "uint256"
        }
      ],
      "stateMutability": "view",
      "type": "function"
    },
    {
      "inputs": [
        {
          "internalType": "address[]",
          "name": "recipients",
          "type": "address[]"
        },
        {
          "internalType": "uint256[]",
          "name": "amounts",
          "type": "uint256[]"
        }
      ],
      "name": "batchMint",
      "outputs": [],
      "stateMutability": "nonpayable",
      "type": "function"
    },
    {
      "inputs": [],
      "name": "decimals",
      "outputs": [
        {
          "internalType": "uint8",
          "name": "",
          "type": "uint8"
        }
      ],
      "stateMutability": "view",
      "type": "function"
    },
    {
      "inputs": [
        {
          "internalType": "address",
          "name": "spender",
          "type": "address"
        },
        {
          "internalType": "uint256",
          "name": "subtractedValue",
          "type": "uint256"
        }
      ],
      "name": "decreaseAllowance",
      "outputs": [
        {
          "internalType": "bool",
          "name": "",
          "type": "bool"
        }
      ],
      "stateMutability": "nonpayable",
      "type": "function"
    },
    {
      "inputs": [
        {
          "internalType": "address",
          "name": "spender",
          "type": "address"
        },
        {
          "internalType": "uint256",
          "name": "addedValue",
          "type": "uint256"
        }
      ],
      "name": "increaseAllowance",
      "outputs": [
        {
          "internalType": "bool",
          "name": "",
          "type": "bool"
        }
      ],
      "stateMutability": "nonpayable",
      "type": "function"
    },
    {
      "inputs": [
        {
          "internalType": "address",
          "name": "initialOwner",
          "type": "address"
        }
      ],
      "name": "initialize",
      "outputs": [],
      "stateMutability": "nonpayable",
      "type": "function"
    },
    {
      "inputs": [
        {
          "internalType": "address",
          "name": "to",
          "type": "address"
        },
        {
          "internalType": "uint256",
          "name": "amount",
          "type": "uint256"
        }
      ],
      "name": "mint",
      "outputs": [],
      "stateMutability": "nonpayable",
      "type": "function"
    },
    {
      "inputs": [],
      "name": "name",
      "outputs": [
        {
          "internalType": "string",
          "name": "",
          "type": "string"
        }
      ],
      "stateMutability": "view",
      "type": "function"
    },
    {
      "inputs": [],
      "name": "owner",
      "outputs": [
        {
          "internalType": "address",
          "name": "",
          "type": "address"
        }
      ],
      "stateMutability": "view",
      "type": "function"
    },
    {
      "inputs": [],
      "name": "proxiableUUID",
      "outputs": [
        {
          "internalType": "bytes32",
          "name": "",
          "type": "bytes32"
        }
      ],
      "stateMutability": "view",
      "type": "function"
    },
    {
      "inputs": [],
      "name": "renounceOwnership",
      "outputs": [],
      "stateMutability": "nonpayable",
      "type": "function"
    },
    {
      "inputs": [],
      "name": "symbol",
      "outputs": [
        {
          "internalType": "string",
          "name": "",
          "type": "string"
        }
      ],
      "stateMutability": "view",
      "type": "function"
    },
    {
      "inputs": [],
      "name": "totalSupply",
      "outputs": [
        {
          "internalType": "uint256",
          "name": "",
          "type": "uint256"
        }
      ],
      "stateMutability": "view",
      "type": "function"
    },
    {
      "inputs": [
        {
          "internalType": "address",
          "name": "to",
          "type": "address"
        },
        {
          "internalType": "uint256",
          "name": "amount",
          "type": "uint256"
        }
      ],
      "name": "transfer",
      "outputs": [
        {
          "internalType": "bool",
          "name": "",
          "type": "bool"
        }
      ],
      "stateMutability": "nonpayable",
      "type": "function"
    },
    {
      "inputs": [
        {
          "internalType": "address",
          "name": "from",
          "type": "address"
        },
        {
          "internalType": "address",
          "name": "to",
          "type": "address"
        },
        {
          "internalType": "uint256",
          "name": "amount",
          "type": "uint256"
        }
      ],
      "name": "transferFrom",
      "outputs": [
        {
          "internalType": "bool",
          "name": "",
          "type": "bool"
        }
      ],
      "stateMutability": "nonpayable",
      "type": "function"
    },
    {
      "inputs": [
        {
          "internalType": "address",
          "name": "newOwner",
          "type": "address"
        }
      ],
      "name": "transferOwnership",
      "outputs": [],
      "stateMutability": "nonpayable",
      "type": "function"
    },
    {
      "inputs": [
        {
          "internalType": "address",
          "name": "newImplementation",
          "type": "address"
        }
      ],
      "name": "upgradeTo",
      "outputs": [],
      "stateMutability": "nonpayable",
      "type": "function"
    },
    {
      "inputs": [
        {
          "internalType": "address",
          "name": "newImplementation",
          "type": "address"
        },
        {
          "internalType": "bytes",
          "name": "data",
          "type": "bytes"
        }
      ],
      "name": "upgradeToAndCall",
      "outputs": [],
      "stateMutability": "payable",
      "type": "function"
    }
  ],
  "bytecode": "0x60a080604052346100dc57306080526000549060ff8260081c1661008a575060ff8082160361004f575b604051611d0690816100e28239608051818181610aea01528181610c1c0152610faa0152f35b60ff90811916176000557f7f26b83ff96e1f2b6a682f133852f6798a09c465da95921460cefb3847402498602060405160ff8152a138610029565b62461bcd60e51b815260206004820152602760248201527f496e697469616c697a61626c653a20636f6e747261637420697320696e697469604482015266616c697a696e6760c81b6064820152608490fd5b600080fdfe6080604081815260048036101561001557600080fd5b600092833560e01c90816306fdde03146112c357508063095ea7b31461129957806318160ddd1461127a57806323b872dd146111af578063313ce567146111935780633659cfe614610f825780633950935114610f3357806340c10f1914610ee75780634f1ef28614610ba157806352d1902d14610acd578063685731071461092757806370a08231146108f0578063715018a6146108885780638da5cb5b1461086057806395d89b411461077f578063a457c2d7146106bf578063a9059cbb1461068e578063c4d66de8146101f7578063dd62ed3e146101aa5763f2fde38b146100ff57600080fd5b346101a65760203660031901126101a6576101186113b4565b916101216114a2565b6001600160a01b0383161561013d578361013a846114fa565b80f35b906020608492519162461bcd60e51b8352820152602660248201527f4f776e61626c653a206e6577206f776e657220697320746865207a65726f206160448201527f64647265737300000000000000000000000000000000000000000000000000006064820152fd5b8280fd5b5050346101f357806003193601126101f357806020926101c86113b4565b6101d06113cf565b6001600160a01b0391821683526034865283832091168252845220549051908152f35b5080fd5b50346101a6576020908160031936011261068a576102136113b4565b9084549160ff8360081c16159182809361067d575b8015610666575b156105fe57600193838560ff1983161789556105ed575b50855161025281611417565b600a81527f5363727562506f696e740000000000000000000000000000000000000000000086820152865161028681611417565b600781527f5343525542505400000000000000000000000000000000000000000000000000878201526102c860ff8a5460081c166102c381611ac6565b611ac6565b81519267ffffffffffffffff938481116105da57806102e86036546116eb565b94601f9586811161056a575b508a908d8784116001146104e957926104de575b5050600019600383901b1c191690881b176036555b81519384116104cb57506103326037546116eb565b828111610469575b50869183116001146103e55761039b9392918991836103da575b5050600019600383901b1c191690851b176037555b61037d60ff885460081c166102c381611ac6565b610386336114fa565b61039660ff885460081c16611ac6565b6114fa565b6103a3578380f35b7f7f26b83ff96e1f2b6a682f133852f6798a09c465da95921460cefb38474024989261ff0019855416855551908152a13880808380f35b015190503880610354565b60378952929185917f42a7b7dd785cd69714a189dffb3fd7d7174edc9ece837694ce50f7078f7c31ae90601f1983168b5b8a828210610453575050958361039b971061043a575b505050811b01603755610369565b015160001960f88460031b161c1916905538808061042c565b8389015185558a96909401939283019201610416565b60378a527f42a7b7dd785cd69714a189dffb3fd7d7174edc9ece837694ce50f7078f7c31ae8380860160051c8201928a87106104c2575b0160051c019087905b8281106104b757505061033a565b8b81550187906104a9565b925081926104a0565b896041602492634e487b7160e01b835252fd5b015190503880610308565b603681528b94507f4a11f94e20a93c79f6ec743a1954ec4fc2c08429ae2122118bf234b2185c81b8929190601f198516908e5b828210610553575050841161053a575b505050811b0160365561031d565b015160001960f88460031b161c1916905538808061052c565b8385015186558e979095019493840193018e61051c565b90915060368d527f4a11f94e20a93c79f6ec743a1954ec4fc2c08429ae2122118bf234b2185c81b88680850160051c8201928d86106105d1575b859493910160051c909101908b908f5b8382106105c3575050506102f4565b81558594508c91018f6105b4565b925081926105a4565b60248b604184634e487b7160e01b835252fd5b61ffff191661010117875538610246565b6084908587519162461bcd60e51b8352820152602e60248201527f496e697469616c697a61626c653a20636f6e747261637420697320616c72656160448201527f647920696e697469616c697a65640000000000000000000000000000000000006064820152fd5b50303b15801561022f5750600160ff85161461022f565b50600160ff851610610228565b8380fd5b5050346101f357806003193601126101f3576020906106b86106ae6113b4565b6024359033611748565b5160018152f35b50823461077c578260031936011261077c576106d96113b4565b91836024359233815260346020528181206001600160a01b0386168252602052205490828210610713576020856106b885850387336118fe565b608490602086519162461bcd60e51b8352820152602560248201527f45524332303a2064656372656173656420616c6c6f77616e63652062656c6f7760448201527f207a65726f0000000000000000000000000000000000000000000000000000006064820152fd5b80fd5b5050346101f357816003193601126101f357805190826037546107a1816116eb565b8085529160019180831690811561083857506001146107db575b5050506107cd826107d7940383611433565b519182918261136b565b0390f35b9450603785527f42a7b7dd785cd69714a189dffb3fd7d7174edc9ece837694ce50f7078f7c31ae5b828610610820575050506107cd8260206107d795820101946107bb565b80546020878701810191909152909501948101610803565b6107d79750869350602092506107cd94915060ff191682840152151560051b820101946107bb565b5050346101f357816003193601126101f3576020906001600160a01b03606554169051908152f35b833461077c578060031936011261077c576108a16114a2565b806001600160a01b0360655473ffffffffffffffffffffffffffffffffffffffff198116606555167f8be0079c531659141344cd1fd0a4f28419497f9722a3daafe3b4186f6b6457e08280a380f35b5050346101f35760203660031901126101f357806020926001600160a01b036109176113b4565b1681526033845220549051908152f35b5090346101a657806003193601126101a65767ffffffffffffffff918035838111610ac9576109599036908301611471565b6024939193948535908111610ac5576109759036908501611471565b9190926109806114a2565b828203610a5e578115610a1d5750865b81811061099b578780f35b6109c16001600160a01b036109b96109b484868b611c96565b611cbc565b161515611b37565b6109d76109cf828587611c96565b351515611b82565b6109fa6109e86109b483858a611c96565b6109f3838688611c96565b3590611bf3565b6000198114610a0b57600101610990565b8688601187634e487b7160e01b835252fd5b5162461bcd60e51b81526020818601526018818801527f5363727562506f696e743a20656d7074792061727261797300000000000000006044820152606490fd5b5162461bcd60e51b81526020818601526022818801527f5363727562506f696e743a20617272617973206c656e677468206d69736d617460448201527f63680000000000000000000000000000000000000000000000000000000000006064820152608490fd5b8680fd5b8480fd5b50823461077c578060031936011261077c57506001600160a01b037f0000000000000000000000000000000000000000000000000000000000000000163003610b3957602082517f360894a13ba1a3210667c828492db98dca3e2076cc3735a920a3ca505d382bbc8152f35b6020608492519162461bcd60e51b8352820152603860248201527f555550535570677261646561626c653a206d757374206e6f742062652063616c60448201527f6c6564207468726f7567682064656c656761746563616c6c00000000000000006064820152fd5b5090806003193601126101a657610bb66113b4565b906024359067ffffffffffffffff8211610ac95736602383011215610ac95781840135610be281611455565b610bee83519182611433565b818152866020948583019336602482840101116101a6578060248893018637830101526001600160a01b03807f00000000000000000000000000000000000000000000000000000000000000001690610c498230141561154f565b610c787f360894a13ba1a3210667c828492db98dca3e2076cc3735a920a3ca505d382bbc9282845416146115c0565b610c806114a2565b7f4910fdfa16fed3260ed0e7147f7cc6da11a60208b5b9406d12a635614ffd91435460ff1615610cba5750505050505061013a9150611631565b869293949596169085516352d1902d60e01b815287818a81865afa8a9181610eb4575b50610d4a576084898989519162461bcd60e51b8352820152602e60248201527f45524331393637557067726164653a206e657720696d706c656d656e7461746960448201527f6f6e206973206e6f7420555550530000000000000000000000000000000000006064820152fd5b979192939695949703610e4c5750610d6182611631565b7fbc7cd75a20ee27fd9adebab32041f755214dbc6bffa90cc0225b39da2e5c2d3b8780a285845115801590610e44575b610d9f575b50505050505080f35b80610e2e96845196610db0886113e5565b602788527f416464726573733a206c6f772d6c6576656c2064656c65676174652063616c6c878901527f206661696c656400000000000000000000000000000000000000000000000000868901525190845af4913d15610e3a573d610e20610e1782611455565b92519283611433565b81528681943d92013e611a32565b50388080808085610d96565b5060609250611a32565b506001610d91565b6084908585519162461bcd60e51b8352820152602960248201527f45524331393637557067726164653a20756e737570706f727465642070726f7860448201527f6961626c655555494400000000000000000000000000000000000000000000006064820152fd5b9091508881813d8311610ee0575b610ecc8183611433565b81010312610edc57519038610cdd565b8a80fd5b503d610ec2565b5050346101f35736600319011261077c5761013a610f036113b4565b60243590610f0f6114a2565b610f236001600160a01b0382161515611b37565b610f2e821515611b82565b611bf3565b5050346101f357806003193601126101f3576106b8602092610f7b610f566113b4565b91338152603486528481206001600160a01b0384168252865284602435912054611725565b90336118fe565b5090346101a65760208060031936011261068a57610f9e6113b4565b916001600160a01b03807f000000000000000000000000000000000000000000000000000000000000000016610fd68130141561154f565b6110057f360894a13ba1a3210667c828492db98dca3e2076cc3735a920a3ca505d382bbc9183835416146115c0565b61100d6114a2565b8251908482019282841067ffffffffffffffff851117611180578385528883527f4910fdfa16fed3260ed0e7147f7cc6da11a60208b5b9406d12a635614ffd91435460ff16156110675750505050505061013a9150611631565b869293949596169085516352d1902d60e01b815287818a81865afa8a9181611151575b506110f7576084898989519162461bcd60e51b8352820152602e60248201527f45524331393637557067726164653a206e657720696d706c656d656e7461746960448201527f6f6e206973206e6f7420555550530000000000000000000000000000000000006064820152fd5b979192939695949703610e4c575061110e82611631565b7fbc7cd75a20ee27fd9adebab32041f755214dbc6bffa90cc0225b39da2e5c2d3b8780a28584511580159061114a57610d9f5750505050505080f35b5080610d91565b9091508881813d8311611179575b6111698183611433565b81010312610edc5751903861108a565b503d61115f565b60248960418a634e487b7160e01b835252fd5b5050346101f357816003193601126101f3576020905160128152f35b508290346101f35760603660031901126101f3576111cb6113b4565b6111d36113cf565b9184604435946001600160a01b03841681526034602052818120338252602052205490600019820361120e575b6020866106b8878787611748565b848210611237575091839161122c602096956106b8950333836118fe565b919394819350611200565b606490602087519162461bcd60e51b8352820152601d60248201527f45524332303a20696e73756666696369656e7420616c6c6f77616e63650000006044820152fd5b5050346101f357816003193601126101f3576020906035549051908152f35b5050346101f357806003193601126101f3576020906106b86112b96113b4565b60243590336118fe565b849084346101a657826003193601126101a657826036546112e3816116eb565b80855291600191808316908115610838575060011461130e575050506107cd826107d7940383611433565b9450603685527f4a11f94e20a93c79f6ec743a1954ec4fc2c08429ae2122118bf234b2185c81b85b828610611353575050506107cd8260206107d795820101946107bb565b80546020878701810191909152909501948101611336565b6020808252825181830181905290939260005b8281106113a057505060409293506000838284010152601f8019910116010190565b81810186015184820160400152850161137e565b600435906001600160a01b03821682036113ca57565b600080fd5b602435906001600160a01b03821682036113ca57565b6060810190811067ffffffffffffffff82111761140157604052565b634e487b7160e01b600052604160045260246000fd5b6040810190811067ffffffffffffffff82111761140157604052565b90601f8019910116810190811067ffffffffffffffff82111761140157604052565b67ffffffffffffffff811161140157601f01601f191660200190565b9181601f840112156113ca5782359167ffffffffffffffff83116113ca576020808501948460051b0101116113ca57565b6001600160a01b036065541633036114b657565b606460405162461bcd60e51b815260206004820152602060248201527f4f776e61626c653a2063616c6c6572206973206e6f7420746865206f776e65726044820152fd5b606554906001600160a01b03809116918273ffffffffffffffffffffffffffffffffffffffff19821617606555167f8be0079c531659141344cd1fd0a4f28419497f9722a3daafe3b4186f6b6457e0600080a3565b1561155657565b608460405162461bcd60e51b815260206004820152602c60248201527f46756e6374696f6e206d7573742062652063616c6c6564207468726f7567682060448201527f64656c656761746563616c6c00000000000000000000000000000000000000006064820152fd5b156115c757565b608460405162461bcd60e51b815260206004820152602c60248201527f46756e6374696f6e206d7573742062652063616c6c6564207468726f7567682060448201527f6163746976652070726f787900000000000000000000000000000000000000006064820152fd5b803b15611681576001600160a01b037f360894a13ba1a3210667c828492db98dca3e2076cc3735a920a3ca505d382bbc911673ffffffffffffffffffffffffffffffffffffffff19825416179055565b608460405162461bcd60e51b815260206004820152602d60248201527f455243313936373a206e657720696d706c656d656e746174696f6e206973206e60448201527f6f74206120636f6e7472616374000000000000000000000000000000000000006064820152fd5b90600182811c9216801561171b575b602083101461170557565b634e487b7160e01b600052602260045260246000fd5b91607f16916116fa565b9190820180921161173257565b634e487b7160e01b600052601160045260246000fd5b6001600160a01b03809116918215611894571691821561182a57600082815260336020526040812054918083106117c057604082827fddf252ad1be2c89b69c2b068fc378daa952ba7f163c4a11628f55a4df523b3ef95876020965260338652038282205586815220818154019055604051908152a3565b608460405162461bcd60e51b815260206004820152602660248201527f45524332303a207472616e7366657220616d6f756e742065786365656473206260448201527f616c616e636500000000000000000000000000000000000000000000000000006064820152fd5b608460405162461bcd60e51b815260206004820152602360248201527f45524332303a207472616e7366657220746f20746865207a65726f206164647260448201527f65737300000000000000000000000000000000000000000000000000000000006064820152fd5b608460405162461bcd60e51b815260206004820152602560248201527f45524332303a207472616e736665722066726f6d20746865207a65726f20616460448201527f64726573730000000000000000000000000000000000000000000000000000006064820152fd5b6001600160a01b038091169182156119c9571691821561195f5760207f8c5be1e5ebec7d5bd14f71427d1e84f3dd0314c0f7b2291e5b200ac8c7c3b925918360005260348252604060002085600052825280604060002055604051908152a3565b608460405162461bcd60e51b815260206004820152602260248201527f45524332303a20617070726f766520746f20746865207a65726f20616464726560448201527f73730000000000000000000000000000000000000000000000000000000000006064820152fd5b608460405162461bcd60e51b8152602060048201526024808201527f45524332303a20617070726f76652066726f6d20746865207a65726f2061646460448201527f72657373000000000000000000000000000000000000000000000000000000006064820152fd5b91929015611a935750815115611a46575090565b3b15611a4f5790565b606460405162461bcd60e51b815260206004820152601d60248201527f416464726573733a2063616c6c20746f206e6f6e2d636f6e74726163740000006044820152fd5b825190915015611aa65750805190602001fd5b611ac29060405191829162461bcd60e51b83526004830161136b565b0390fd5b15611acd57565b608460405162461bcd60e51b815260206004820152602b60248201527f496e697469616c697a61626c653a20636f6e7472616374206973206e6f74206960448201527f6e697469616c697a696e670000000000000000000000000000000000000000006064820152fd5b15611b3e57565b606460405162461bcd60e51b815260206004820152602060248201527f5363727562506f696e743a206d696e7420746f207a65726f20616464726573736044820152fd5b15611b8957565b608460405162461bcd60e51b815260206004820152602960248201527f5363727562506f696e743a20616d6f756e74206d75737420626520677265617460448201527f6572207468616e203000000000000000000000000000000000000000000000006064820152fd5b6001600160a01b0316908115611c52577fddf252ad1be2c89b69c2b068fc378daa952ba7f163c4a11628f55a4df523b3ef602082611c35600094603554611725565b6035558484526033825260408420818154019055604051908152a3565b606460405162461bcd60e51b815260206004820152601f60248201527f45524332303a206d696e7420746f20746865207a65726f2061646472657373006044820152fd5b9190811015611ca65760051b0190565b634e487b7160e01b600052603260045260246000fd5b356001600160a01b03811681036113ca579056fea2646970667358221220ededfd172b7c1126ceeb7727742e8c4aad3098adf83f469f3d399df4216f373764736f6c63430008140033",
  "linkReferences": {},
  "deployedLinkReferences": {}
}